{
  "contractName": "ERC1155_Token",
  "abi": [
    {
      "inputs": [],
      "stateMutability": "nonpayable",
      "type": "constructor"
    },
    {
      "anonymous": false,
      "inputs": [
        {
          "indexed": true,
          "internalType": "address",
          "name": "account",
          "type": "address"
        },
        {
          "indexed": true,
          "internalType": "address",
          "name": "operator",
          "type": "address"
        },
        {
          "indexed": false,
          "internalType": "bool",
          "name": "approved",
          "type": "bool"
        }
      ],
      "name": "ApprovalForAll",
      "type": "event"
    },
    {
      "anonymous": false,
      "inputs": [
        {
          "indexed": true,
          "internalType": "address",
          "name": "operator",
          "type": "address"
        },
        {
          "indexed": true,
          "internalType": "address",
          "name": "from",
          "type": "address"
        },
        {
          "indexed": true,
          "internalType": "address",
          "name": "to",
          "type": "address"
        },
        {
          "indexed": false,
          "internalType": "uint256[]",
          "name": "ids",
          "type": "uint256[]"
        },
        {
          "indexed": false,
          "internalType": "uint256[]",
          "name": "values",
          "type": "uint256[]"
        }
      ],
      "name": "TransferBatch",
      "type": "event"
    },
    {
      "anonymous": false,
      "inputs": [
        {
          "indexed": true,
          "internalType": "address",
          "name": "operator",
          "type": "address"
        },
        {
          "indexed": true,
          "internalType": "address",
          "name": "from",
          "type": "address"
        },
        {
          "indexed": true,
          "internalType": "address",
          "name": "to",
          "type": "address"
        },
        {
          "indexed": false,
          "internalType": "uint256",
          "name": "id",
          "type": "uint256"
        },
        {
          "indexed": false,
          "internalType": "uint256",
          "name": "value",
          "type": "uint256"
        }
      ],
      "name": "TransferSingle",
      "type": "event"
    },
    {
      "anonymous": false,
      "inputs": [
        {
          "indexed": false,
          "internalType": "string",
          "name": "value",
          "type": "string"
        },
        {
          "indexed": true,
          "internalType": "uint256",
          "name": "id",
          "type": "uint256"
        }
      ],
      "name": "URI",
      "type": "event"
    },
    {
      "inputs": [
        {
          "internalType": "address",
          "name": "account",
          "type": "address"
        },
        {
          "internalType": "uint256",
          "name": "id",
          "type": "uint256"
        }
      ],
      "name": "balanceOf",
      "outputs": [
        {
          "internalType": "uint256",
          "name": "",
          "type": "uint256"
        }
      ],
      "stateMutability": "view",
      "type": "function",
      "constant": true
    },
    {
      "inputs": [
        {
          "internalType": "address[]",
          "name": "accounts",
          "type": "address[]"
        },
        {
          "internalType": "uint256[]",
          "name": "ids",
          "type": "uint256[]"
        }
      ],
      "name": "balanceOfBatch",
      "outputs": [
        {
          "internalType": "uint256[]",
          "name": "",
          "type": "uint256[]"
        }
      ],
      "stateMutability": "view",
      "type": "function",
      "constant": true
    },
    {
      "inputs": [
        {
          "internalType": "address",
          "name": "account",
          "type": "address"
        },
        {
          "internalType": "address",
          "name": "operator",
          "type": "address"
        }
      ],
      "name": "isApprovedForAll",
      "outputs": [
        {
          "internalType": "bool",
          "name": "",
          "type": "bool"
        }
      ],
      "stateMutability": "view",
      "type": "function",
      "constant": true
    },
    {
      "inputs": [
        {
          "internalType": "address",
          "name": "from",
          "type": "address"
        },
        {
          "internalType": "address",
          "name": "to",
          "type": "address"
        },
        {
          "internalType": "uint256[]",
          "name": "ids",
          "type": "uint256[]"
        },
        {
          "internalType": "uint256[]",
          "name": "amounts",
          "type": "uint256[]"
        },
        {
          "internalType": "bytes",
          "name": "data",
          "type": "bytes"
        }
      ],
      "name": "safeBatchTransferFrom",
      "outputs": [],
      "stateMutability": "nonpayable",
      "type": "function"
    },
    {
      "inputs": [
        {
          "internalType": "address",
          "name": "from",
          "type": "address"
        },
        {
          "internalType": "address",
          "name": "to",
          "type": "address"
        },
        {
          "internalType": "uint256",
          "name": "id",
          "type": "uint256"
        },
        {
          "internalType": "uint256",
          "name": "amount",
          "type": "uint256"
        },
        {
          "internalType": "bytes",
          "name": "data",
          "type": "bytes"
        }
      ],
      "name": "safeTransferFrom",
      "outputs": [],
      "stateMutability": "nonpayable",
      "type": "function"
    },
    {
      "inputs": [
        {
          "internalType": "address",
          "name": "operator",
          "type": "address"
        },
        {
          "internalType": "bool",
          "name": "approved",
          "type": "bool"
        }
      ],
      "name": "setApprovalForAll",
      "outputs": [],
      "stateMutability": "nonpayable",
      "type": "function"
    },
    {
      "inputs": [
        {
          "internalType": "bytes4",
          "name": "interfaceId",
          "type": "bytes4"
        }
      ],
      "name": "supportsInterface",
      "outputs": [
        {
          "internalType": "bool",
          "name": "",
          "type": "bool"
        }
      ],
      "stateMutability": "view",
      "type": "function",
      "constant": true
    },
    {
      "inputs": [
        {
          "internalType": "uint256",
          "name": "",
          "type": "uint256"
        }
      ],
      "name": "uri",
      "outputs": [
        {
          "internalType": "string",
          "name": "",
          "type": "string"
        }
      ],
      "stateMutability": "view",
      "type": "function",
      "constant": true
    },
    {
      "inputs": [
        {
          "internalType": "uint256",
          "name": "id",
          "type": "uint256"
        },
        {
          "internalType": "uint256",
          "name": "amount",
          "type": "uint256"
        }
      ],
      "name": "mint",
      "outputs": [],
      "stateMutability": "nonpayable",
      "type": "function"
    }
  ],
  "bytecode": "0x60806040523480156200001157600080fd5b506040518060200160405280600081525062000033816200006660201b60201c565b5062000060336000670de0b6b3a7640000604051806020016040528060008152506200007b60201b60201c565b62000e71565b806002908162000077919062000791565b5050565b600073ffffffffffffffffffffffffffffffffffffffff168473ffffffffffffffffffffffffffffffffffffffff1603620000ed576040517f08c379a0000000000000000000000000000000000000000000000000000000008152600401620000e490620008ff565b60405180910390fd5b6000620000ff6200026260201b60201c565b9050600062000114856200026a60201b60201c565b9050600062000129856200026a60201b60201c565b90506200014283600089858589620002eb60201b60201c565b8460008088815260200190815260200160002060008973ffffffffffffffffffffffffffffffffffffffff1673ffffffffffffffffffffffffffffffffffffffff1681526020019081526020016000206000828254620001a3919062000950565b925050819055508673ffffffffffffffffffffffffffffffffffffffff16600073ffffffffffffffffffffffffffffffffffffffff168473ffffffffffffffffffffffffffffffffffffffff167fc3d58168c5ae7397731d063d5bbf3d657854427343f4c083240f7aacaa2d0f628989604051620002239291906200099c565b60405180910390a46200024283600089858589620002f360201b60201c565b6200025983600089898989620002fb60201b60201c565b50505050505050565b600033905090565b60606000600167ffffffffffffffff8111156200028c576200028b62000522565b5b604051908082528060200260200182016040528015620002bb5781602001602082028036833780820191505090505b5090508281600081518110620002d657620002d5620009c9565b5b60200260200101818152505080915050919050565b505050505050565b505050505050565b620003278473ffffffffffffffffffffffffffffffffffffffff16620004f460201b620007591760201c565b15620004ec578373ffffffffffffffffffffffffffffffffffffffff1663f23a6e6187878686866040518663ffffffff1660e01b81526004016200037095949392919062000ad7565b6020604051808303816000875af1925050508015620003af57506040513d601f19601f82011682018060405250810190620003ac919062000ba7565b60015b6200046057620003be62000be6565b806308c379a003620004215750620003d562000c41565b80620003e2575062000423565b806040517f08c379a000000000000000000000000000000000000000000000000000000000815260040162000418919062000d1d565b60405180910390fd5b505b6040517f08c379a0000000000000000000000000000000000000000000000000000000008152600401620004579062000db7565b60405180910390fd5b63f23a6e6160e01b7bffffffffffffffffffffffffffffffffffffffffffffffffffffffff1916817bffffffffffffffffffffffffffffffffffffffffffffffffffffffff191614620004ea576040517f08c379a0000000000000000000000000000000000000000000000000000000008152600401620004e19062000e4f565b60405180910390fd5b505b505050505050565b6000808273ffffffffffffffffffffffffffffffffffffffff163b119050919050565b600081519050919050565b7f4e487b7100000000000000000000000000000000000000000000000000000000600052604160045260246000fd5b7f4e487b7100000000000000000000000000000000000000000000000000000000600052602260045260246000fd5b600060028204905060018216806200059957607f821691505b602082108103620005af57620005ae62000551565b5b50919050565b60008190508160005260206000209050919050565b60006020601f8301049050919050565b600082821b905092915050565b600060088302620006197fffffffffffffffffffffffffffffffffffffffffffffffffffffffffffffffff82620005da565b620006258683620005da565b95508019841693508086168417925050509392505050565b6000819050919050565b6000819050919050565b6000620006726200066c62000666846200063d565b62000647565b6200063d565b9050919050565b6000819050919050565b6200068e8362000651565b620006a66200069d8262000679565b848454620005e7565b825550505050565b600090565b620006bd620006ae565b620006ca81848462000683565b505050565b5b81811015620006f257620006e6600082620006b3565b600181019050620006d0565b5050565b601f82111562000741576200070b81620005b5565b6200071684620005ca565b8101602085101562000726578190505b6200073e6200073585620005ca565b830182620006cf565b50505b505050565b600082821c905092915050565b6000620007666000198460080262000746565b1980831691505092915050565b600062000781838362000753565b9150826002028217905092915050565b6200079c8262000517565b67ffffffffffffffff811115620007b857620007b762000522565b5b620007c4825462000580565b620007d1828285620006f6565b600060209050601f831160018114620008095760008415620007f4578287015190505b62000800858262000773565b86555062000870565b601f1984166200081986620005b5565b60005b8281101562000843578489015182556001820191506020850194506020810190506200081c565b868310156200086357848901516200085f601f89168262000753565b8355505b6001600288020188555050505b505050505050565b600082825260208201905092915050565b7f455243313135353a206d696e7420746f20746865207a65726f2061646472657360008201527f7300000000000000000000000000000000000000000000000000000000000000602082015250565b6000620008e760218362000878565b9150620008f48262000889565b604082019050919050565b600060208201905081810360008301526200091a81620008d8565b9050919050565b7f4e487b7100000000000000000000000000000000000000000000000000000000600052601160045260246000fd5b60006200095d826200063d565b91506200096a836200063d565b925082820190508082111562000985576200098462000921565b5b92915050565b62000996816200063d565b82525050565b6000604082019050620009b360008301856200098b565b620009c260208301846200098b565b9392505050565b7f4e487b7100000000000000000000000000000000000000000000000000000000600052603260045260246000fd5b600073ffffffffffffffffffffffffffffffffffffffff82169050919050565b600062000a2582620009f8565b9050919050565b62000a378162000a18565b82525050565b600081519050919050565b600082825260208201905092915050565b60005b8381101562000a7957808201518184015260208101905062000a5c565b60008484015250505050565b6000601f19601f8301169050919050565b600062000aa38262000a3d565b62000aaf818562000a48565b935062000ac181856020860162000a59565b62000acc8162000a85565b840191505092915050565b600060a08201905062000aee600083018862000a2c565b62000afd602083018762000a2c565b62000b0c60408301866200098b565b62000b1b60608301856200098b565b818103608083015262000b2f818462000a96565b90509695505050505050565b6000604051905090565b600080fd5b60007fffffffff0000000000000000000000000000000000000000000000000000000082169050919050565b62000b818162000b4a565b811462000b8d57600080fd5b50565b60008151905062000ba18162000b76565b92915050565b60006020828403121562000bc05762000bbf62000b45565b5b600062000bd08482850162000b90565b91505092915050565b60008160e01c9050919050565b600060033d111562000c085760046000803e62000c0560005162000bd9565b90505b90565b62000c168262000a85565b810181811067ffffffffffffffff8211171562000c385762000c3762000522565b5b80604052505050565b600060443d1062000cd95762000c5662000b3b565b60043d036004823e80513d602482011167ffffffffffffffff8211171562000c8057505062000cd9565b808201805167ffffffffffffffff81111562000ca0575050505062000cd9565b80602083010160043d03850181111562000cbf57505050505062000cd9565b62000cd08260200185018662000c0b565b82955050505050505b90565b600062000ce98262000517565b62000cf5818562000878565b935062000d0781856020860162000a59565b62000d128162000a85565b840191505092915050565b6000602082019050818103600083015262000d39818462000cdc565b905092915050565b7f455243313135353a207472616e7366657220746f206e6f6e204552433131353560008201527f526563656976657220696d706c656d656e746572000000000000000000000000602082015250565b600062000d9f60348362000878565b915062000dac8262000d41565b604082019050919050565b6000602082019050818103600083015262000dd28162000d90565b9050919050565b7f455243313135353a204552433131353552656365697665722072656a6563746560008201527f6420746f6b656e73000000000000000000000000000000000000000000000000602082015250565b600062000e3760288362000878565b915062000e448262000dd9565b604082019050919050565b6000602082019050818103600083015262000e6a8162000e28565b9050919050565b6127bf8062000e816000396000f3fe608060405234801561001057600080fd5b50600436106100925760003560e01c80632eb2c2d6116100665780632eb2c2d6146101435780634e1273f41461015f578063a22cb4651461018f578063e985e9c5146101ab578063f242432a146101db57610092565b8062fdd58e1461009757806301ffc9a7146100c75780630e89341c146100f75780631b2ef1ca14610127575b600080fd5b6100b160048036038101906100ac91906115a6565b6101f7565b6040516100be91906115f5565b60405180910390f35b6100e160048036038101906100dc9190611668565b6102bf565b6040516100ee91906116b0565b60405180910390f35b610111600480360381019061010c91906116cb565b6103a1565b60405161011e9190611788565b60405180910390f35b610141600480360381019061013c91906117aa565b610435565b005b61015d600480360381019061015891906119e7565b610454565b005b61017960048036038101906101749190611b79565b6104f5565b6040516101869190611caf565b60405180910390f35b6101a960048036038101906101a49190611cfd565b61060e565b005b6101c560048036038101906101c09190611d3d565b610624565b6040516101d291906116b0565b60405180910390f35b6101f560048036038101906101f09190611d7d565b6106b8565b005b60008073ffffffffffffffffffffffffffffffffffffffff168373ffffffffffffffffffffffffffffffffffffffff1603610267576040517f08c379a000000000000000000000000000000000000000000000000000000000815260040161025e90611e86565b60405180910390fd5b60008083815260200190815260200160002060008473ffffffffffffffffffffffffffffffffffffffff1673ffffffffffffffffffffffffffffffffffffffff16815260200190815260200160002054905092915050565b60007fd9b67a26000000000000000000000000000000000000000000000000000000007bffffffffffffffffffffffffffffffffffffffffffffffffffffffff1916827bffffffffffffffffffffffffffffffffffffffffffffffffffffffff1916148061038a57507f0e89341c000000000000000000000000000000000000000000000000000000007bffffffffffffffffffffffffffffffffffffffffffffffffffffffff1916827bffffffffffffffffffffffffffffffffffffffffffffffffffffffff1916145b8061039a57506103998261077c565b5b9050919050565b6060600280546103b090611ed5565b80601f01602080910402602001604051908101604052809291908181526020018280546103dc90611ed5565b80156104295780601f106103fe57610100808354040283529160200191610429565b820191906000526020600020905b81548152906001019060200180831161040c57829003601f168201915b50505050509050919050565b610450338383604051806020016040528060008152506107e6565b5050565b61045c610996565b73ffffffffffffffffffffffffffffffffffffffff168573ffffffffffffffffffffffffffffffffffffffff1614806104a257506104a18561049c610996565b610624565b5b6104e1576040517f08c379a00000000000000000000000000000000000000000000000000000000081526004016104d890611f78565b60405180910390fd5b6104ee858585858561099e565b5050505050565b6060815183511461053b576040517f08c379a00000000000000000000000000000000000000000000000000000000081526004016105329061200a565b60405180910390fd5b6000835167ffffffffffffffff811115610558576105576117ef565b5b6040519080825280602002602001820160405280156105865781602001602082028036833780820191505090505b50905060005b8451811015610603576105d38582815181106105ab576105aa61202a565b5b60200260200101518583815181106105c6576105c561202a565b5b60200260200101516101f7565b8282815181106105e6576105e561202a565b5b602002602001018181525050806105fc90612088565b905061058c565b508091505092915050565b610620610619610996565b8383610cbf565b5050565b6000600160008473ffffffffffffffffffffffffffffffffffffffff1673ffffffffffffffffffffffffffffffffffffffff16815260200190815260200160002060008373ffffffffffffffffffffffffffffffffffffffff1673ffffffffffffffffffffffffffffffffffffffff16815260200190815260200160002060009054906101000a900460ff16905092915050565b6106c0610996565b73ffffffffffffffffffffffffffffffffffffffff168573ffffffffffffffffffffffffffffffffffffffff161480610706575061070585610700610996565b610624565b5b610745576040517f08c379a000000000000000000000000000000000000000000000000000000000815260040161073c90611f78565b60405180910390fd5b6107528585858585610e2b565b5050505050565b6000808273ffffffffffffffffffffffffffffffffffffffff163b119050919050565b60007f01ffc9a7000000000000000000000000000000000000000000000000000000007bffffffffffffffffffffffffffffffffffffffffffffffffffffffff1916827bffffffffffffffffffffffffffffffffffffffffffffffffffffffff1916149050919050565b600073ffffffffffffffffffffffffffffffffffffffff168473ffffffffffffffffffffffffffffffffffffffff1603610855576040517f08c379a000000000000000000000000000000000000000000000000000000000815260040161084c90612142565b60405180910390fd5b600061085f610996565b9050600061086c856110c6565b90506000610879856110c6565b905061088a83600089858589611140565b8460008088815260200190815260200160002060008973ffffffffffffffffffffffffffffffffffffffff1673ffffffffffffffffffffffffffffffffffffffff16815260200190815260200160002060008282546108e99190612162565b925050819055508673ffffffffffffffffffffffffffffffffffffffff16600073ffffffffffffffffffffffffffffffffffffffff168473ffffffffffffffffffffffffffffffffffffffff167fc3d58168c5ae7397731d063d5bbf3d657854427343f4c083240f7aacaa2d0f628989604051610967929190612196565b60405180910390a461097e83600089858589611148565b61098d83600089898989611150565b50505050505050565b600033905090565b81518351146109e2576040517f08c379a00000000000000000000000000000000000000000000000000000000081526004016109d990612231565b60405180910390fd5b600073ffffffffffffffffffffffffffffffffffffffff168473ffffffffffffffffffffffffffffffffffffffff1603610a51576040517f08c379a0000000000000000000000000000000000000000000000000000000008152600401610a48906122c3565b60405180910390fd5b6000610a5b610996565b9050610a6b818787878787611140565b60005b8451811015610c1c576000858281518110610a8c57610a8b61202a565b5b602002602001015190506000858381518110610aab57610aaa61202a565b5b60200260200101519050600080600084815260200190815260200160002060008b73ffffffffffffffffffffffffffffffffffffffff1673ffffffffffffffffffffffffffffffffffffffff16815260200190815260200160002054905081811015610b4c576040517f08c379a0000000000000000000000000000000000000000000000000000000008152600401610b4390612355565b60405180910390fd5b81810360008085815260200190815260200160002060008c73ffffffffffffffffffffffffffffffffffffffff1673ffffffffffffffffffffffffffffffffffffffff168152602001908152602001600020819055508160008085815260200190815260200160002060008b73ffffffffffffffffffffffffffffffffffffffff1673ffffffffffffffffffffffffffffffffffffffff1681526020019081526020016000206000828254610c019190612162565b9250508190555050505080610c1590612088565b9050610a6e565b508473ffffffffffffffffffffffffffffffffffffffff168673ffffffffffffffffffffffffffffffffffffffff168273ffffffffffffffffffffffffffffffffffffffff167f4a39dc06d4c0dbc64b70af90fd698a233a518aa5d07e595d983b8c0526c8f7fb8787604051610c93929190612375565b60405180910390a4610ca9818787878787611148565b610cb7818787878787611327565b505050505050565b8173ffffffffffffffffffffffffffffffffffffffff168373ffffffffffffffffffffffffffffffffffffffff1603610d2d576040517f08c379a0000000000000000000000000000000000000000000000000000000008152600401610d249061241e565b60405180910390fd5b80600160008573ffffffffffffffffffffffffffffffffffffffff1673ffffffffffffffffffffffffffffffffffffffff16815260200190815260200160002060008473ffffffffffffffffffffffffffffffffffffffff1673ffffffffffffffffffffffffffffffffffffffff16815260200190815260200160002060006101000a81548160ff0219169083151502179055508173ffffffffffffffffffffffffffffffffffffffff168373ffffffffffffffffffffffffffffffffffffffff167f17307eab39ab6107e8899845ad3d59bd9653f200f220920489ca2b5937696c3183604051610e1e91906116b0565b60405180910390a3505050565b600073ffffffffffffffffffffffffffffffffffffffff168473ffffffffffffffffffffffffffffffffffffffff1603610e9a576040517f08c379a0000000000000000000000000000000000000000000000000000000008152600401610e91906122c3565b60405180910390fd5b6000610ea4610996565b90506000610eb1856110c6565b90506000610ebe856110c6565b9050610ece838989858589611140565b600080600088815260200190815260200160002060008a73ffffffffffffffffffffffffffffffffffffffff1673ffffffffffffffffffffffffffffffffffffffff16815260200190815260200160002054905085811015610f65576040517f08c379a0000000000000000000000000000000000000000000000000000000008152600401610f5c90612355565b60405180910390fd5b85810360008089815260200190815260200160002060008b73ffffffffffffffffffffffffffffffffffffffff1673ffffffffffffffffffffffffffffffffffffffff168152602001908152602001600020819055508560008089815260200190815260200160002060008a73ffffffffffffffffffffffffffffffffffffffff1673ffffffffffffffffffffffffffffffffffffffff168152602001908152602001600020600082825461101a9190612162565b925050819055508773ffffffffffffffffffffffffffffffffffffffff168973ffffffffffffffffffffffffffffffffffffffff168573ffffffffffffffffffffffffffffffffffffffff167fc3d58168c5ae7397731d063d5bbf3d657854427343f4c083240f7aacaa2d0f628a8a604051611097929190612196565b60405180910390a46110ad848a8a86868a611148565b6110bb848a8a8a8a8a611150565b505050505050505050565b60606000600167ffffffffffffffff8111156110e5576110e46117ef565b5b6040519080825280602002602001820160405280156111135781602001602082028036833780820191505090505b509050828160008151811061112b5761112a61202a565b5b60200260200101818152505080915050919050565b505050505050565b505050505050565b61116f8473ffffffffffffffffffffffffffffffffffffffff16610759565b1561131f578373ffffffffffffffffffffffffffffffffffffffff1663f23a6e6187878686866040518663ffffffff1660e01b81526004016111b59594939291906124a2565b6020604051808303816000875af19250505080156111f157506040513d601f19601f820116820180604052508101906111ee9190612511565b60015b611296576111fd61254b565b806308c379a003611259575061121161256d565b8061121c575061125b565b806040517f08c379a00000000000000000000000000000000000000000000000000000000081526004016112509190611788565b60405180910390fd5b505b6040517f08c379a000000000000000000000000000000000000000000000000000000000815260040161128d9061266f565b60405180910390fd5b63f23a6e6160e01b7bffffffffffffffffffffffffffffffffffffffffffffffffffffffff1916817bffffffffffffffffffffffffffffffffffffffffffffffffffffffff19161461131d576040517f08c379a000000000000000000000000000000000000000000000000000000000815260040161131490612701565b60405180910390fd5b505b505050505050565b6113468473ffffffffffffffffffffffffffffffffffffffff16610759565b156114f6578373ffffffffffffffffffffffffffffffffffffffff1663bc197c8187878686866040518663ffffffff1660e01b815260040161138c959493929190612721565b6020604051808303816000875af19250505080156113c857506040513d601f19601f820116820180604052508101906113c59190612511565b60015b61146d576113d461254b565b806308c379a00361143057506113e861256d565b806113f35750611432565b806040517f08c379a00000000000000000000000000000000000000000000000000000000081526004016114279190611788565b60405180910390fd5b505b6040517f08c379a00000000000000000000000000000000000000000000000000000000081526004016114649061266f565b60405180910390fd5b63bc197c8160e01b7bffffffffffffffffffffffffffffffffffffffffffffffffffffffff1916817bffffffffffffffffffffffffffffffffffffffffffffffffffffffff1916146114f4576040517f08c379a00000000000000000000000000000000000000000000000000000000081526004016114eb90612701565b60405180910390fd5b505b505050505050565b6000604051905090565b600080fd5b600080fd5b600073ffffffffffffffffffffffffffffffffffffffff82169050919050565b600061153d82611512565b9050919050565b61154d81611532565b811461155857600080fd5b50565b60008135905061156a81611544565b92915050565b6000819050919050565b61158381611570565b811461158e57600080fd5b50565b6000813590506115a08161157a565b92915050565b600080604083850312156115bd576115bc611508565b5b60006115cb8582860161155b565b92505060206115dc85828601611591565b9150509250929050565b6115ef81611570565b82525050565b600060208201905061160a60008301846115e6565b92915050565b60007fffffffff0000000000000000000000000000000000000000000000000000000082169050919050565b61164581611610565b811461165057600080fd5b50565b6000813590506116628161163c565b92915050565b60006020828403121561167e5761167d611508565b5b600061168c84828501611653565b91505092915050565b60008115159050919050565b6116aa81611695565b82525050565b60006020820190506116c560008301846116a1565b92915050565b6000602082840312156116e1576116e0611508565b5b60006116ef84828501611591565b91505092915050565b600081519050919050565b600082825260208201905092915050565b60005b83811015611732578082015181840152602081019050611717565b60008484015250505050565b6000601f19601f8301169050919050565b600061175a826116f8565b6117648185611703565b9350611774818560208601611714565b61177d8161173e565b840191505092915050565b600060208201905081810360008301526117a2818461174f565b905092915050565b600080604083850312156117c1576117c0611508565b5b60006117cf85828601611591565b92505060206117e085828601611591565b9150509250929050565b600080fd5b7f4e487b7100000000000000000000000000000000000000000000000000000000600052604160045260246000fd5b6118278261173e565b810181811067ffffffffffffffff82111715611846576118456117ef565b5b80604052505050565b60006118596114fe565b9050611865828261181e565b919050565b600067ffffffffffffffff821115611885576118846117ef565b5b602082029050602081019050919050565b600080fd5b60006118ae6118a98461186a565b61184f565b905080838252602082019050602084028301858111156118d1576118d0611896565b5b835b818110156118fa57806118e68882611591565b8452602084019350506020810190506118d3565b5050509392505050565b600082601f830112611919576119186117ea565b5b813561192984826020860161189b565b91505092915050565b600080fd5b600067ffffffffffffffff821115611952576119516117ef565b5b61195b8261173e565b9050602081019050919050565b82818337600083830152505050565b600061198a61198584611937565b61184f565b9050828152602081018484840111156119a6576119a5611932565b5b6119b1848285611968565b509392505050565b600082601f8301126119ce576119cd6117ea565b5b81356119de848260208601611977565b91505092915050565b600080600080600060a08688031215611a0357611a02611508565b5b6000611a118882890161155b565b9550506020611a228882890161155b565b945050604086013567ffffffffffffffff811115611a4357611a4261150d565b5b611a4f88828901611904565b935050606086013567ffffffffffffffff811115611a7057611a6f61150d565b5b611a7c88828901611904565b925050608086013567ffffffffffffffff811115611a9d57611a9c61150d565b5b611aa9888289016119b9565b9150509295509295909350565b600067ffffffffffffffff821115611ad157611ad06117ef565b5b602082029050602081019050919050565b6000611af5611af084611ab6565b61184f565b90508083825260208201905060208402830185811115611b1857611b17611896565b5b835b81811015611b415780611b2d888261155b565b845260208401935050602081019050611b1a565b5050509392505050565b600082601f830112611b6057611b5f6117ea565b5b8135611b70848260208601611ae2565b91505092915050565b60008060408385031215611b9057611b8f611508565b5b600083013567ffffffffffffffff811115611bae57611bad61150d565b5b611bba85828601611b4b565b925050602083013567ffffffffffffffff811115611bdb57611bda61150d565b5b611be785828601611904565b9150509250929050565b600081519050919050565b600082825260208201905092915050565b6000819050602082019050919050565b611c2681611570565b82525050565b6000611c388383611c1d565b60208301905092915050565b6000602082019050919050565b6000611c5c82611bf1565b611c668185611bfc565b9350611c7183611c0d565b8060005b83811015611ca2578151611c898882611c2c565b9750611c9483611c44565b925050600181019050611c75565b5085935050505092915050565b60006020820190508181036000830152611cc98184611c51565b905092915050565b611cda81611695565b8114611ce557600080fd5b50565b600081359050611cf781611cd1565b92915050565b60008060408385031215611d1457611d13611508565b5b6000611d228582860161155b565b9250506020611d3385828601611ce8565b9150509250929050565b60008060408385031215611d5457611d53611508565b5b6000611d628582860161155b565b9250506020611d738582860161155b565b9150509250929050565b600080600080600060a08688031215611d9957611d98611508565b5b6000611da78882890161155b565b9550506020611db88882890161155b565b9450506040611dc988828901611591565b9350506060611dda88828901611591565b925050608086013567ffffffffffffffff811115611dfb57611dfa61150d565b5b611e07888289016119b9565b9150509295509295909350565b7f455243313135353a2061646472657373207a65726f206973206e6f742061207660008201527f616c6964206f776e657200000000000000000000000000000000000000000000602082015250565b6000611e70602a83611703565b9150611e7b82611e14565b604082019050919050565b60006020820190508181036000830152611e9f81611e63565b9050919050565b7f4e487b7100000000000000000000000000000000000000000000000000000000600052602260045260246000fd5b60006002820490506001821680611eed57607f821691505b602082108103611f0057611eff611ea6565b5b50919050565b7f455243313135353a2063616c6c6572206973206e6f7420746f6b656e206f776e60008201527f6572206e6f7220617070726f7665640000000000000000000000000000000000602082015250565b6000611f62602f83611703565b9150611f6d82611f06565b604082019050919050565b60006020820190508181036000830152611f9181611f55565b9050919050565b7f455243313135353a206163636f756e747320616e6420696473206c656e67746860008201527f206d69736d617463680000000000000000000000000000000000000000000000602082015250565b6000611ff4602983611703565b9150611fff82611f98565b604082019050919050565b6000602082019050818103600083015261202381611fe7565b9050919050565b7f4e487b7100000000000000000000000000000000000000000000000000000000600052603260045260246000fd5b7f4e487b7100000000000000000000000000000000000000000000000000000000600052601160045260246000fd5b600061209382611570565b91507fffffffffffffffffffffffffffffffffffffffffffffffffffffffffffffffff82036120c5576120c4612059565b5b600182019050919050565b7f455243313135353a206d696e7420746f20746865207a65726f2061646472657360008201527f7300000000000000000000000000000000000000000000000000000000000000602082015250565b600061212c602183611703565b9150612137826120d0565b604082019050919050565b6000602082019050818103600083015261215b8161211f565b9050919050565b600061216d82611570565b915061217883611570565b92508282019050808211156121905761218f612059565b5b92915050565b60006040820190506121ab60008301856115e6565b6121b860208301846115e6565b9392505050565b7f455243313135353a2069647320616e6420616d6f756e7473206c656e6774682060008201527f6d69736d61746368000000000000000000000000000000000000000000000000602082015250565b600061221b602883611703565b9150612226826121bf565b604082019050919050565b6000602082019050818103600083015261224a8161220e565b9050919050565b7f455243313135353a207472616e7366657220746f20746865207a65726f20616460008201527f6472657373000000000000000000000000000000000000000000000000000000602082015250565b60006122ad602583611703565b91506122b882612251565b604082019050919050565b600060208201905081810360008301526122dc816122a0565b9050919050565b7f455243313135353a20696e73756666696369656e742062616c616e636520666f60008201527f72207472616e7366657200000000000000000000000000000000000000000000602082015250565b600061233f602a83611703565b915061234a826122e3565b604082019050919050565b6000602082019050818103600083015261236e81612332565b9050919050565b6000604082019050818103600083015261238f8185611c51565b905081810360208301526123a38184611c51565b90509392505050565b7f455243313135353a2073657474696e6720617070726f76616c2073746174757360008201527f20666f722073656c660000000000000000000000000000000000000000000000602082015250565b6000612408602983611703565b9150612413826123ac565b604082019050919050565b60006020820190508181036000830152612437816123fb565b9050919050565b61244781611532565b82525050565b600081519050919050565b600082825260208201905092915050565b60006124748261244d565b61247e8185612458565b935061248e818560208601611714565b6124978161173e565b840191505092915050565b600060a0820190506124b7600083018861243e565b6124c4602083018761243e565b6124d160408301866115e6565b6124de60608301856115e6565b81810360808301526124f08184612469565b90509695505050505050565b60008151905061250b8161163c565b92915050565b60006020828403121561252757612526611508565b5b6000612535848285016124fc565b91505092915050565b60008160e01c9050919050565b600060033d111561256a5760046000803e61256760005161253e565b90505b90565b600060443d106125fa5761257f6114fe565b60043d036004823e80513d602482011167ffffffffffffffff821117156125a75750506125fa565b808201805167ffffffffffffffff8111156125c557505050506125fa565b80602083010160043d0385018111156125e25750505050506125fa565b6125f18260200185018661181e565b82955050505050505b90565b7f455243313135353a207472616e7366657220746f206e6f6e204552433131353560008201527f526563656976657220696d706c656d656e746572000000000000000000000000602082015250565b6000612659603483611703565b9150612664826125fd565b604082019050919050565b600060208201905081810360008301526126888161264c565b9050919050565b7f455243313135353a204552433131353552656365697665722072656a6563746560008201527f6420746f6b656e73000000000000000000000000000000000000000000000000602082015250565b60006126eb602883611703565b91506126f68261268f565b604082019050919050565b6000602082019050818103600083015261271a816126de565b9050919050565b600060a082019050612736600083018861243e565b612743602083018761243e565b81810360408301526127558186611c51565b905081810360608301526127698185611c51565b9050818103608083015261277d8184612469565b9050969550505050505056fea2646970667358221220fa79a9a425b9a3eda4e411a4c992bc78a80730eb71cd4728274bfbd4e17f673164736f6c63430008100033",
  "immutableReferences": {},
  "source": "// SPDX-License-Identifier: MIT\r\n\r\npragma solidity ^0.8.16;\r\n\r\nimport \"@openzeppelin/contracts/token/ERC1155/ERC1155.sol\";\r\n\r\ncontract ERC1155_Token is ERC1155 {\r\n    uint256 private constant GOLD = 0;\r\n    address private owner;\r\n\r\n    constructor() ERC1155(\"\") {\r\n        _mint(msg.sender, GOLD, 10**18, \"\");\r\n    }\r\n\r\n    function mint(uint256 id, uint256 amount) external {\r\n        _mint(msg.sender, id, amount, \"\");\r\n    }\r\n}\r\n",
  "sourcePath": "D:\\WorkSpace\\Jobs\\Nft Marketplace\\NftMarketplace_smartcontract\\contracts\\test\\ERC1155_token.sol",
  "compiler": {
    "name": "solc",
    "version": "0.8.16+commit.07a7930e.Emscripten.clang"
  },
  "schemaVersion": "3.4.9",
  "updatedAt": "2022-12-13T04:04:11.606Z",
  "networkType": "ethereum",
  "devdoc": {
    "kind": "dev",
    "methods": {
      "balanceOf(address,uint256)": {
        "details": "See {IERC1155-balanceOf}. Requirements: - `account` cannot be the zero address."
      },
      "balanceOfBatch(address[],uint256[])": {
        "details": "See {IERC1155-balanceOfBatch}. Requirements: - `accounts` and `ids` must have the same length."
      },
      "isApprovedForAll(address,address)": {
        "details": "See {IERC1155-isApprovedForAll}."
      },
      "safeBatchTransferFrom(address,address,uint256[],uint256[],bytes)": {
        "details": "See {IERC1155-safeBatchTransferFrom}."
      },
      "safeTransferFrom(address,address,uint256,uint256,bytes)": {
        "details": "See {IERC1155-safeTransferFrom}."
      },
      "setApprovalForAll(address,bool)": {
        "details": "See {IERC1155-setApprovalForAll}."
      },
      "supportsInterface(bytes4)": {
        "details": "See {IERC165-supportsInterface}."
      },
      "uri(uint256)": {
        "details": "See {IERC1155MetadataURI-uri}. This implementation returns the same URI for *all* token types. It relies on the token type ID substitution mechanism https://eips.ethereum.org/EIPS/eip-1155#metadata[defined in the EIP]. Clients calling this function must replace the `\\{id\\}` substring with the actual token type ID."
      }
    },
    "version": 1
  },
  "userdoc": {
    "kind": "user",
    "methods": {},
    "version": 1
  }
}