{
  "contractName": "NftMarketplace",
  "abi": [
    {
      "inputs": [
        {
          "internalType": "uint256",
          "name": "listingId",
          "type": "uint256"
        }
      ],
      "name": "NotListedERC1155",
      "type": "error"
    },
    {
      "inputs": [
        {
          "internalType": "address",
          "name": "tokenAddress",
          "type": "address"
        }
      ],
      "name": "NotListedERC20",
      "type": "error"
    },
    {
      "inputs": [
        {
          "internalType": "uint256",
          "name": "itemCount",
          "type": "uint256"
        }
      ],
      "name": "NotListedERC721",
      "type": "error"
    },
    {
      "inputs": [],
      "name": "NotOwner",
      "type": "error"
    },
    {
      "anonymous": false,
      "inputs": [
        {
          "indexed": false,
          "internalType": "address",
          "name": "nftAddress",
          "type": "address"
        },
        {
          "indexed": false,
          "internalType": "address",
          "name": "seller",
          "type": "address"
        },
        {
          "indexed": false,
          "internalType": "uint256",
          "name": "tokenId",
          "type": "uint256"
        },
        {
          "indexed": false,
          "internalType": "uint256",
          "name": "amount",
          "type": "uint256"
        },
        {
          "indexed": false,
          "internalType": "uint256",
          "name": "price",
          "type": "uint256"
        }
      ],
      "name": "ERC1155Listed",
      "type": "event"
    },
    {
      "anonymous": false,
      "inputs": [
        {
          "indexed": true,
          "internalType": "address",
          "name": "nftAddress",
          "type": "address"
        },
        {
          "indexed": false,
          "internalType": "address",
          "name": "seller",
          "type": "address"
        },
        {
          "indexed": true,
          "internalType": "address",
          "name": "buyer",
          "type": "address"
        },
        {
          "indexed": false,
          "internalType": "uint256",
          "name": "tokenId",
          "type": "uint256"
        },
        {
          "indexed": false,
          "internalType": "uint256",
          "name": "amount",
          "type": "uint256"
        },
        {
          "indexed": false,
          "internalType": "uint256",
          "name": "price",
          "type": "uint256"
        }
      ],
      "name": "ERC1155Sold",
      "type": "event"
    },
    {
      "anonymous": false,
      "inputs": [
        {
          "indexed": false,
          "internalType": "address",
          "name": "tokenAddress",
          "type": "address"
        },
        {
          "indexed": false,
          "internalType": "address",
          "name": "seller",
          "type": "address"
        },
        {
          "indexed": false,
          "internalType": "uint256",
          "name": "price",
          "type": "uint256"
        },
        {
          "indexed": false,
          "internalType": "uint256",
          "name": "amount",
          "type": "uint256"
        }
      ],
      "name": "ERC20Listed",
      "type": "event"
    },
    {
      "anonymous": false,
      "inputs": [
        {
          "indexed": true,
          "internalType": "address",
          "name": "tokenAddress",
          "type": "address"
        },
        {
          "indexed": true,
          "internalType": "address",
          "name": "buyer",
          "type": "address"
        },
        {
          "indexed": false,
          "internalType": "uint256",
          "name": "amount",
          "type": "uint256"
        }
      ],
      "name": "ERC20Sold",
      "type": "event"
    },
    {
      "anonymous": false,
      "inputs": [
        {
          "indexed": false,
          "internalType": "address",
          "name": "nftAddress",
          "type": "address"
        },
        {
          "indexed": false,
          "internalType": "address",
          "name": "seller",
          "type": "address"
        },
        {
          "indexed": false,
          "internalType": "uint256",
          "name": "tokenId",
          "type": "uint256"
        },
        {
          "indexed": false,
          "internalType": "uint256",
          "name": "price",
          "type": "uint256"
        }
      ],
      "name": "ERC721Listed",
      "type": "event"
    },
    {
      "anonymous": false,
      "inputs": [
        {
          "indexed": true,
          "internalType": "address",
          "name": "nftAddress",
          "type": "address"
        },
        {
          "indexed": true,
          "internalType": "address",
          "name": "seller",
          "type": "address"
        },
        {
          "indexed": true,
          "internalType": "address",
          "name": "buyer",
          "type": "address"
        },
        {
          "indexed": false,
          "internalType": "uint256",
          "name": "tokenId",
          "type": "uint256"
        },
        {
          "indexed": false,
          "internalType": "uint256",
          "name": "price",
          "type": "uint256"
        }
      ],
      "name": "ERC721Sold",
      "type": "event"
    },
    {
      "anonymous": false,
      "inputs": [
        {
          "indexed": true,
          "internalType": "address",
          "name": "previousOwner",
          "type": "address"
        },
        {
          "indexed": true,
          "internalType": "address",
          "name": "newOwner",
          "type": "address"
        }
      ],
      "name": "OwnershipTransferred",
      "type": "event"
    },
    {
      "inputs": [
        {
          "internalType": "uint256",
          "name": "",
          "type": "uint256"
        }
      ],
      "name": "ERC1155List",
      "outputs": [
        {
          "internalType": "uint256",
          "name": "itemId",
          "type": "uint256"
        },
        {
          "internalType": "address",
          "name": "nftAddress",
          "type": "address"
        },
        {
          "internalType": "address",
          "name": "seller",
          "type": "address"
        },
        {
          "internalType": "uint256",
          "name": "tokenId",
          "type": "uint256"
        },
        {
          "internalType": "uint256",
          "name": "amount",
          "type": "uint256"
        },
        {
          "internalType": "uint256",
          "name": "price",
          "type": "uint256"
        },
        {
          "internalType": "uint256",
          "name": "tokenAvailable",
          "type": "uint256"
        },
        {
          "internalType": "bool",
          "name": "soldOut",
          "type": "bool"
        }
      ],
      "stateMutability": "view",
      "type": "function",
      "constant": true
    },
    {
      "inputs": [
        {
          "internalType": "uint256",
          "name": "",
          "type": "uint256"
        }
      ],
      "name": "ERC20List",
      "outputs": [
        {
          "internalType": "uint256",
          "name": "itemId",
          "type": "uint256"
        },
        {
          "internalType": "address",
          "name": "tokenAddress",
          "type": "address"
        },
        {
          "internalType": "uint256",
          "name": "price",
          "type": "uint256"
        },
        {
          "internalType": "address",
          "name": "seller",
          "type": "address"
        },
        {
          "internalType": "uint256",
          "name": "amount",
          "type": "uint256"
        }
      ],
      "stateMutability": "view",
      "type": "function",
      "constant": true
    },
    {
      "inputs": [],
      "name": "ERC721Count",
      "outputs": [
        {
          "internalType": "uint256",
          "name": "",
          "type": "uint256"
        }
      ],
      "stateMutability": "view",
      "type": "function",
      "constant": true
    },
    {
      "inputs": [
        {
          "internalType": "uint256",
          "name": "",
          "type": "uint256"
        }
      ],
      "name": "ERC721List",
      "outputs": [
        {
          "internalType": "uint256",
          "name": "itemId",
          "type": "uint256"
        },
        {
          "internalType": "address",
          "name": "nftAddress",
          "type": "address"
        },
        {
          "internalType": "uint256",
          "name": "tokenId",
          "type": "uint256"
        },
        {
          "internalType": "uint256",
          "name": "price",
          "type": "uint256"
        },
        {
          "internalType": "address",
          "name": "seller",
          "type": "address"
        }
      ],
      "stateMutability": "view",
      "type": "function",
      "constant": true
    },
    {
      "inputs": [],
      "name": "_listingERC20",
      "outputs": [
        {
          "internalType": "uint256",
          "name": "_value",
          "type": "uint256"
        }
      ],
      "stateMutability": "view",
      "type": "function",
      "constant": true
    },
    {
      "inputs": [],
      "name": "_listingIds",
      "outputs": [
        {
          "internalType": "uint256",
          "name": "_value",
          "type": "uint256"
        }
      ],
      "stateMutability": "view",
      "type": "function",
      "constant": true
    },
    {
      "inputs": [],
      "name": "owner",
      "outputs": [
        {
          "internalType": "address",
          "name": "",
          "type": "address"
        }
      ],
      "stateMutability": "view",
      "type": "function",
      "constant": true
    },
    {
      "inputs": [],
      "name": "renounceOwnership",
      "outputs": [],
      "stateMutability": "nonpayable",
      "type": "function"
    },
    {
      "inputs": [],
      "name": "tokenERC20Listing",
      "outputs": [
        {
          "internalType": "uint256",
          "name": "",
          "type": "uint256"
        }
      ],
      "stateMutability": "view",
      "type": "function",
      "constant": true
    },
    {
      "inputs": [],
      "name": "tokenERC20Sold",
      "outputs": [
        {
          "internalType": "uint256",
          "name": "",
          "type": "uint256"
        }
      ],
      "stateMutability": "view",
      "type": "function",
      "constant": true
    },
    {
      "inputs": [
        {
          "internalType": "address",
          "name": "newOwner",
          "type": "address"
        }
      ],
      "name": "transferOwnership",
      "outputs": [],
      "stateMutability": "nonpayable",
      "type": "function"
    },
    {
      "inputs": [
        {
          "internalType": "address",
          "name": "nftAddress",
          "type": "address"
        },
        {
          "internalType": "uint256",
          "name": "tokenId",
          "type": "uint256"
        },
        {
          "internalType": "uint256",
          "name": "price",
          "type": "uint256"
        }
      ],
      "name": "listItemERC721",
      "outputs": [],
      "stateMutability": "nonpayable",
      "type": "function"
    },
    {
      "inputs": [
        {
          "internalType": "address",
          "name": "nftAddress",
          "type": "address"
        },
        {
          "internalType": "uint256",
          "name": "tokenId",
          "type": "uint256"
        },
        {
          "internalType": "uint256",
          "name": "amount",
          "type": "uint256"
        },
        {
          "internalType": "uint256",
          "name": "price",
          "type": "uint256"
        }
      ],
      "name": "listItemERC1155",
      "outputs": [],
      "stateMutability": "nonpayable",
      "type": "function"
    },
    {
      "inputs": [
        {
          "internalType": "address",
          "name": "tokenAddress",
          "type": "address"
        },
        {
          "internalType": "uint256",
          "name": "amount",
          "type": "uint256"
        },
        {
          "internalType": "uint256",
          "name": "price",
          "type": "uint256"
        }
      ],
      "name": "listItemERC20",
      "outputs": [],
      "stateMutability": "nonpayable",
      "type": "function"
    },
    {
      "inputs": [
        {
          "internalType": "uint256",
          "name": "itemCount",
          "type": "uint256"
        }
      ],
      "name": "buyItemERC721",
      "outputs": [],
      "stateMutability": "payable",
      "type": "function",
      "payable": true
    },
    {
      "inputs": [
        {
          "internalType": "uint256",
          "name": "listingId",
          "type": "uint256"
        },
        {
          "internalType": "uint256",
          "name": "amount",
          "type": "uint256"
        }
      ],
      "name": "buyItemERC1155",
      "outputs": [],
      "stateMutability": "payable",
      "type": "function",
      "payable": true
    },
    {
      "inputs": [
        {
          "internalType": "uint256",
          "name": "listingERC20",
          "type": "uint256"
        },
        {
          "internalType": "uint256",
          "name": "amount",
          "type": "uint256"
        }
      ],
      "name": "buyItemERC20",
      "outputs": [],
      "stateMutability": "payable",
      "type": "function",
      "payable": true
    },
    {
      "inputs": [
        {
          "internalType": "uint256",
          "name": "itemCount",
          "type": "uint256"
        },
        {
          "internalType": "uint256",
          "name": "newPrice",
          "type": "uint256"
        }
      ],
      "name": "updateListingERC721",
      "outputs": [],
      "stateMutability": "nonpayable",
      "type": "function"
    },
    {
      "inputs": [
        {
          "internalType": "uint256",
          "name": "listingId",
          "type": "uint256"
        },
        {
          "internalType": "uint256",
          "name": "newPrice",
          "type": "uint256"
        },
        {
          "internalType": "uint256",
          "name": "newAmount",
          "type": "uint256"
        }
      ],
      "name": "updateListingERC1155",
      "outputs": [],
      "stateMutability": "nonpayable",
      "type": "function"
    },
    {
      "inputs": [
        {
          "internalType": "uint256",
          "name": "listingERC20",
          "type": "uint256"
        },
        {
          "internalType": "uint256",
          "name": "newPrice",
          "type": "uint256"
        },
        {
          "internalType": "uint256",
          "name": "newAmount",
          "type": "uint256"
        }
      ],
      "name": "updateListingERC20",
      "outputs": [],
      "stateMutability": "nonpayable",
      "type": "function"
    },
    {
      "inputs": [
        {
          "internalType": "uint256",
          "name": "itemCount",
          "type": "uint256"
        }
      ],
      "name": "getListingERC721",
      "outputs": [
        {
          "components": [
            {
              "internalType": "uint256",
              "name": "itemId",
              "type": "uint256"
            },
            {
              "internalType": "address",
              "name": "nftAddress",
              "type": "address"
            },
            {
              "internalType": "uint256",
              "name": "tokenId",
              "type": "uint256"
            },
            {
              "internalType": "uint256",
              "name": "price",
              "type": "uint256"
            },
            {
              "internalType": "address",
              "name": "seller",
              "type": "address"
            }
          ],
          "internalType": "struct NftMarketplace.ListingERC721",
          "name": "",
          "type": "tuple"
        }
      ],
      "stateMutability": "view",
      "type": "function",
      "constant": true
    },
    {
      "inputs": [
        {
          "internalType": "uint256",
          "name": "listingId",
          "type": "uint256"
        }
      ],
      "name": "getListingERC1155",
      "outputs": [
        {
          "components": [
            {
              "internalType": "uint256",
              "name": "itemId",
              "type": "uint256"
            },
            {
              "internalType": "address",
              "name": "nftAddress",
              "type": "address"
            },
            {
              "internalType": "address",
              "name": "seller",
              "type": "address"
            },
            {
              "internalType": "uint256",
              "name": "tokenId",
              "type": "uint256"
            },
            {
              "internalType": "uint256",
              "name": "amount",
              "type": "uint256"
            },
            {
              "internalType": "uint256",
              "name": "price",
              "type": "uint256"
            },
            {
              "internalType": "uint256",
              "name": "tokenAvailable",
              "type": "uint256"
            },
            {
              "internalType": "bool",
              "name": "soldOut",
              "type": "bool"
            }
          ],
          "internalType": "struct NftMarketplace.ListingERC1155",
          "name": "",
          "type": "tuple"
        }
      ],
      "stateMutability": "view",
      "type": "function",
      "constant": true
    },
    {
      "inputs": [
        {
          "internalType": "uint256",
          "name": "listingERC20",
          "type": "uint256"
        }
      ],
      "name": "getListingERC20",
      "outputs": [
        {
          "components": [
            {
              "internalType": "uint256",
              "name": "itemId",
              "type": "uint256"
            },
            {
              "internalType": "address",
              "name": "tokenAddress",
              "type": "address"
            },
            {
              "internalType": "uint256",
              "name": "price",
              "type": "uint256"
            },
            {
              "internalType": "address",
              "name": "seller",
              "type": "address"
            },
            {
              "internalType": "uint256",
              "name": "amount",
              "type": "uint256"
            }
          ],
          "internalType": "struct NftMarketplace.ListingERC20",
          "name": "",
          "type": "tuple"
        }
      ],
      "stateMutability": "view",
      "type": "function",
      "constant": true
    },
    {
      "inputs": [
        {
          "internalType": "uint256",
          "name": "itemCount",
          "type": "uint256"
        }
      ],
      "name": "cancelListingERC721",
      "outputs": [],
      "stateMutability": "nonpayable",
      "type": "function"
    },
    {
      "inputs": [
        {
          "internalType": "uint256",
          "name": "listingId",
          "type": "uint256"
        },
        {
          "internalType": "address",
          "name": "nftAddress",
          "type": "address"
        },
        {
          "internalType": "uint256",
          "name": "tokenId",
          "type": "uint256"
        }
      ],
      "name": "cancelListingERC1155",
      "outputs": [],
      "stateMutability": "nonpayable",
      "type": "function"
    },
    {
      "inputs": [
        {
          "internalType": "uint256",
          "name": "listingERC20",
          "type": "uint256"
        }
      ],
      "name": "cancelListingERC20",
      "outputs": [],
      "stateMutability": "nonpayable",
      "type": "function"
    },
    {
      "inputs": [],
      "name": "withdrawProceeds",
      "outputs": [],
      "stateMutability": "nonpayable",
      "type": "function"
    }
  ],
  "bytecode": "0x60806040523480156200001157600080fd5b5062000032620000266200003860201b60201c565b6200004060201b60201c565b62000104565b600033905090565b60008060009054906101000a900473ffffffffffffffffffffffffffffffffffffffff169050816000806101000a81548173ffffffffffffffffffffffffffffffffffffffff021916908373ffffffffffffffffffffffffffffffffffffffff1602179055508173ffffffffffffffffffffffffffffffffffffffff168173ffffffffffffffffffffffffffffffffffffffff167f8be0079c531659141344cd1fd0a4f28419497f9722a3daafe3b4186f6b6457e060405160405180910390a35050565b61415b80620001146000396000f3fe60806040526004361061019c5760003560e01c8063a35d5e6e116100ec578063cf4a0a101161008a578063ec17825c11610064578063ec17825c14610584578063ed546050146105ad578063f123435b146105d6578063f2fde38b146106135761019c565b8063cf4a0a10146104dd578063d6cbaace1461051a578063d87d7c33146105435761019c565b8063aa412ef5116100c6578063aa412ef514610406578063bc6e56981461042f578063c9a9c2ab14610473578063cdd6ebea146104b45761019c565b8063a35d5e6e14610396578063a4877b85146103c1578063a62b5b9f146103ea5761019c565b8063715018a6116101595780639038e693116101335780639038e693146102ec57806395764538146103035780639c4b15a51461032e578063a2028931146103595761019c565b8063715018a61461028157806383fd0768146102985780638da5cb5b146102c15761019c565b80630372009a146101a157806305b826a8146101bd5780630f6f0a00146101e857806319c62aab1461020457806330e07ee01461022f57806346e62b2e14610258575b600080fd5b6101bb60048036038101906101b6919061313e565b61063c565b005b3480156101c957600080fd5b506101d2610c1e565b6040516101df919061318d565b60405180910390f35b61020260048036038101906101fd91906131a8565b610c2a565b005b34801561021057600080fd5b50610219611145565b604051610226919061318d565b60405180910390f35b34801561023b57600080fd5b5061025660048036038101906102519190613233565b61114b565b005b34801561026457600080fd5b5061027f600480360381019061027a9190613286565b6112dc565b005b34801561028d57600080fd5b5061029661149f565b005b3480156102a457600080fd5b506102bf60048036038101906102ba9190613233565b6114b3565b005b3480156102cd57600080fd5b506102d661166f565b6040516102e391906132fc565b60405180910390f35b3480156102f857600080fd5b50610301611698565b005b34801561030f57600080fd5b50610318611814565b604051610325919061318d565b60405180910390f35b34801561033a57600080fd5b5061034361181a565b604051610350919061318d565b60405180910390f35b34801561036557600080fd5b50610380600480360381019061037b91906131a8565b611826565b60405161038d919061339d565b60405180910390f35b3480156103a257600080fd5b506103ab61191d565b6040516103b8919061318d565b60405180910390f35b3480156103cd57600080fd5b506103e860048036038101906103e391906131a8565b611923565b005b61040460048036038101906103ff919061313e565b611bc7565b005b34801561041257600080fd5b5061042d600480360381019061042891906131a8565b611e74565b005b34801561043b57600080fd5b50610456600480360381019061045191906131a8565b6120d0565b60405161046a9897969594939291906133d3565b60405180910390f35b34801561047f57600080fd5b5061049a600480360381019061049591906131a8565b612165565b6040516104ab959493929190613451565b60405180910390f35b3480156104c057600080fd5b506104db60048036038101906104d691906134a4565b6121db565b005b3480156104e957600080fd5b5061050460048036038101906104ff91906131a8565b61243b565b604051610511919061355f565b60405180910390f35b34801561052657600080fd5b50610541600480360381019061053c919061357a565b612532565b005b34801561054f57600080fd5b5061056a600480360381019061056591906131a8565b6127f6565b60405161057b9594939291906135cd565b60405180910390f35b34801561059057600080fd5b506105ab60048036038101906105a6919061313e565b61286c565b005b3480156105b957600080fd5b506105d460048036038101906105cf91906134a4565b612a68565b005b3480156105e257600080fd5b506105fd60048036038101906105f891906131a8565b612cc2565b60405161060a91906136d1565b60405180910390f35b34801561061f57600080fd5b5061063a600480360381019061063591906136ed565b612de9565b005b60006006600084815260200190815260200160002060010160009054906101000a900473ffffffffffffffffffffffffffffffffffffffff1690506006600084815260200190815260200160002060020160009054906101000a900473ffffffffffffffffffffffffffffffffffffffff1673ffffffffffffffffffffffffffffffffffffffff163373ffffffffffffffffffffffffffffffffffffffff160361071b576040517f08c379a000000000000000000000000000000000000000000000000000000000815260040161071290613777565b60405180910390fd5b81600660008581526020019081526020016000206005015461073d91906137c6565b34101561077f576040517f08c379a000000000000000000000000000000000000000000000000000000000815260040161077690613892565b60405180910390fd5b818173ffffffffffffffffffffffffffffffffffffffff1662fdd58e6006600087815260200190815260200160002060020160009054906101000a900473ffffffffffffffffffffffffffffffffffffffff1660066000888152602001908152602001600020600301546040518363ffffffff1660e01b81526004016108069291906138b2565b602060405180830381865afa158015610823573d6000803e3d6000fd5b505050506040513d601f19601f8201168201806040525081019061084791906138f0565b1015610888576040517f08c379a000000000000000000000000000000000000000000000000000000000815260040161087f90613969565b60405180910390fd5b600015156006600085815260200190815260200160002060070160009054906101000a900460ff161515146108f2576040517f08c379a00000000000000000000000000000000000000000000000000000000081526004016108e9906139d5565b60405180910390fd5b816006600085815260200190815260200160002060060154101561094b576040517f08c379a000000000000000000000000000000000000000000000000000000000815260040161094290613a41565b60405180910390fd5b816006600085815260200190815260200160002060060160008282546109719190613a61565b9250508190555060006006600085815260200190815260200160002060060154036109c65760016006600085815260200190815260200160002060070160006101000a81548160ff0219169083151502179055505b3373ffffffffffffffffffffffffffffffffffffffff166006600085815260200190815260200160002060010160009054906101000a900473ffffffffffffffffffffffffffffffffffffffff1673ffffffffffffffffffffffffffffffffffffffff167f345b3d35855ef39f48904207a91972d8ebc2da5a5e4f13306d74fa501196a5616006600087815260200190815260200160002060020160009054906101000a900473ffffffffffffffffffffffffffffffffffffffff16600660008881526020019081526020016000206003015486600660008a815260200190815260200160002060050154604051610ac19493929190613a95565b60405180910390a38073ffffffffffffffffffffffffffffffffffffffff1663f242432a6006600086815260200190815260200160002060020160009054906101000a900473ffffffffffffffffffffffffffffffffffffffff16336006600088815260200190815260200160002060030154866040518563ffffffff1660e01b8152600401610b549493929190613b11565b600060405180830381600087803b158015610b6e57600080fd5b505af1158015610b82573d6000803e3d6000fd5b505050506006600084815260200190815260200160002060020160009054906101000a900473ffffffffffffffffffffffffffffffffffffffff1673ffffffffffffffffffffffffffffffffffffffff166108fc60066000868152602001908152602001600020600501549081150290604051600060405180830381858888f19350505050158015610c18573d6000803e3d6000fd5b50505050565b60018060000154905081565b806000600760008381526020019081526020016000206040518060a0016040529081600082015481526020016001820160009054906101000a900473ffffffffffffffffffffffffffffffffffffffff1673ffffffffffffffffffffffffffffffffffffffff1673ffffffffffffffffffffffffffffffffffffffff16815260200160028201548152602001600382015481526020016004820160009054906101000a900473ffffffffffffffffffffffffffffffffffffffff1673ffffffffffffffffffffffffffffffffffffffff1673ffffffffffffffffffffffffffffffffffffffff168152505090506000816060015111610d6057816040517fcd2ab003000000000000000000000000000000000000000000000000000000008152600401610d57919061318d565b60405180910390fd5b6000600760008581526020019081526020016000206040518060a0016040529081600082015481526020016001820160009054906101000a900473ffffffffffffffffffffffffffffffffffffffff1673ffffffffffffffffffffffffffffffffffffffff1673ffffffffffffffffffffffffffffffffffffffff16815260200160028201548152602001600382015481526020016004820160009054906101000a900473ffffffffffffffffffffffffffffffffffffffff1673ffffffffffffffffffffffffffffffffffffffff1673ffffffffffffffffffffffffffffffffffffffff16815250509050600354841115610e91576040517f08c379a0000000000000000000000000000000000000000000000000000000008152600401610e8890613bb5565b60405180910390fd5b8060600151341015610ed8576040517f08c379a0000000000000000000000000000000000000000000000000000000008152600401610ecf90613c47565b60405180910390fd5b3460096000836080015173ffffffffffffffffffffffffffffffffffffffff1673ffffffffffffffffffffffffffffffffffffffff1681526020019081526020016000206000828254610f2b9190613c67565b925050819055503373ffffffffffffffffffffffffffffffffffffffff166007600086815260200190815260200160002060040160009054906101000a900473ffffffffffffffffffffffffffffffffffffffff1673ffffffffffffffffffffffffffffffffffffffff166007600087815260200190815260200160002060010160009054906101000a900473ffffffffffffffffffffffffffffffffffffffff1673ffffffffffffffffffffffffffffffffffffffff167fb49ef2f21fa0f81845c5a2812ba538af22bdbb889060303ba3856c7958095da36007600089815260200190815260200160002060020154600760008a815260200190815260200160002060030154604051611040929190613c9b565b60405180910390a4600760008581526020019081526020016000206000808201600090556001820160006101000a81549073ffffffffffffffffffffffffffffffffffffffff0219169055600282016000905560038201600090556004820160006101000a81549073ffffffffffffffffffffffffffffffffffffffff02191690555050806020015173ffffffffffffffffffffffffffffffffffffffff166342842e0e82608001513384604001516040518463ffffffff1660e01b815260040161110d93929190613cc4565b600060405180830381600087803b15801561112757600080fd5b505af115801561113b573d6000803e3d6000fd5b5050505050505050565b60045481565b600083905061115a6002612e6c565b60006111666002612e82565b9050836005600082825461117a9190613c67565b925050819055506040518060a001604052808281526020018673ffffffffffffffffffffffffffffffffffffffff1681526020018481526020013373ffffffffffffffffffffffffffffffffffffffff16815260200185815250600860008381526020019081526020016000206000820151816000015560208201518160010160006101000a81548173ffffffffffffffffffffffffffffffffffffffff021916908373ffffffffffffffffffffffffffffffffffffffff1602179055506040820151816002015560608201518160030160006101000a81548173ffffffffffffffffffffffffffffffffffffffff021916908373ffffffffffffffffffffffffffffffffffffffff160217905550608082015181600401559050507f5aa43ce7cbd26ef8feed7d56eb866a21d4d2cb0347115061c0b7d077bd848c3b8533856005546040516112cd9493929190613cfb565b60405180910390a15050505050565b60008490506112eb6001612e6c565b60006112f76001612e82565b90506040518061010001604052808281526020018773ffffffffffffffffffffffffffffffffffffffff1681526020013373ffffffffffffffffffffffffffffffffffffffff16815260200186815260200185815260200184815260200185815260200160001515815250600660008381526020019081526020016000206000820151816000015560208201518160010160006101000a81548173ffffffffffffffffffffffffffffffffffffffff021916908373ffffffffffffffffffffffffffffffffffffffff16021790555060408201518160020160006101000a81548173ffffffffffffffffffffffffffffffffffffffff021916908373ffffffffffffffffffffffffffffffffffffffff160217905550606082015181600301556080820151816004015560a0820151816005015560c0820151816006015560e08201518160070160006101000a81548160ff0219169083151502179055509050507f40e27a29cfb083bd6a82129fbf1d357b24296fffde131e0389d5960e417b84e5863387878760405161148f959493929190613d40565b60405180910390a1505050505050565b6114a7612e90565b6114b16000612f0e565b565b600081116114f6576040517f08c379a00000000000000000000000000000000000000000000000000000000081526004016114ed90613ddf565b60405180910390fd5b60008390506003600081548092919061150e90613dff565b91905055506040518060a0016040528060035481526020018573ffffffffffffffffffffffffffffffffffffffff1681526020018481526020018381526020013373ffffffffffffffffffffffffffffffffffffffff168152506007600060035481526020019081526020016000206000820151816000015560208201518160010160006101000a81548173ffffffffffffffffffffffffffffffffffffffff021916908373ffffffffffffffffffffffffffffffffffffffff160217905550604082015181600201556060820151816003015560808201518160040160006101000a81548173ffffffffffffffffffffffffffffffffffffffff021916908373ffffffffffffffffffffffffffffffffffffffff1602179055509050507f120930e4569ba9ce161cf9bdc7acf4e40bdfb26008053dad189ad1e8fc1dfbbc843385856040516116619493929190613cfb565b60405180910390a150505050565b60008060009054906101000a900473ffffffffffffffffffffffffffffffffffffffff16905090565b6000600960003373ffffffffffffffffffffffffffffffffffffffff1673ffffffffffffffffffffffffffffffffffffffff1681526020019081526020016000205490506000811161171f576040517f08c379a000000000000000000000000000000000000000000000000000000000815260040161171690613e93565b60405180910390fd5b6000600960003373ffffffffffffffffffffffffffffffffffffffff1673ffffffffffffffffffffffffffffffffffffffff1681526020019081526020016000208190555060003373ffffffffffffffffffffffffffffffffffffffff168260405161178a90613ee1565b60006040518083038185875af1925050503d80600081146117c7576040519150601f19603f3d011682016040523d82523d6000602084013e6117cc565b606091505b5050905080611810576040517f08c379a000000000000000000000000000000000000000000000000000000000815260040161180790613f42565b60405180910390fd5b5050565b60055481565b60028060000154905081565b61182e612fda565b600860008381526020019081526020016000206040518060a0016040529081600082015481526020016001820160009054906101000a900473ffffffffffffffffffffffffffffffffffffffff1673ffffffffffffffffffffffffffffffffffffffff1673ffffffffffffffffffffffffffffffffffffffff168152602001600282015481526020016003820160009054906101000a900473ffffffffffffffffffffffffffffffffffffffff1673ffffffffffffffffffffffffffffffffffffffff1673ffffffffffffffffffffffffffffffffffffffff1681526020016004820154815250509050919050565b60035481565b803360006008600084815260200190815260200160002060030160009054906101000a900473ffffffffffffffffffffffffffffffffffffffff1690508073ffffffffffffffffffffffffffffffffffffffff168273ffffffffffffffffffffffffffffffffffffffff16146119c5576040517f30cd747100000000000000000000000000000000000000000000000000000000815260040160405180910390fd5b836000600860008381526020019081526020016000206040518060a0016040529081600082015481526020016001820160009054906101000a900473ffffffffffffffffffffffffffffffffffffffff1673ffffffffffffffffffffffffffffffffffffffff1673ffffffffffffffffffffffffffffffffffffffff168152602001600282015481526020016003820160009054906101000a900473ffffffffffffffffffffffffffffffffffffffff1673ffffffffffffffffffffffffffffffffffffffff1673ffffffffffffffffffffffffffffffffffffffff168152602001600482015481525050905060008160400151111580611acb57506000816080015111155b15611b43576008600083815260200190815260200160002060010160009054906101000a900473ffffffffffffffffffffffffffffffffffffffff166040517ff284c5b0000000000000000000000000000000000000000000000000000000008152600401611b3a91906132fc565b60405180910390fd5b600860008781526020019081526020016000206000808201600090556001820160006101000a81549073ffffffffffffffffffffffffffffffffffffffff021916905560028201600090556003820160006101000a81549073ffffffffffffffffffffffffffffffffffffffff021916905560048201600090555050505050505050565b60006008600084815260200190815260200160002060010160009054906101000a900473ffffffffffffffffffffffffffffffffffffffff1690506008600084815260200190815260200160002060020154341015611c5b576040517f08c379a0000000000000000000000000000000000000000000000000000000008152600401611c5290613fae565b60405180910390fd5b81600860008581526020019081526020016000206004016000828254611c819190613a61565b925050819055508073ffffffffffffffffffffffffffffffffffffffff166323b872dd6008600086815260200190815260200160002060030160009054906101000a900473ffffffffffffffffffffffffffffffffffffffff1633856040518463ffffffff1660e01b8152600401611cfb93929190613cc4565b6020604051808303816000875af1158015611d1a573d6000803e3d6000fd5b505050506040513d601f19601f82011682018060405250810190611d3e9190613ffa565b506008600084815260200190815260200160002060030160009054906101000a900473ffffffffffffffffffffffffffffffffffffffff1673ffffffffffffffffffffffffffffffffffffffff166108fc60086000868152602001908152602001600020600201549081150290604051600060405180830381858888f19350505050158015611dd1573d6000803e3d6000fd5b503373ffffffffffffffffffffffffffffffffffffffff166008600085815260200190815260200160002060010160009054906101000a900473ffffffffffffffffffffffffffffffffffffffff1673ffffffffffffffffffffffffffffffffffffffff167f5eff0f847c1aed55aad7d8f167cdcafe007e3e7a1302c70edd1c86e569820a3b600454604051611e67919061318d565b60405180910390a3505050565b803360006007600084815260200190815260200160002060040160009054906101000a900473ffffffffffffffffffffffffffffffffffffffff1690508073ffffffffffffffffffffffffffffffffffffffff168273ffffffffffffffffffffffffffffffffffffffff1614611f16576040517f30cd747100000000000000000000000000000000000000000000000000000000815260040160405180910390fd5b836000600760008381526020019081526020016000206040518060a0016040529081600082015481526020016001820160009054906101000a900473ffffffffffffffffffffffffffffffffffffffff1673ffffffffffffffffffffffffffffffffffffffff1673ffffffffffffffffffffffffffffffffffffffff16815260200160028201548152602001600382015481526020016004820160009054906101000a900473ffffffffffffffffffffffffffffffffffffffff1673ffffffffffffffffffffffffffffffffffffffff1673ffffffffffffffffffffffffffffffffffffffff16815250509050600081606001511161204c57816040517fcd2ab003000000000000000000000000000000000000000000000000000000008152600401612043919061318d565b60405180910390fd5b600760008781526020019081526020016000206000808201600090556001820160006101000a81549073ffffffffffffffffffffffffffffffffffffffff0219169055600282016000905560038201600090556004820160006101000a81549073ffffffffffffffffffffffffffffffffffffffff02191690555050505050505050565b60066020528060005260406000206000915090508060000154908060010160009054906101000a900473ffffffffffffffffffffffffffffffffffffffff16908060020160009054906101000a900473ffffffffffffffffffffffffffffffffffffffff16908060030154908060040154908060050154908060060154908060070160009054906101000a900460ff16905088565b60086020528060005260406000206000915090508060000154908060010160009054906101000a900473ffffffffffffffffffffffffffffffffffffffff16908060020154908060030160009054906101000a900473ffffffffffffffffffffffffffffffffffffffff16908060040154905085565b826000600860008381526020019081526020016000206040518060a0016040529081600082015481526020016001820160009054906101000a900473ffffffffffffffffffffffffffffffffffffffff1673ffffffffffffffffffffffffffffffffffffffff1673ffffffffffffffffffffffffffffffffffffffff168152602001600282015481526020016003820160009054906101000a900473ffffffffffffffffffffffffffffffffffffffff1673ffffffffffffffffffffffffffffffffffffffff1673ffffffffffffffffffffffffffffffffffffffff1681526020016004820154815250509050600081604001511115806122e157506000816080015111155b15612359576008600083815260200190815260200160002060010160009054906101000a900473ffffffffffffffffffffffffffffffffffffffff166040517ff284c5b000000000000000000000000000000000000000000000000000000000815260040161235091906132fc565b60405180910390fd5b843360006008600084815260200190815260200160002060030160009054906101000a900473ffffffffffffffffffffffffffffffffffffffff1690508073ffffffffffffffffffffffffffffffffffffffff168273ffffffffffffffffffffffffffffffffffffffff16146123fb576040517f30cd747100000000000000000000000000000000000000000000000000000000815260040160405180910390fd5b86600860008a81526020019081526020016000206002018190555085600860008a8152602001908152602001600020600401819055505050505050505050565b612443613035565b600760008381526020019081526020016000206040518060a0016040529081600082015481526020016001820160009054906101000a900473ffffffffffffffffffffffffffffffffffffffff1673ffffffffffffffffffffffffffffffffffffffff1673ffffffffffffffffffffffffffffffffffffffff16815260200160028201548152602001600382015481526020016004820160009054906101000a900473ffffffffffffffffffffffffffffffffffffffff1673ffffffffffffffffffffffffffffffffffffffff1673ffffffffffffffffffffffffffffffffffffffff16815250509050919050565b823360006006600084815260200190815260200160002060020160009054906101000a900473ffffffffffffffffffffffffffffffffffffffff1690508073ffffffffffffffffffffffffffffffffffffffff168273ffffffffffffffffffffffffffffffffffffffff16146125d4576040517f30cd747100000000000000000000000000000000000000000000000000000000815260040160405180910390fd5b8560006006600083815260200190815260200160002060405180610100016040529081600082015481526020016001820160009054906101000a900473ffffffffffffffffffffffffffffffffffffffff1673ffffffffffffffffffffffffffffffffffffffff1673ffffffffffffffffffffffffffffffffffffffff1681526020016002820160009054906101000a900473ffffffffffffffffffffffffffffffffffffffff1673ffffffffffffffffffffffffffffffffffffffff1673ffffffffffffffffffffffffffffffffffffffff168152602001600382015481526020016004820154815260200160058201548152602001600682015481526020016007820160009054906101000a900460ff161515151581525050905060008160a0015111158061270a57506000816080015111155b1561274c57816040517fa09e71c6000000000000000000000000000000000000000000000000000000008152600401612743919061318d565b60405180910390fd5b600660008981526020019081526020016000206000808201600090556001820160006101000a81549073ffffffffffffffffffffffffffffffffffffffff02191690556002820160006101000a81549073ffffffffffffffffffffffffffffffffffffffff021916905560038201600090556004820160009055600582016000905560068201600090556007820160006101000a81549060ff021916905550505050505050505050565b60076020528060005260406000206000915090508060000154908060010160009054906101000a900473ffffffffffffffffffffffffffffffffffffffff16908060020154908060030154908060040160009054906101000a900473ffffffffffffffffffffffffffffffffffffffff16905085565b813360006007600084815260200190815260200160002060040160009054906101000a900473ffffffffffffffffffffffffffffffffffffffff1690508073ffffffffffffffffffffffffffffffffffffffff168273ffffffffffffffffffffffffffffffffffffffff161461290e576040517f30cd747100000000000000000000000000000000000000000000000000000000815260040160405180910390fd5b846000600760008381526020019081526020016000206040518060a0016040529081600082015481526020016001820160009054906101000a900473ffffffffffffffffffffffffffffffffffffffff1673ffffffffffffffffffffffffffffffffffffffff1673ffffffffffffffffffffffffffffffffffffffff16815260200160028201548152602001600382015481526020016004820160009054906101000a900473ffffffffffffffffffffffffffffffffffffffff1673ffffffffffffffffffffffffffffffffffffffff1673ffffffffffffffffffffffffffffffffffffffff168152505090506000816060015111612a4457816040517fcd2ab003000000000000000000000000000000000000000000000000000000008152600401612a3b919061318d565b60405180910390fd5b85600760008981526020019081526020016000206003018190555050505050505050565b823360006006600084815260200190815260200160002060020160009054906101000a900473ffffffffffffffffffffffffffffffffffffffff1690508073ffffffffffffffffffffffffffffffffffffffff168273ffffffffffffffffffffffffffffffffffffffff1614612b0a576040517f30cd747100000000000000000000000000000000000000000000000000000000815260040160405180910390fd5b8560006006600083815260200190815260200160002060405180610100016040529081600082015481526020016001820160009054906101000a900473ffffffffffffffffffffffffffffffffffffffff1673ffffffffffffffffffffffffffffffffffffffff1673ffffffffffffffffffffffffffffffffffffffff1681526020016002820160009054906101000a900473ffffffffffffffffffffffffffffffffffffffff1673ffffffffffffffffffffffffffffffffffffffff1673ffffffffffffffffffffffffffffffffffffffff168152602001600382015481526020016004820154815260200160058201548152602001600682015481526020016007820160009054906101000a900460ff161515151581525050905060008160a00151111580612c4057506000816080015111155b15612c8257816040517fa09e71c6000000000000000000000000000000000000000000000000000000008152600401612c79919061318d565b60405180910390fd5b86600660008a81526020019081526020016000206005018190555085600660008a8152602001908152602001600020600401819055505050505050505050565b612cca613090565b6006600083815260200190815260200160002060405180610100016040529081600082015481526020016001820160009054906101000a900473ffffffffffffffffffffffffffffffffffffffff1673ffffffffffffffffffffffffffffffffffffffff1673ffffffffffffffffffffffffffffffffffffffff1681526020016002820160009054906101000a900473ffffffffffffffffffffffffffffffffffffffff1673ffffffffffffffffffffffffffffffffffffffff1673ffffffffffffffffffffffffffffffffffffffff168152602001600382015481526020016004820154815260200160058201548152602001600682015481526020016007820160009054906101000a900460ff1615151515815250509050919050565b612df1612e90565b600073ffffffffffffffffffffffffffffffffffffffff168173ffffffffffffffffffffffffffffffffffffffff1603612e60576040517f08c379a0000000000000000000000000000000000000000000000000000000008152600401612e5790614099565b60405180910390fd5b612e6981612f0e565b50565b6001816000016000828254019250508190555050565b600081600001549050919050565b612e98612fd2565b73ffffffffffffffffffffffffffffffffffffffff16612eb661166f565b73ffffffffffffffffffffffffffffffffffffffff1614612f0c576040517f08c379a0000000000000000000000000000000000000000000000000000000008152600401612f0390614105565b60405180910390fd5b565b60008060009054906101000a900473ffffffffffffffffffffffffffffffffffffffff169050816000806101000a81548173ffffffffffffffffffffffffffffffffffffffff021916908373ffffffffffffffffffffffffffffffffffffffff1602179055508173ffffffffffffffffffffffffffffffffffffffff168173ffffffffffffffffffffffffffffffffffffffff167f8be0079c531659141344cd1fd0a4f28419497f9722a3daafe3b4186f6b6457e060405160405180910390a35050565b600033905090565b6040518060a0016040528060008152602001600073ffffffffffffffffffffffffffffffffffffffff16815260200160008152602001600073ffffffffffffffffffffffffffffffffffffffff168152602001600081525090565b6040518060a0016040528060008152602001600073ffffffffffffffffffffffffffffffffffffffff1681526020016000815260200160008152602001600073ffffffffffffffffffffffffffffffffffffffff1681525090565b60405180610100016040528060008152602001600073ffffffffffffffffffffffffffffffffffffffff168152602001600073ffffffffffffffffffffffffffffffffffffffff168152602001600081526020016000815260200160008152602001600081526020016000151581525090565b600080fd5b6000819050919050565b61311b81613108565b811461312657600080fd5b50565b60008135905061313881613112565b92915050565b6000806040838503121561315557613154613103565b5b600061316385828601613129565b925050602061317485828601613129565b9150509250929050565b61318781613108565b82525050565b60006020820190506131a2600083018461317e565b92915050565b6000602082840312156131be576131bd613103565b5b60006131cc84828501613129565b91505092915050565b600073ffffffffffffffffffffffffffffffffffffffff82169050919050565b6000613200826131d5565b9050919050565b613210816131f5565b811461321b57600080fd5b50565b60008135905061322d81613207565b92915050565b60008060006060848603121561324c5761324b613103565b5b600061325a8682870161321e565b935050602061326b86828701613129565b925050604061327c86828701613129565b9150509250925092565b600080600080608085870312156132a05761329f613103565b5b60006132ae8782880161321e565b94505060206132bf87828801613129565b93505060406132d087828801613129565b92505060606132e187828801613129565b91505092959194509250565b6132f6816131f5565b82525050565b600060208201905061331160008301846132ed565b92915050565b61332081613108565b82525050565b61332f816131f5565b82525050565b60a08201600082015161334b6000850182613317565b50602082015161335e6020850182613326565b5060408201516133716040850182613317565b5060608201516133846060850182613326565b5060808201516133976080850182613317565b50505050565b600060a0820190506133b26000830184613335565b92915050565b60008115159050919050565b6133cd816133b8565b82525050565b6000610100820190506133e9600083018b61317e565b6133f6602083018a6132ed565b61340360408301896132ed565b613410606083018861317e565b61341d608083018761317e565b61342a60a083018661317e565b61343760c083018561317e565b61344460e08301846133c4565b9998505050505050505050565b600060a082019050613466600083018861317e565b61347360208301876132ed565b613480604083018661317e565b61348d60608301856132ed565b61349a608083018461317e565b9695505050505050565b6000806000606084860312156134bd576134bc613103565b5b60006134cb86828701613129565b93505060206134dc86828701613129565b92505060406134ed86828701613129565b9150509250925092565b60a08201600082015161350d6000850182613317565b5060208201516135206020850182613326565b5060408201516135336040850182613317565b5060608201516135466060850182613317565b5060808201516135596080850182613326565b50505050565b600060a08201905061357460008301846134f7565b92915050565b60008060006060848603121561359357613592613103565b5b60006135a186828701613129565b93505060206135b28682870161321e565b92505060406135c386828701613129565b9150509250925092565b600060a0820190506135e2600083018861317e565b6135ef60208301876132ed565b6135fc604083018661317e565b613609606083018561317e565b61361660808301846132ed565b9695505050505050565b613629816133b8565b82525050565b610100820160008201516136466000850182613317565b5060208201516136596020850182613326565b50604082015161366c6040850182613326565b50606082015161367f6060850182613317565b5060808201516136926080850182613317565b5060a08201516136a560a0850182613317565b5060c08201516136b860c0850182613317565b5060e08201516136cb60e0850182613620565b50505050565b6000610100820190506136e7600083018461362f565b92915050565b60006020828403121561370357613702613103565b5b60006137118482850161321e565b91505092915050565b600082825260208201905092915050565b7f596f752063616e206e6f74206275792074686973206e66740000000000000000600082015250565b600061376160188361371a565b915061376c8261372b565b602082019050919050565b6000602082019050818103600083015261379081613754565b9050919050565b7f4e487b7100000000000000000000000000000000000000000000000000000000600052601160045260246000fd5b60006137d182613108565b91506137dc83613108565b9250817fffffffffffffffffffffffffffffffffffffffffffffffffffffffffffffffff048311821515161561381557613814613797565b5b828202905092915050565b7f596f7520646f206e6f74206861766520656e6f75676820746f6b656e20746f2060008201527f6275792074686973206e66740000000000000000000000000000000000000000602082015250565b600061387c602c8361371a565b915061388782613820565b604082019050919050565b600060208201905081810360008301526138ab8161386f565b9050919050565b60006040820190506138c760008301856132ed565b6138d4602083018461317e565b9392505050565b6000815190506138ea81613112565b92915050565b60006020828403121561390657613905613103565b5b6000613914848285016138db565b91505092915050565b7f53656c6c657220646f6573206e6f74206861766520656e6f756768206e667473600082015250565b600061395360208361371a565b915061395e8261391d565b602082019050919050565b6000602082019050818103600083015261398281613946565b9050919050565b7f54686973206e667420697320736f6c64206f7574000000000000000000000000600082015250565b60006139bf60148361371a565b91506139ca82613989565b602082019050919050565b600060208201905081810360008301526139ee816139b2565b9050919050565b7f4e6f7420656e6f756768206e6674730000000000000000000000000000000000600082015250565b6000613a2b600f8361371a565b9150613a36826139f5565b602082019050919050565b60006020820190508181036000830152613a5a81613a1e565b9050919050565b6000613a6c82613108565b9150613a7783613108565b9250828203905081811115613a8f57613a8e613797565b5b92915050565b6000608082019050613aaa60008301876132ed565b613ab7602083018661317e565b613ac4604083018561317e565b613ad1606083018461317e565b95945050505050565b600082825260208201905092915050565b50565b6000613afb600083613ada565b9150613b0682613aeb565b600082019050919050565b600060a082019050613b2660008301876132ed565b613b3360208301866132ed565b613b40604083018561317e565b613b4d606083018461317e565b8181036080830152613b5e81613aee565b905095945050505050565b7f54686973206e667420646f6573206e6f74206578697374202100000000000000600082015250565b6000613b9f60198361371a565b9150613baa82613b69565b602082019050919050565b60006020820190508181036000830152613bce81613b92565b9050919050565b7f596f7520646f6e2774206861766520656e6f75676820746f6b656e20746f206260008201527f75792074686973204974656d0000000000000000000000000000000000000000602082015250565b6000613c31602c8361371a565b9150613c3c82613bd5565b604082019050919050565b60006020820190508181036000830152613c6081613c24565b9050919050565b6000613c7282613108565b9150613c7d83613108565b9250828201905080821115613c9557613c94613797565b5b92915050565b6000604082019050613cb0600083018561317e565b613cbd602083018461317e565b9392505050565b6000606082019050613cd960008301866132ed565b613ce660208301856132ed565b613cf3604083018461317e565b949350505050565b6000608082019050613d1060008301876132ed565b613d1d60208301866132ed565b613d2a604083018561317e565b613d37606083018461317e565b95945050505050565b600060a082019050613d5560008301886132ed565b613d6260208301876132ed565b613d6f604083018661317e565b613d7c606083018561317e565b613d89608083018461317e565b9695505050505050565b7f57726f6e67205072696365202100000000000000000000000000000000000000600082015250565b6000613dc9600d8361371a565b9150613dd482613d93565b602082019050919050565b60006020820190508181036000830152613df881613dbc565b9050919050565b6000613e0a82613108565b91507fffffffffffffffffffffffffffffffffffffffffffffffffffffffffffffffff8203613e3c57613e3b613797565b5b600182019050919050565b7f4e6f2050726f6365656473000000000000000000000000000000000000000000600082015250565b6000613e7d600b8361371a565b9150613e8882613e47565b602082019050919050565b60006020820190508181036000830152613eac81613e70565b9050919050565b600081905092915050565b6000613ecb600083613eb3565b9150613ed682613aeb565b600082019050919050565b6000613eec82613ebe565b9150819050919050565b7f5472616e73666572206661696c65640000000000000000000000000000000000600082015250565b6000613f2c600f8361371a565b9150613f3782613ef6565b602082019050919050565b60006020820190508181036000830152613f5b81613f1f565b9050919050565b7f596f7520646f6e2774206861766520656e6f756768206d6f6e65790000000000600082015250565b6000613f98601b8361371a565b9150613fa382613f62565b602082019050919050565b60006020820190508181036000830152613fc781613f8b565b9050919050565b613fd7816133b8565b8114613fe257600080fd5b50565b600081519050613ff481613fce565b92915050565b6000602082840312156140105761400f613103565b5b600061401e84828501613fe5565b91505092915050565b7f4f776e61626c653a206e6577206f776e657220697320746865207a65726f206160008201527f6464726573730000000000000000000000000000000000000000000000000000602082015250565b600061408360268361371a565b915061408e82614027565b604082019050919050565b600060208201905081810360008301526140b281614076565b9050919050565b7f4f776e61626c653a2063616c6c6572206973206e6f7420746865206f776e6572600082015250565b60006140ef60208361371a565b91506140fa826140b9565b602082019050919050565b6000602082019050818103600083015261411e816140e2565b905091905056fea2646970667358221220d41c9513c1de06b4b774743c3ae2fb4e89cd674c0fa22ccb65684afab8082a3a64736f6c63430008100033",
  "immutableReferences": {},
  "source": "// SPDX-License-Identifier: MIT\r\npragma solidity ^0.8.16;\r\n\r\nimport \"@openzeppelin/contracts/token/ERC721/IERC721.sol\";\r\nimport \"@openzeppelin/contracts/token/ERC721/ERC721.sol\";\r\nimport \"@openzeppelin/contracts/token/ERC1155/IERC1155.sol\";\r\nimport \"@openzeppelin/contracts/token/ERC1155/ERC1155.sol\";\r\nimport \"@openzeppelin/contracts/token/ERC20/IERC20.sol\";\r\nimport \"@openzeppelin/contracts/token/ERC20/ERC20.sol\";\r\nimport \"@openzeppelin/contracts/utils/Counters.sol\";\r\nimport \"@openzeppelin/contracts/access/Ownable.sol\";\r\n\r\nerror NotOwner();\r\nerror AlreadyListed(address nftAddress, uint256 tokenId);\r\nerror NotListedERC721(uint256 itemCount);\r\nerror NotListedERC1155(uint256 listingId);\r\nerror NotListedERC20(address tokenAddress);\r\n\r\ncontract NftMarketplace is Ownable {\r\n    using Counters for Counters.Counter;\r\n    Counters.Counter public _listingIds;\r\n    Counters.Counter public _listingERC20;\r\n\r\n    uint256 public ERC721Count;\r\n    uint256 public tokenERC20Sold;\r\n    uint256 public tokenERC20Listing;\r\n\r\n    // ListingERC20[] public sellerList;\r\n\r\n    struct ListingERC1155 {\r\n        uint256 itemId;\r\n        address nftAddress;\r\n        address seller;\r\n        uint256 tokenId;\r\n        uint256 amount;\r\n        uint256 price;\r\n        uint256 tokenAvailable;\r\n        bool soldOut;\r\n    }\r\n\r\n    struct ListingERC721 {\r\n        uint256 itemId;\r\n        address nftAddress;\r\n        uint256 tokenId;\r\n        uint256 price;\r\n        address seller;\r\n    }\r\n\r\n    struct ListingERC20 {\r\n        uint256 itemId;\r\n        address tokenAddress;\r\n        uint256 price;\r\n        address seller;\r\n        uint256 amount;\r\n    }\r\n\r\n    mapping(uint256 => ListingERC1155) public ERC1155List;\r\n    // mapping(address => mapping(uint256 => ListingERC721)) private ERC721List;\r\n    mapping(uint256 => ListingERC721) public ERC721List;\r\n    mapping(uint256 => ListingERC20) public ERC20List;\r\n    mapping(address => uint256) private ERC721Proceeds;\r\n\r\n    event ERC1155Listed(\r\n        address nftAddress,\r\n        address seller,\r\n        uint256 tokenId,\r\n        uint256 amount,\r\n        uint256 price\r\n    );\r\n\r\n    event ERC721Listed(\r\n        address nftAddress,\r\n        address seller,\r\n        uint256 tokenId,\r\n        uint256 price\r\n    );\r\n\r\n    event ERC20Listed(\r\n        address tokenAddress,\r\n        address seller,\r\n        uint256 price,\r\n        uint256 amount\r\n    );\r\n\r\n    event ERC1155Sold(\r\n        address indexed nftAddress,\r\n        address seller,\r\n        address indexed buyer,\r\n        uint256 tokenId,\r\n        uint256 amount,\r\n        uint256 price\r\n    );\r\n\r\n    event ERC721Sold(\r\n        address indexed nftAddress,\r\n        address indexed seller,\r\n        address indexed buyer,\r\n        uint256 tokenId,\r\n        uint256 price\r\n    );\r\n\r\n    event ERC20Sold(\r\n        address indexed tokenAddress,\r\n        address indexed buyer,\r\n        uint256 amount\r\n    );\r\n\r\n    modifier isOwnerERC721(uint256 itemCount, address spender) {\r\n        address owner = ERC721List[itemCount].seller;\r\n        if (spender != owner) {\r\n            revert NotOwner();\r\n        }\r\n        _;\r\n    }\r\n\r\n    modifier isOwnerERC1155(uint256 listingId, address spender) {\r\n        address owner = ERC1155List[listingId].seller;\r\n        if (spender != owner) {\r\n            revert NotOwner();\r\n        }\r\n        _;\r\n    }\r\n\r\n    modifier isOwnerERC20(uint256 listingERC20, address spender) {\r\n        address owner = ERC20List[listingERC20].seller;\r\n        if (spender != owner) {\r\n            revert NotOwner();\r\n        }\r\n        _;\r\n    }\r\n\r\n    modifier notListed(uint256 itemCount) {\r\n        ListingERC721 memory listing = ERC721List[itemCount];\r\n        if (listing.price > 0) {\r\n            revert AlreadyListed(\r\n                ERC721List[itemCount].nftAddress,\r\n                ERC721List[itemCount].tokenId\r\n            );\r\n        }\r\n        _;\r\n    }\r\n\r\n    modifier isListedERC721(uint256 itemCount) {\r\n        ListingERC721 memory listing = ERC721List[itemCount];\r\n        if (listing.price <= 0) {\r\n            revert NotListedERC721(itemCount);\r\n        }\r\n        _;\r\n    }\r\n\r\n    modifier isListedERC20(uint256 listingERC20) {\r\n        ListingERC20 memory listing = ERC20List[listingERC20];\r\n        if (listing.price <= 0 || listing.amount <= 0) {\r\n            revert NotListedERC20(ERC20List[listingERC20].tokenAddress);\r\n        }\r\n        _;\r\n    }\r\n\r\n    modifier isListedERC1155(uint256 listingId) {\r\n        ListingERC1155 memory listing = ERC1155List[listingId];\r\n        if (listing.price <= 0 || listing.amount <= 0) {\r\n            revert NotListedERC1155(listingId);\r\n        }\r\n        _;\r\n    }\r\n\r\n    function listItemERC721(\r\n        address nftAddress,\r\n        uint256 tokenId,\r\n        uint256 price\r\n    ) external {\r\n        require(price > 0, \"Wrong Price !\");\r\n        IERC721 nft = IERC721(nftAddress);\r\n        ERC721Count++;\r\n        ERC721List[ERC721Count] = ListingERC721(\r\n            ERC721Count,\r\n            nftAddress,\r\n            tokenId,\r\n            price,\r\n            msg.sender\r\n        );\r\n\r\n        emit ERC721Listed(nftAddress, msg.sender, tokenId, price);\r\n    }\r\n\r\n    function listItemERC1155(\r\n        address nftAddress,\r\n        uint256 tokenId,\r\n        uint256 amount,\r\n        uint256 price\r\n    ) external {\r\n        ERC1155 nft = ERC1155(nftAddress);\r\n        _listingIds.increment();\r\n        uint256 listingId = _listingIds.current();\r\n\r\n        ERC1155List[listingId] = ListingERC1155(\r\n            listingId,\r\n            nftAddress,\r\n            msg.sender,\r\n            tokenId,\r\n            amount,\r\n            price,\r\n            amount,\r\n            false\r\n        );\r\n        emit ERC1155Listed(nftAddress, msg.sender, tokenId, amount, price);\r\n    }\r\n\r\n    function listItemERC20(\r\n        address tokenAddress,\r\n        uint256 amount,\r\n        uint256 price\r\n    ) external {\r\n        ERC20 token = ERC20(tokenAddress);\r\n        _listingERC20.increment();\r\n        uint256 listingERC20 = _listingERC20.current();\r\n        tokenERC20Listing += amount;\r\n        ERC20List[listingERC20] = ListingERC20(\r\n            listingERC20,\r\n            tokenAddress,\r\n            price,\r\n            msg.sender,\r\n            amount\r\n        );\r\n        emit ERC20Listed(tokenAddress, msg.sender, price, tokenERC20Listing);\r\n    }\r\n\r\n    function buyItemERC721(uint256 itemCount)\r\n        external\r\n        payable\r\n        isListedERC721(itemCount)\r\n    {\r\n        ListingERC721 memory listedItem = ERC721List[itemCount];\r\n        require(itemCount <= ERC721Count, \"This nft does not exist !\");\r\n        require(\r\n            msg.value >= listedItem.price,\r\n            \"You don't have enough token to buy this Item\"\r\n        );\r\n        ERC721Proceeds[listedItem.seller] += msg.value;\r\n        emit ERC721Sold(\r\n            ERC721List[itemCount].nftAddress,\r\n            ERC721List[itemCount].seller,\r\n            msg.sender,\r\n            ERC721List[itemCount].tokenId,\r\n            ERC721List[itemCount].price\r\n        );\r\n        delete (ERC721List[itemCount]);\r\n\r\n        IERC721(listedItem.nftAddress).safeTransferFrom(\r\n            listedItem.seller,\r\n            msg.sender,\r\n            listedItem.tokenId\r\n        );\r\n    }\r\n\r\n    function buyItemERC1155(uint256 listingId, uint256 amount)\r\n        external\r\n        payable\r\n    {\r\n        ERC1155 nft = ERC1155(ERC1155List[listingId].nftAddress);\r\n        require(\r\n            msg.sender != ERC1155List[listingId].seller,\r\n            \"You can not buy this nft\"\r\n        );\r\n\r\n        require(\r\n            msg.value >= ERC1155List[listingId].price * amount,\r\n            \"You do not have enough token to buy this nft\"\r\n        );\r\n\r\n        require(\r\n            nft.balanceOf(\r\n                ERC1155List[listingId].seller,\r\n                ERC1155List[listingId].tokenId\r\n            ) >= amount,\r\n            \"Seller does not have enough nfts\"\r\n        );\r\n\r\n        require(\r\n            ERC1155List[listingId].soldOut == false,\r\n            \"This nft is sold out\"\r\n        );\r\n        require(\r\n            ERC1155List[listingId].tokenAvailable >= amount,\r\n            \"Not enough nfts\"\r\n        );\r\n        ERC1155List[listingId].tokenAvailable -= amount;\r\n        if (ERC1155List[listingId].tokenAvailable == 0) {\r\n            ERC1155List[listingId].soldOut = true;\r\n        }\r\n\r\n        emit ERC1155Sold(\r\n            ERC1155List[listingId].nftAddress,\r\n            ERC1155List[listingId].seller,\r\n            msg.sender,\r\n            ERC1155List[listingId].tokenId,\r\n            amount,\r\n            ERC1155List[listingId].price\r\n        );\r\n\r\n        nft.safeTransferFrom(\r\n            ERC1155List[listingId].seller,\r\n            msg.sender,\r\n            ERC1155List[listingId].tokenId,\r\n            amount,\r\n            \"\"\r\n        );\r\n\r\n        payable(ERC1155List[listingId].seller).transfer(\r\n            (ERC1155List[listingId].price)\r\n        );\r\n    }\r\n\r\n    function buyItemERC20(uint256 listingERC20, uint256 amount)\r\n        external\r\n        payable\r\n    {\r\n        ERC20 token = ERC20(ERC20List[listingERC20].tokenAddress);\r\n        require(\r\n            msg.value >= (ERC20List[listingERC20].price),\r\n            \"You don't have enough money\"\r\n        );\r\n\r\n        ERC20List[listingERC20].amount -= amount;\r\n\r\n        token.transferFrom(ERC20List[listingERC20].seller, msg.sender, amount);\r\n\r\n        payable(ERC20List[listingERC20].seller).transfer(\r\n            (ERC20List[listingERC20].price)\r\n        );\r\n\r\n        emit ERC20Sold(\r\n            ERC20List[listingERC20].tokenAddress,\r\n            msg.sender,\r\n            tokenERC20Sold\r\n        );\r\n    }\r\n\r\n    function updateListingERC721(uint256 itemCount, uint256 newPrice)\r\n        external\r\n        isOwnerERC721(itemCount, msg.sender)\r\n        isListedERC721(itemCount)\r\n    {\r\n        ERC721List[itemCount].price = newPrice;\r\n    }\r\n\r\n    function updateListingERC1155(\r\n        uint256 listingId,\r\n        uint256 newPrice,\r\n        uint256 newAmount\r\n    )\r\n        external\r\n        isOwnerERC1155(listingId, msg.sender)\r\n        isListedERC1155(listingId)\r\n    {\r\n        ERC1155List[listingId].price = newPrice;\r\n        ERC1155List[listingId].amount = newAmount;\r\n    }\r\n\r\n    function updateListingERC20(\r\n        uint256 listingERC20,\r\n        uint256 newPrice,\r\n        uint256 newAmount\r\n    )\r\n        external\r\n        isListedERC20(listingERC20)\r\n        isOwnerERC20(listingERC20, msg.sender)\r\n    {\r\n        ERC20List[listingERC20].price = newPrice;\r\n        ERC20List[listingERC20].amount = newAmount;\r\n    }\r\n\r\n    function getListingERC721(uint256 itemCount)\r\n        external\r\n        view\r\n        returns (ListingERC721 memory)\r\n    {\r\n        return ERC721List[itemCount];\r\n    }\r\n\r\n    function getListingERC1155(uint256 listingId)\r\n        external\r\n        view\r\n        returns (ListingERC1155 memory)\r\n    {\r\n        return ERC1155List[listingId];\r\n    }\r\n\r\n    function getListingERC20(uint256 listingERC20)\r\n        external\r\n        view\r\n        returns (ListingERC20 memory)\r\n    {\r\n        return ERC20List[listingERC20];\r\n    }\r\n\r\n    function cancelListingERC721(uint256 itemCount)\r\n        external\r\n        isOwnerERC721(itemCount, msg.sender)\r\n        isListedERC721(itemCount)\r\n    {\r\n        delete (ERC721List[itemCount]);\r\n    }\r\n\r\n    function cancelListingERC1155(\r\n        uint256 listingId,\r\n        address nftAddress,\r\n        uint256 tokenId\r\n    )\r\n        external\r\n        isOwnerERC1155(listingId, msg.sender)\r\n        isListedERC1155(listingId)\r\n    {\r\n        delete (ERC1155List[listingId]);\r\n    }\r\n\r\n    function cancelListingERC20(uint256 listingERC20)\r\n        external\r\n        isOwnerERC20(listingERC20, msg.sender)\r\n        isListedERC20(listingERC20)\r\n    {\r\n        delete (ERC20List[listingERC20]);\r\n    }\r\n\r\n    function withdrawProceeds() external {\r\n        uint256 proceeds = ERC721Proceeds[msg.sender];\r\n        require(proceeds > 0, \"No Proceeds\");\r\n        ERC721Proceeds[msg.sender] = 0;\r\n        (bool success, ) = payable(msg.sender).call{value: proceeds}(\"\");\r\n        require(success, \"Transfer failed\");\r\n    }\r\n}\r\n",
  "sourcePath": "D:\\WorkSpace\\Jobs\\NftMarketplace_ERC721\\contracts\\NftMarketplace.sol",
  "compiler": {
    "name": "solc",
    "version": "0.8.16+commit.07a7930e.Emscripten.clang"
  },
  "schemaVersion": "3.4.9",
  "updatedAt": "2022-10-07T04:44:55.767Z",
  "networkType": "ethereum",
  "devdoc": {
    "kind": "dev",
    "methods": {
      "owner()": {
        "details": "Returns the address of the current owner."
      },
      "renounceOwnership()": {
        "details": "Leaves the contract without owner. It will not be possible to call `onlyOwner` functions anymore. Can only be called by the current owner. NOTE: Renouncing ownership will leave the contract without an owner, thereby removing any functionality that is only available to the owner."
      },
      "transferOwnership(address)": {
        "details": "Transfers ownership of the contract to a new account (`newOwner`). Can only be called by the current owner."
      }
    },
    "version": 1
  },
  "userdoc": {
    "kind": "user",
    "methods": {},
    "version": 1
  }
}