{
  "contractName": "NftMarketplace",
  "abi": [
    {
      "inputs": [
        {
          "internalType": "uint256",
          "name": "listingId",
          "type": "uint256"
        }
      ],
      "name": "NotListedERC1155",
      "type": "error"
    },
    {
      "inputs": [
        {
          "internalType": "address",
          "name": "tokenAddress",
          "type": "address"
        }
      ],
      "name": "NotListedERC20",
      "type": "error"
    },
    {
      "inputs": [
        {
          "internalType": "uint256",
          "name": "itemCount",
          "type": "uint256"
        }
      ],
      "name": "NotListedERC721",
      "type": "error"
    },
    {
      "inputs": [],
      "name": "NotOwner",
      "type": "error"
    },
    {
      "anonymous": false,
      "inputs": [
        {
          "indexed": false,
          "internalType": "address",
          "name": "nftAddress",
          "type": "address"
        },
        {
          "indexed": false,
          "internalType": "address",
          "name": "seller",
          "type": "address"
        },
        {
          "indexed": false,
          "internalType": "uint256",
          "name": "tokenId",
          "type": "uint256"
        },
        {
          "indexed": false,
          "internalType": "uint256",
          "name": "amount",
          "type": "uint256"
        },
        {
          "indexed": false,
          "internalType": "uint256",
          "name": "price",
          "type": "uint256"
        }
      ],
      "name": "ERC1155Listed",
      "type": "event"
    },
    {
      "anonymous": false,
      "inputs": [
        {
          "indexed": true,
          "internalType": "address",
          "name": "nftAddress",
          "type": "address"
        },
        {
          "indexed": false,
          "internalType": "address",
          "name": "seller",
          "type": "address"
        },
        {
          "indexed": true,
          "internalType": "address",
          "name": "buyer",
          "type": "address"
        },
        {
          "indexed": false,
          "internalType": "uint256",
          "name": "tokenId",
          "type": "uint256"
        },
        {
          "indexed": false,
          "internalType": "uint256",
          "name": "amount",
          "type": "uint256"
        },
        {
          "indexed": false,
          "internalType": "uint256",
          "name": "price",
          "type": "uint256"
        }
      ],
      "name": "ERC1155Sold",
      "type": "event"
    },
    {
      "anonymous": false,
      "inputs": [
        {
          "indexed": false,
          "internalType": "address",
          "name": "tokenAddress",
          "type": "address"
        },
        {
          "indexed": false,
          "internalType": "address",
          "name": "seller",
          "type": "address"
        },
        {
          "indexed": false,
          "internalType": "uint256",
          "name": "price",
          "type": "uint256"
        },
        {
          "indexed": false,
          "internalType": "uint256",
          "name": "amount",
          "type": "uint256"
        }
      ],
      "name": "ERC20Listed",
      "type": "event"
    },
    {
      "anonymous": false,
      "inputs": [
        {
          "indexed": true,
          "internalType": "address",
          "name": "tokenAddress",
          "type": "address"
        },
        {
          "indexed": true,
          "internalType": "address",
          "name": "buyer",
          "type": "address"
        },
        {
          "indexed": false,
          "internalType": "uint256",
          "name": "amount",
          "type": "uint256"
        }
      ],
      "name": "ERC20Sold",
      "type": "event"
    },
    {
      "anonymous": false,
      "inputs": [
        {
          "indexed": false,
          "internalType": "address",
          "name": "nftAddress",
          "type": "address"
        },
        {
          "indexed": false,
          "internalType": "address",
          "name": "seller",
          "type": "address"
        },
        {
          "indexed": false,
          "internalType": "uint256",
          "name": "tokenId",
          "type": "uint256"
        },
        {
          "indexed": false,
          "internalType": "uint256",
          "name": "price",
          "type": "uint256"
        }
      ],
      "name": "ERC721Listed",
      "type": "event"
    },
    {
      "anonymous": false,
      "inputs": [
        {
          "indexed": true,
          "internalType": "address",
          "name": "nftAddress",
          "type": "address"
        },
        {
          "indexed": true,
          "internalType": "address",
          "name": "seller",
          "type": "address"
        },
        {
          "indexed": true,
          "internalType": "address",
          "name": "buyer",
          "type": "address"
        },
        {
          "indexed": false,
          "internalType": "uint256",
          "name": "tokenId",
          "type": "uint256"
        },
        {
          "indexed": false,
          "internalType": "uint256",
          "name": "price",
          "type": "uint256"
        }
      ],
      "name": "ERC721Sold",
      "type": "event"
    },
    {
      "anonymous": false,
      "inputs": [
        {
          "indexed": true,
          "internalType": "address",
          "name": "previousOwner",
          "type": "address"
        },
        {
          "indexed": true,
          "internalType": "address",
          "name": "newOwner",
          "type": "address"
        }
      ],
      "name": "OwnershipTransferred",
      "type": "event"
    },
    {
      "inputs": [
        {
          "internalType": "uint256",
          "name": "",
          "type": "uint256"
        }
      ],
      "name": "ERC1155List",
      "outputs": [
        {
          "internalType": "uint256",
          "name": "itemId",
          "type": "uint256"
        },
        {
          "internalType": "address",
          "name": "nftAddress",
          "type": "address"
        },
        {
          "internalType": "address",
          "name": "seller",
          "type": "address"
        },
        {
          "internalType": "uint256",
          "name": "tokenId",
          "type": "uint256"
        },
        {
          "internalType": "uint256",
          "name": "amount",
          "type": "uint256"
        },
        {
          "internalType": "uint256",
          "name": "price",
          "type": "uint256"
        },
        {
          "internalType": "uint256",
          "name": "tokenAvailable",
          "type": "uint256"
        },
        {
          "internalType": "bool",
          "name": "soldOut",
          "type": "bool"
        }
      ],
      "stateMutability": "view",
      "type": "function",
      "constant": true
    },
    {
      "inputs": [
        {
          "internalType": "uint256",
          "name": "",
          "type": "uint256"
        }
      ],
      "name": "ERC20List",
      "outputs": [
        {
          "internalType": "uint256",
          "name": "itemId",
          "type": "uint256"
        },
        {
          "internalType": "address",
          "name": "tokenAddress",
          "type": "address"
        },
        {
          "internalType": "uint256",
          "name": "price",
          "type": "uint256"
        },
        {
          "internalType": "address",
          "name": "seller",
          "type": "address"
        },
        {
          "internalType": "uint256",
          "name": "amount",
          "type": "uint256"
        }
      ],
      "stateMutability": "view",
      "type": "function",
      "constant": true
    },
    {
      "inputs": [],
      "name": "ERC721Count",
      "outputs": [
        {
          "internalType": "uint256",
          "name": "",
          "type": "uint256"
        }
      ],
      "stateMutability": "view",
      "type": "function",
      "constant": true
    },
    {
      "inputs": [
        {
          "internalType": "uint256",
          "name": "",
          "type": "uint256"
        }
      ],
      "name": "ERC721List",
      "outputs": [
        {
          "internalType": "uint256",
          "name": "itemId",
          "type": "uint256"
        },
        {
          "internalType": "address",
          "name": "nftAddress",
          "type": "address"
        },
        {
          "internalType": "uint256",
          "name": "tokenId",
          "type": "uint256"
        },
        {
          "internalType": "uint256",
          "name": "price",
          "type": "uint256"
        },
        {
          "internalType": "address",
          "name": "seller",
          "type": "address"
        }
      ],
      "stateMutability": "view",
      "type": "function",
      "constant": true
    },
    {
      "inputs": [],
      "name": "_listingERC20",
      "outputs": [
        {
          "internalType": "uint256",
          "name": "_value",
          "type": "uint256"
        }
      ],
      "stateMutability": "view",
      "type": "function",
      "constant": true
    },
    {
      "inputs": [],
      "name": "_listingIds",
      "outputs": [
        {
          "internalType": "uint256",
          "name": "_value",
          "type": "uint256"
        }
      ],
      "stateMutability": "view",
      "type": "function",
      "constant": true
    },
    {
      "inputs": [],
      "name": "owner",
      "outputs": [
        {
          "internalType": "address",
          "name": "",
          "type": "address"
        }
      ],
      "stateMutability": "view",
      "type": "function",
      "constant": true
    },
    {
      "inputs": [],
      "name": "renounceOwnership",
      "outputs": [],
      "stateMutability": "nonpayable",
      "type": "function"
    },
    {
      "inputs": [],
      "name": "tokenERC20Listing",
      "outputs": [
        {
          "internalType": "uint256",
          "name": "",
          "type": "uint256"
        }
      ],
      "stateMutability": "view",
      "type": "function",
      "constant": true
    },
    {
      "inputs": [],
      "name": "tokenERC20Sold",
      "outputs": [
        {
          "internalType": "uint256",
          "name": "",
          "type": "uint256"
        }
      ],
      "stateMutability": "view",
      "type": "function",
      "constant": true
    },
    {
      "inputs": [
        {
          "internalType": "address",
          "name": "newOwner",
          "type": "address"
        }
      ],
      "name": "transferOwnership",
      "outputs": [],
      "stateMutability": "nonpayable",
      "type": "function"
    },
    {
      "inputs": [
        {
          "internalType": "address",
          "name": "nftAddress",
          "type": "address"
        },
        {
          "internalType": "uint256",
          "name": "tokenId",
          "type": "uint256"
        },
        {
          "internalType": "uint256",
          "name": "price",
          "type": "uint256"
        }
      ],
      "name": "listItemERC721",
      "outputs": [],
      "stateMutability": "nonpayable",
      "type": "function"
    },
    {
      "inputs": [
        {
          "internalType": "address",
          "name": "nftAddress",
          "type": "address"
        },
        {
          "internalType": "uint256",
          "name": "tokenId",
          "type": "uint256"
        },
        {
          "internalType": "uint256",
          "name": "amount",
          "type": "uint256"
        },
        {
          "internalType": "uint256",
          "name": "price",
          "type": "uint256"
        }
      ],
      "name": "listItemERC1155",
      "outputs": [],
      "stateMutability": "nonpayable",
      "type": "function"
    },
    {
      "inputs": [
        {
          "internalType": "address",
          "name": "tokenAddress",
          "type": "address"
        },
        {
          "internalType": "uint256",
          "name": "amount",
          "type": "uint256"
        },
        {
          "internalType": "uint256",
          "name": "price",
          "type": "uint256"
        }
      ],
      "name": "listItemERC20",
      "outputs": [],
      "stateMutability": "nonpayable",
      "type": "function"
    },
    {
      "inputs": [
        {
          "internalType": "uint256",
          "name": "itemCount",
          "type": "uint256"
        }
      ],
      "name": "buyItemERC721",
      "outputs": [],
      "stateMutability": "payable",
      "type": "function",
      "payable": true
    },
    {
      "inputs": [
        {
          "internalType": "uint256",
          "name": "listingId",
          "type": "uint256"
        },
        {
          "internalType": "uint256",
          "name": "amount",
          "type": "uint256"
        }
      ],
      "name": "buyItemERC1155",
      "outputs": [],
      "stateMutability": "payable",
      "type": "function",
      "payable": true
    },
    {
      "inputs": [
        {
          "internalType": "uint256",
          "name": "listingERC20",
          "type": "uint256"
        },
        {
          "internalType": "uint256",
          "name": "amount",
          "type": "uint256"
        }
      ],
      "name": "buyItemERC20",
      "outputs": [],
      "stateMutability": "payable",
      "type": "function",
      "payable": true
    },
    {
      "inputs": [
        {
          "internalType": "uint256",
          "name": "itemCount",
          "type": "uint256"
        },
        {
          "internalType": "uint256",
          "name": "newPrice",
          "type": "uint256"
        }
      ],
      "name": "updateListingERC721",
      "outputs": [],
      "stateMutability": "nonpayable",
      "type": "function"
    },
    {
      "inputs": [
        {
          "internalType": "uint256",
          "name": "listingId",
          "type": "uint256"
        },
        {
          "internalType": "uint256",
          "name": "newPrice",
          "type": "uint256"
        },
        {
          "internalType": "uint256",
          "name": "newAmount",
          "type": "uint256"
        }
      ],
      "name": "updateListingERC1155",
      "outputs": [],
      "stateMutability": "nonpayable",
      "type": "function"
    },
    {
      "inputs": [
        {
          "internalType": "uint256",
          "name": "listingERC20",
          "type": "uint256"
        },
        {
          "internalType": "uint256",
          "name": "newPrice",
          "type": "uint256"
        },
        {
          "internalType": "uint256",
          "name": "newAmount",
          "type": "uint256"
        }
      ],
      "name": "updateListingERC20",
      "outputs": [],
      "stateMutability": "nonpayable",
      "type": "function"
    },
    {
      "inputs": [
        {
          "internalType": "uint256",
          "name": "itemCount",
          "type": "uint256"
        }
      ],
      "name": "getListingERC721",
      "outputs": [
        {
          "components": [
            {
              "internalType": "uint256",
              "name": "itemId",
              "type": "uint256"
            },
            {
              "internalType": "address",
              "name": "nftAddress",
              "type": "address"
            },
            {
              "internalType": "uint256",
              "name": "tokenId",
              "type": "uint256"
            },
            {
              "internalType": "uint256",
              "name": "price",
              "type": "uint256"
            },
            {
              "internalType": "address",
              "name": "seller",
              "type": "address"
            }
          ],
          "internalType": "struct NftMarketplace.ListingERC721",
          "name": "",
          "type": "tuple"
        }
      ],
      "stateMutability": "view",
      "type": "function",
      "constant": true
    },
    {
      "inputs": [
        {
          "internalType": "uint256",
          "name": "listingId",
          "type": "uint256"
        }
      ],
      "name": "getListingERC1155",
      "outputs": [
        {
          "components": [
            {
              "internalType": "uint256",
              "name": "itemId",
              "type": "uint256"
            },
            {
              "internalType": "address",
              "name": "nftAddress",
              "type": "address"
            },
            {
              "internalType": "address",
              "name": "seller",
              "type": "address"
            },
            {
              "internalType": "uint256",
              "name": "tokenId",
              "type": "uint256"
            },
            {
              "internalType": "uint256",
              "name": "amount",
              "type": "uint256"
            },
            {
              "internalType": "uint256",
              "name": "price",
              "type": "uint256"
            },
            {
              "internalType": "uint256",
              "name": "tokenAvailable",
              "type": "uint256"
            },
            {
              "internalType": "bool",
              "name": "soldOut",
              "type": "bool"
            }
          ],
          "internalType": "struct NftMarketplace.ListingERC1155",
          "name": "",
          "type": "tuple"
        }
      ],
      "stateMutability": "view",
      "type": "function",
      "constant": true
    },
    {
      "inputs": [
        {
          "internalType": "uint256",
          "name": "listingERC20",
          "type": "uint256"
        }
      ],
      "name": "getListingERC20",
      "outputs": [
        {
          "components": [
            {
              "internalType": "uint256",
              "name": "itemId",
              "type": "uint256"
            },
            {
              "internalType": "address",
              "name": "tokenAddress",
              "type": "address"
            },
            {
              "internalType": "uint256",
              "name": "price",
              "type": "uint256"
            },
            {
              "internalType": "address",
              "name": "seller",
              "type": "address"
            },
            {
              "internalType": "uint256",
              "name": "amount",
              "type": "uint256"
            }
          ],
          "internalType": "struct NftMarketplace.ListingERC20",
          "name": "",
          "type": "tuple"
        }
      ],
      "stateMutability": "view",
      "type": "function",
      "constant": true
    },
    {
      "inputs": [
        {
          "internalType": "uint256",
          "name": "itemCount",
          "type": "uint256"
        }
      ],
      "name": "cancelListingERC721",
      "outputs": [],
      "stateMutability": "nonpayable",
      "type": "function"
    },
    {
      "inputs": [
        {
          "internalType": "uint256",
          "name": "listingId",
          "type": "uint256"
        },
        {
          "internalType": "address",
          "name": "nftAddress",
          "type": "address"
        },
        {
          "internalType": "uint256",
          "name": "tokenId",
          "type": "uint256"
        }
      ],
      "name": "cancelListingERC1155",
      "outputs": [],
      "stateMutability": "nonpayable",
      "type": "function"
    },
    {
      "inputs": [
        {
          "internalType": "uint256",
          "name": "listingERC20",
          "type": "uint256"
        }
      ],
      "name": "cancelListingERC20",
      "outputs": [],
      "stateMutability": "nonpayable",
      "type": "function"
    },
    {
      "inputs": [],
      "name": "withdrawProceeds",
      "outputs": [],
      "stateMutability": "nonpayable",
      "type": "function"
    }
  ],
  "bytecode": "0x60806040523480156200001157600080fd5b5062000032620000266200003860201b60201c565b6200004060201b60201c565b62000104565b600033905090565b60008060009054906101000a900473ffffffffffffffffffffffffffffffffffffffff169050816000806101000a81548173ffffffffffffffffffffffffffffffffffffffff021916908373ffffffffffffffffffffffffffffffffffffffff1602179055508173ffffffffffffffffffffffffffffffffffffffff168173ffffffffffffffffffffffffffffffffffffffff167f8be0079c531659141344cd1fd0a4f28419497f9722a3daafe3b4186f6b6457e060405160405180910390a35050565b6141f680620001146000396000f3fe60806040526004361061019c5760003560e01c8063a35d5e6e116100ec578063cf4a0a101161008a578063ec17825c11610064578063ec17825c14610584578063ed546050146105ad578063f123435b146105d6578063f2fde38b146106135761019c565b8063cf4a0a10146104dd578063d6cbaace1461051a578063d87d7c33146105435761019c565b8063aa412ef5116100c6578063aa412ef514610406578063bc6e56981461042f578063c9a9c2ab14610473578063cdd6ebea146104b45761019c565b8063a35d5e6e14610396578063a4877b85146103c1578063a62b5b9f146103ea5761019c565b8063715018a6116101595780639038e693116101335780639038e693146102ec57806395764538146103035780639c4b15a51461032e578063a2028931146103595761019c565b8063715018a61461028157806383fd0768146102985780638da5cb5b146102c15761019c565b80630372009a146101a157806305b826a8146101bd5780630f6f0a00146101e857806319c62aab1461020457806330e07ee01461022f57806346e62b2e14610258575b600080fd5b6101bb60048036038101906101b69190613179565b61063c565b005b3480156101c957600080fd5b506101d2610c37565b6040516101df91906131c8565b60405180910390f35b61020260048036038101906101fd91906131e3565b610c43565b005b34801561021057600080fd5b5061021961115e565b60405161022691906131c8565b60405180910390f35b34801561023b57600080fd5b506102566004803603810190610251919061326e565b611164565b005b34801561026457600080fd5b5061027f600480360381019061027a91906132c1565b6112f5565b005b34801561028d57600080fd5b506102966114b8565b005b3480156102a457600080fd5b506102bf60048036038101906102ba919061326e565b6114cc565b005b3480156102cd57600080fd5b506102d6611688565b6040516102e39190613337565b60405180910390f35b3480156102f857600080fd5b506103016116b1565b005b34801561030f57600080fd5b5061031861182d565b60405161032591906131c8565b60405180910390f35b34801561033a57600080fd5b50610343611833565b60405161035091906131c8565b60405180910390f35b34801561036557600080fd5b50610380600480360381019061037b91906131e3565b61183f565b60405161038d91906133d8565b60405180910390f35b3480156103a257600080fd5b506103ab611936565b6040516103b891906131c8565b60405180910390f35b3480156103cd57600080fd5b506103e860048036038101906103e391906131e3565b61193c565b005b61040460048036038101906103ff9190613179565b611be0565b005b34801561041257600080fd5b5061042d600480360381019061042891906131e3565b611eaf565b005b34801561043b57600080fd5b50610456600480360381019061045191906131e3565b61210b565b60405161046a98979695949392919061340e565b60405180910390f35b34801561047f57600080fd5b5061049a600480360381019061049591906131e3565b6121a0565b6040516104ab95949392919061348c565b60405180910390f35b3480156104c057600080fd5b506104db60048036038101906104d691906134df565b612216565b005b3480156104e957600080fd5b5061050460048036038101906104ff91906131e3565b612476565b604051610511919061359a565b60405180910390f35b34801561052657600080fd5b50610541600480360381019061053c91906135b5565b61256d565b005b34801561054f57600080fd5b5061056a600480360381019061056591906131e3565b612831565b60405161057b959493929190613608565b60405180910390f35b34801561059057600080fd5b506105ab60048036038101906105a69190613179565b6128a7565b005b3480156105b957600080fd5b506105d460048036038101906105cf91906134df565b612aa3565b005b3480156105e257600080fd5b506105fd60048036038101906105f891906131e3565b612cfd565b60405161060a919061370c565b60405180910390f35b34801561061f57600080fd5b5061063a60048036038101906106359190613728565b612e24565b005b60006006600084815260200190815260200160002060010160009054906101000a900473ffffffffffffffffffffffffffffffffffffffff1690506000670de0b6b3a76400008361068d91906137b3565b90506006600085815260200190815260200160002060020160009054906101000a900473ffffffffffffffffffffffffffffffffffffffff1673ffffffffffffffffffffffffffffffffffffffff163373ffffffffffffffffffffffffffffffffffffffff1603610733576040517f08c379a000000000000000000000000000000000000000000000000000000000815260040161072a90613841565b60405180910390fd5b6006600085815260200190815260200160002060050154816107559190613861565b341015610797576040517f08c379a000000000000000000000000000000000000000000000000000000000815260040161078e9061392d565b60405180910390fd5b828273ffffffffffffffffffffffffffffffffffffffff1662fdd58e6006600088815260200190815260200160002060020160009054906101000a900473ffffffffffffffffffffffffffffffffffffffff1660066000898152602001908152602001600020600301546040518363ffffffff1660e01b815260040161081e92919061394d565b602060405180830381865afa15801561083b573d6000803e3d6000fd5b505050506040513d601f19601f8201168201806040525081019061085f919061398b565b10156108a0576040517f08c379a000000000000000000000000000000000000000000000000000000000815260040161089790613a04565b60405180910390fd5b600015156006600086815260200190815260200160002060070160009054906101000a900460ff1615151461090a576040517f08c379a000000000000000000000000000000000000000000000000000000000815260040161090190613a70565b60405180910390fd5b8260066000868152602001908152602001600020600601541015610963576040517f08c379a000000000000000000000000000000000000000000000000000000000815260040161095a90613adc565b60405180910390fd5b826006600086815260200190815260200160002060060160008282546109899190613afc565b9250508190555060006006600086815260200190815260200160002060060154036109de5760016006600086815260200190815260200160002060070160006101000a81548160ff0219169083151502179055505b3373ffffffffffffffffffffffffffffffffffffffff166006600086815260200190815260200160002060010160009054906101000a900473ffffffffffffffffffffffffffffffffffffffff1673ffffffffffffffffffffffffffffffffffffffff167f345b3d35855ef39f48904207a91972d8ebc2da5a5e4f13306d74fa501196a5616006600088815260200190815260200160002060020160009054906101000a900473ffffffffffffffffffffffffffffffffffffffff16600660008981526020019081526020016000206003015487600660008b815260200190815260200160002060050154604051610ad99493929190613b30565b60405180910390a38173ffffffffffffffffffffffffffffffffffffffff1663f242432a6006600087815260200190815260200160002060020160009054906101000a900473ffffffffffffffffffffffffffffffffffffffff16336006600089815260200190815260200160002060030154876040518563ffffffff1660e01b8152600401610b6c9493929190613bac565b600060405180830381600087803b158015610b8657600080fd5b505af1158015610b9a573d6000803e3d6000fd5b505050506006600085815260200190815260200160002060020160009054906101000a900473ffffffffffffffffffffffffffffffffffffffff1673ffffffffffffffffffffffffffffffffffffffff166108fc60066000878152602001908152602001600020600501549081150290604051600060405180830381858888f19350505050158015610c30573d6000803e3d6000fd5b5050505050565b60018060000154905081565b806000600760008381526020019081526020016000206040518060a0016040529081600082015481526020016001820160009054906101000a900473ffffffffffffffffffffffffffffffffffffffff1673ffffffffffffffffffffffffffffffffffffffff1673ffffffffffffffffffffffffffffffffffffffff16815260200160028201548152602001600382015481526020016004820160009054906101000a900473ffffffffffffffffffffffffffffffffffffffff1673ffffffffffffffffffffffffffffffffffffffff1673ffffffffffffffffffffffffffffffffffffffff168152505090506000816060015111610d7957816040517fcd2ab003000000000000000000000000000000000000000000000000000000008152600401610d7091906131c8565b60405180910390fd5b6000600760008581526020019081526020016000206040518060a0016040529081600082015481526020016001820160009054906101000a900473ffffffffffffffffffffffffffffffffffffffff1673ffffffffffffffffffffffffffffffffffffffff1673ffffffffffffffffffffffffffffffffffffffff16815260200160028201548152602001600382015481526020016004820160009054906101000a900473ffffffffffffffffffffffffffffffffffffffff1673ffffffffffffffffffffffffffffffffffffffff1673ffffffffffffffffffffffffffffffffffffffff16815250509050600354841115610eaa576040517f08c379a0000000000000000000000000000000000000000000000000000000008152600401610ea190613c50565b60405180910390fd5b8060600151341015610ef1576040517f08c379a0000000000000000000000000000000000000000000000000000000008152600401610ee890613ce2565b60405180910390fd5b3460096000836080015173ffffffffffffffffffffffffffffffffffffffff1673ffffffffffffffffffffffffffffffffffffffff1681526020019081526020016000206000828254610f449190613d02565b925050819055503373ffffffffffffffffffffffffffffffffffffffff166007600086815260200190815260200160002060040160009054906101000a900473ffffffffffffffffffffffffffffffffffffffff1673ffffffffffffffffffffffffffffffffffffffff166007600087815260200190815260200160002060010160009054906101000a900473ffffffffffffffffffffffffffffffffffffffff1673ffffffffffffffffffffffffffffffffffffffff167fb49ef2f21fa0f81845c5a2812ba538af22bdbb889060303ba3856c7958095da36007600089815260200190815260200160002060020154600760008a815260200190815260200160002060030154604051611059929190613d36565b60405180910390a4600760008581526020019081526020016000206000808201600090556001820160006101000a81549073ffffffffffffffffffffffffffffffffffffffff0219169055600282016000905560038201600090556004820160006101000a81549073ffffffffffffffffffffffffffffffffffffffff02191690555050806020015173ffffffffffffffffffffffffffffffffffffffff166342842e0e82608001513384604001516040518463ffffffff1660e01b815260040161112693929190613d5f565b600060405180830381600087803b15801561114057600080fd5b505af1158015611154573d6000803e3d6000fd5b5050505050505050565b60045481565b60008390506111736002612ea7565b600061117f6002612ebd565b905083600560008282546111939190613d02565b925050819055506040518060a001604052808281526020018673ffffffffffffffffffffffffffffffffffffffff1681526020018481526020013373ffffffffffffffffffffffffffffffffffffffff16815260200185815250600860008381526020019081526020016000206000820151816000015560208201518160010160006101000a81548173ffffffffffffffffffffffffffffffffffffffff021916908373ffffffffffffffffffffffffffffffffffffffff1602179055506040820151816002015560608201518160030160006101000a81548173ffffffffffffffffffffffffffffffffffffffff021916908373ffffffffffffffffffffffffffffffffffffffff160217905550608082015181600401559050507f5aa43ce7cbd26ef8feed7d56eb866a21d4d2cb0347115061c0b7d077bd848c3b8533856005546040516112e69493929190613d96565b60405180910390a15050505050565b60008490506113046001612ea7565b60006113106001612ebd565b90506040518061010001604052808281526020018773ffffffffffffffffffffffffffffffffffffffff1681526020013373ffffffffffffffffffffffffffffffffffffffff16815260200186815260200185815260200184815260200185815260200160001515815250600660008381526020019081526020016000206000820151816000015560208201518160010160006101000a81548173ffffffffffffffffffffffffffffffffffffffff021916908373ffffffffffffffffffffffffffffffffffffffff16021790555060408201518160020160006101000a81548173ffffffffffffffffffffffffffffffffffffffff021916908373ffffffffffffffffffffffffffffffffffffffff160217905550606082015181600301556080820151816004015560a0820151816005015560c0820151816006015560e08201518160070160006101000a81548160ff0219169083151502179055509050507f40e27a29cfb083bd6a82129fbf1d357b24296fffde131e0389d5960e417b84e586338787876040516114a8959493929190613ddb565b60405180910390a1505050505050565b6114c0612ecb565b6114ca6000612f49565b565b6000811161150f576040517f08c379a000000000000000000000000000000000000000000000000000000000815260040161150690613e7a565b60405180910390fd5b60008390506003600081548092919061152790613e9a565b91905055506040518060a0016040528060035481526020018573ffffffffffffffffffffffffffffffffffffffff1681526020018481526020018381526020013373ffffffffffffffffffffffffffffffffffffffff168152506007600060035481526020019081526020016000206000820151816000015560208201518160010160006101000a81548173ffffffffffffffffffffffffffffffffffffffff021916908373ffffffffffffffffffffffffffffffffffffffff160217905550604082015181600201556060820151816003015560808201518160040160006101000a81548173ffffffffffffffffffffffffffffffffffffffff021916908373ffffffffffffffffffffffffffffffffffffffff1602179055509050507f120930e4569ba9ce161cf9bdc7acf4e40bdfb26008053dad189ad1e8fc1dfbbc8433858560405161167a9493929190613d96565b60405180910390a150505050565b60008060009054906101000a900473ffffffffffffffffffffffffffffffffffffffff16905090565b6000600960003373ffffffffffffffffffffffffffffffffffffffff1673ffffffffffffffffffffffffffffffffffffffff16815260200190815260200160002054905060008111611738576040517f08c379a000000000000000000000000000000000000000000000000000000000815260040161172f90613f2e565b60405180910390fd5b6000600960003373ffffffffffffffffffffffffffffffffffffffff1673ffffffffffffffffffffffffffffffffffffffff1681526020019081526020016000208190555060003373ffffffffffffffffffffffffffffffffffffffff16826040516117a390613f7c565b60006040518083038185875af1925050503d80600081146117e0576040519150601f19603f3d011682016040523d82523d6000602084013e6117e5565b606091505b5050905080611829576040517f08c379a000000000000000000000000000000000000000000000000000000000815260040161182090613fdd565b60405180910390fd5b5050565b60055481565b60028060000154905081565b611847613015565b600860008381526020019081526020016000206040518060a0016040529081600082015481526020016001820160009054906101000a900473ffffffffffffffffffffffffffffffffffffffff1673ffffffffffffffffffffffffffffffffffffffff1673ffffffffffffffffffffffffffffffffffffffff168152602001600282015481526020016003820160009054906101000a900473ffffffffffffffffffffffffffffffffffffffff1673ffffffffffffffffffffffffffffffffffffffff1673ffffffffffffffffffffffffffffffffffffffff1681526020016004820154815250509050919050565b60035481565b803360006008600084815260200190815260200160002060030160009054906101000a900473ffffffffffffffffffffffffffffffffffffffff1690508073ffffffffffffffffffffffffffffffffffffffff168273ffffffffffffffffffffffffffffffffffffffff16146119de576040517f30cd747100000000000000000000000000000000000000000000000000000000815260040160405180910390fd5b836000600860008381526020019081526020016000206040518060a0016040529081600082015481526020016001820160009054906101000a900473ffffffffffffffffffffffffffffffffffffffff1673ffffffffffffffffffffffffffffffffffffffff1673ffffffffffffffffffffffffffffffffffffffff168152602001600282015481526020016003820160009054906101000a900473ffffffffffffffffffffffffffffffffffffffff1673ffffffffffffffffffffffffffffffffffffffff1673ffffffffffffffffffffffffffffffffffffffff168152602001600482015481525050905060008160400151111580611ae457506000816080015111155b15611b5c576008600083815260200190815260200160002060010160009054906101000a900473ffffffffffffffffffffffffffffffffffffffff166040517ff284c5b0000000000000000000000000000000000000000000000000000000008152600401611b539190613337565b60405180910390fd5b600860008781526020019081526020016000206000808201600090556001820160006101000a81549073ffffffffffffffffffffffffffffffffffffffff021916905560028201600090556003820160006101000a81549073ffffffffffffffffffffffffffffffffffffffff021916905560048201600090555050505050505050565b60006008600084815260200190815260200160002060010160009054906101000a900473ffffffffffffffffffffffffffffffffffffffff1690506000670de0b6b3a764000083611c3191906137b3565b9050600860008581526020019081526020016000206002015481611c559190613861565b341015611c97576040517f08c379a0000000000000000000000000000000000000000000000000000000008152600401611c8e90614049565b60405180910390fd5b82600860008681526020019081526020016000206004016000828254611cbd9190613afc565b925050819055508173ffffffffffffffffffffffffffffffffffffffff166323b872dd6008600087815260200190815260200160002060030160009054906101000a900473ffffffffffffffffffffffffffffffffffffffff1633866040518463ffffffff1660e01b8152600401611d3793929190613d5f565b6020604051808303816000875af1158015611d56573d6000803e3d6000fd5b505050506040513d601f19601f82011682018060405250810190611d7a9190614095565b506008600085815260200190815260200160002060030160009054906101000a900473ffffffffffffffffffffffffffffffffffffffff1673ffffffffffffffffffffffffffffffffffffffff166108fc60086000878152602001908152602001600020600201549081150290604051600060405180830381858888f19350505050158015611e0d573d6000803e3d6000fd5b503373ffffffffffffffffffffffffffffffffffffffff166008600086815260200190815260200160002060010160009054906101000a900473ffffffffffffffffffffffffffffffffffffffff1673ffffffffffffffffffffffffffffffffffffffff167f5eff0f847c1aed55aad7d8f167cdcafe007e3e7a1302c70edd1c86e569820a3b85604051611ea191906131c8565b60405180910390a350505050565b803360006007600084815260200190815260200160002060040160009054906101000a900473ffffffffffffffffffffffffffffffffffffffff1690508073ffffffffffffffffffffffffffffffffffffffff168273ffffffffffffffffffffffffffffffffffffffff1614611f51576040517f30cd747100000000000000000000000000000000000000000000000000000000815260040160405180910390fd5b836000600760008381526020019081526020016000206040518060a0016040529081600082015481526020016001820160009054906101000a900473ffffffffffffffffffffffffffffffffffffffff1673ffffffffffffffffffffffffffffffffffffffff1673ffffffffffffffffffffffffffffffffffffffff16815260200160028201548152602001600382015481526020016004820160009054906101000a900473ffffffffffffffffffffffffffffffffffffffff1673ffffffffffffffffffffffffffffffffffffffff1673ffffffffffffffffffffffffffffffffffffffff16815250509050600081606001511161208757816040517fcd2ab00300000000000000000000000000000000000000000000000000000000815260040161207e91906131c8565b60405180910390fd5b600760008781526020019081526020016000206000808201600090556001820160006101000a81549073ffffffffffffffffffffffffffffffffffffffff0219169055600282016000905560038201600090556004820160006101000a81549073ffffffffffffffffffffffffffffffffffffffff02191690555050505050505050565b60066020528060005260406000206000915090508060000154908060010160009054906101000a900473ffffffffffffffffffffffffffffffffffffffff16908060020160009054906101000a900473ffffffffffffffffffffffffffffffffffffffff16908060030154908060040154908060050154908060060154908060070160009054906101000a900460ff16905088565b60086020528060005260406000206000915090508060000154908060010160009054906101000a900473ffffffffffffffffffffffffffffffffffffffff16908060020154908060030160009054906101000a900473ffffffffffffffffffffffffffffffffffffffff16908060040154905085565b826000600860008381526020019081526020016000206040518060a0016040529081600082015481526020016001820160009054906101000a900473ffffffffffffffffffffffffffffffffffffffff1673ffffffffffffffffffffffffffffffffffffffff1673ffffffffffffffffffffffffffffffffffffffff168152602001600282015481526020016003820160009054906101000a900473ffffffffffffffffffffffffffffffffffffffff1673ffffffffffffffffffffffffffffffffffffffff1673ffffffffffffffffffffffffffffffffffffffff16815260200160048201548152505090506000816040015111158061231c57506000816080015111155b15612394576008600083815260200190815260200160002060010160009054906101000a900473ffffffffffffffffffffffffffffffffffffffff166040517ff284c5b000000000000000000000000000000000000000000000000000000000815260040161238b9190613337565b60405180910390fd5b843360006008600084815260200190815260200160002060030160009054906101000a900473ffffffffffffffffffffffffffffffffffffffff1690508073ffffffffffffffffffffffffffffffffffffffff168273ffffffffffffffffffffffffffffffffffffffff1614612436576040517f30cd747100000000000000000000000000000000000000000000000000000000815260040160405180910390fd5b86600860008a81526020019081526020016000206002018190555085600860008a8152602001908152602001600020600401819055505050505050505050565b61247e613070565b600760008381526020019081526020016000206040518060a0016040529081600082015481526020016001820160009054906101000a900473ffffffffffffffffffffffffffffffffffffffff1673ffffffffffffffffffffffffffffffffffffffff1673ffffffffffffffffffffffffffffffffffffffff16815260200160028201548152602001600382015481526020016004820160009054906101000a900473ffffffffffffffffffffffffffffffffffffffff1673ffffffffffffffffffffffffffffffffffffffff1673ffffffffffffffffffffffffffffffffffffffff16815250509050919050565b823360006006600084815260200190815260200160002060020160009054906101000a900473ffffffffffffffffffffffffffffffffffffffff1690508073ffffffffffffffffffffffffffffffffffffffff168273ffffffffffffffffffffffffffffffffffffffff161461260f576040517f30cd747100000000000000000000000000000000000000000000000000000000815260040160405180910390fd5b8560006006600083815260200190815260200160002060405180610100016040529081600082015481526020016001820160009054906101000a900473ffffffffffffffffffffffffffffffffffffffff1673ffffffffffffffffffffffffffffffffffffffff1673ffffffffffffffffffffffffffffffffffffffff1681526020016002820160009054906101000a900473ffffffffffffffffffffffffffffffffffffffff1673ffffffffffffffffffffffffffffffffffffffff1673ffffffffffffffffffffffffffffffffffffffff168152602001600382015481526020016004820154815260200160058201548152602001600682015481526020016007820160009054906101000a900460ff161515151581525050905060008160a0015111158061274557506000816080015111155b1561278757816040517fa09e71c600000000000000000000000000000000000000000000000000000000815260040161277e91906131c8565b60405180910390fd5b600660008981526020019081526020016000206000808201600090556001820160006101000a81549073ffffffffffffffffffffffffffffffffffffffff02191690556002820160006101000a81549073ffffffffffffffffffffffffffffffffffffffff021916905560038201600090556004820160009055600582016000905560068201600090556007820160006101000a81549060ff021916905550505050505050505050565b60076020528060005260406000206000915090508060000154908060010160009054906101000a900473ffffffffffffffffffffffffffffffffffffffff16908060020154908060030154908060040160009054906101000a900473ffffffffffffffffffffffffffffffffffffffff16905085565b813360006007600084815260200190815260200160002060040160009054906101000a900473ffffffffffffffffffffffffffffffffffffffff1690508073ffffffffffffffffffffffffffffffffffffffff168273ffffffffffffffffffffffffffffffffffffffff1614612949576040517f30cd747100000000000000000000000000000000000000000000000000000000815260040160405180910390fd5b846000600760008381526020019081526020016000206040518060a0016040529081600082015481526020016001820160009054906101000a900473ffffffffffffffffffffffffffffffffffffffff1673ffffffffffffffffffffffffffffffffffffffff1673ffffffffffffffffffffffffffffffffffffffff16815260200160028201548152602001600382015481526020016004820160009054906101000a900473ffffffffffffffffffffffffffffffffffffffff1673ffffffffffffffffffffffffffffffffffffffff1673ffffffffffffffffffffffffffffffffffffffff168152505090506000816060015111612a7f57816040517fcd2ab003000000000000000000000000000000000000000000000000000000008152600401612a7691906131c8565b60405180910390fd5b85600760008981526020019081526020016000206003018190555050505050505050565b823360006006600084815260200190815260200160002060020160009054906101000a900473ffffffffffffffffffffffffffffffffffffffff1690508073ffffffffffffffffffffffffffffffffffffffff168273ffffffffffffffffffffffffffffffffffffffff1614612b45576040517f30cd747100000000000000000000000000000000000000000000000000000000815260040160405180910390fd5b8560006006600083815260200190815260200160002060405180610100016040529081600082015481526020016001820160009054906101000a900473ffffffffffffffffffffffffffffffffffffffff1673ffffffffffffffffffffffffffffffffffffffff1673ffffffffffffffffffffffffffffffffffffffff1681526020016002820160009054906101000a900473ffffffffffffffffffffffffffffffffffffffff1673ffffffffffffffffffffffffffffffffffffffff1673ffffffffffffffffffffffffffffffffffffffff168152602001600382015481526020016004820154815260200160058201548152602001600682015481526020016007820160009054906101000a900460ff161515151581525050905060008160a00151111580612c7b57506000816080015111155b15612cbd57816040517fa09e71c6000000000000000000000000000000000000000000000000000000008152600401612cb491906131c8565b60405180910390fd5b86600660008a81526020019081526020016000206005018190555085600660008a8152602001908152602001600020600401819055505050505050505050565b612d056130cb565b6006600083815260200190815260200160002060405180610100016040529081600082015481526020016001820160009054906101000a900473ffffffffffffffffffffffffffffffffffffffff1673ffffffffffffffffffffffffffffffffffffffff1673ffffffffffffffffffffffffffffffffffffffff1681526020016002820160009054906101000a900473ffffffffffffffffffffffffffffffffffffffff1673ffffffffffffffffffffffffffffffffffffffff1673ffffffffffffffffffffffffffffffffffffffff168152602001600382015481526020016004820154815260200160058201548152602001600682015481526020016007820160009054906101000a900460ff1615151515815250509050919050565b612e2c612ecb565b600073ffffffffffffffffffffffffffffffffffffffff168173ffffffffffffffffffffffffffffffffffffffff1603612e9b576040517f08c379a0000000000000000000000000000000000000000000000000000000008152600401612e9290614134565b60405180910390fd5b612ea481612f49565b50565b6001816000016000828254019250508190555050565b600081600001549050919050565b612ed361300d565b73ffffffffffffffffffffffffffffffffffffffff16612ef1611688565b73ffffffffffffffffffffffffffffffffffffffff1614612f47576040517f08c379a0000000000000000000000000000000000000000000000000000000008152600401612f3e906141a0565b60405180910390fd5b565b60008060009054906101000a900473ffffffffffffffffffffffffffffffffffffffff169050816000806101000a81548173ffffffffffffffffffffffffffffffffffffffff021916908373ffffffffffffffffffffffffffffffffffffffff1602179055508173ffffffffffffffffffffffffffffffffffffffff168173ffffffffffffffffffffffffffffffffffffffff167f8be0079c531659141344cd1fd0a4f28419497f9722a3daafe3b4186f6b6457e060405160405180910390a35050565b600033905090565b6040518060a0016040528060008152602001600073ffffffffffffffffffffffffffffffffffffffff16815260200160008152602001600073ffffffffffffffffffffffffffffffffffffffff168152602001600081525090565b6040518060a0016040528060008152602001600073ffffffffffffffffffffffffffffffffffffffff1681526020016000815260200160008152602001600073ffffffffffffffffffffffffffffffffffffffff1681525090565b60405180610100016040528060008152602001600073ffffffffffffffffffffffffffffffffffffffff168152602001600073ffffffffffffffffffffffffffffffffffffffff168152602001600081526020016000815260200160008152602001600081526020016000151581525090565b600080fd5b6000819050919050565b61315681613143565b811461316157600080fd5b50565b6000813590506131738161314d565b92915050565b600080604083850312156131905761318f61313e565b5b600061319e85828601613164565b92505060206131af85828601613164565b9150509250929050565b6131c281613143565b82525050565b60006020820190506131dd60008301846131b9565b92915050565b6000602082840312156131f9576131f861313e565b5b600061320784828501613164565b91505092915050565b600073ffffffffffffffffffffffffffffffffffffffff82169050919050565b600061323b82613210565b9050919050565b61324b81613230565b811461325657600080fd5b50565b60008135905061326881613242565b92915050565b6000806000606084860312156132875761328661313e565b5b600061329586828701613259565b93505060206132a686828701613164565b92505060406132b786828701613164565b9150509250925092565b600080600080608085870312156132db576132da61313e565b5b60006132e987828801613259565b94505060206132fa87828801613164565b935050604061330b87828801613164565b925050606061331c87828801613164565b91505092959194509250565b61333181613230565b82525050565b600060208201905061334c6000830184613328565b92915050565b61335b81613143565b82525050565b61336a81613230565b82525050565b60a0820160008201516133866000850182613352565b5060208201516133996020850182613361565b5060408201516133ac6040850182613352565b5060608201516133bf6060850182613361565b5060808201516133d26080850182613352565b50505050565b600060a0820190506133ed6000830184613370565b92915050565b60008115159050919050565b613408816133f3565b82525050565b600061010082019050613424600083018b6131b9565b613431602083018a613328565b61343e6040830189613328565b61344b60608301886131b9565b61345860808301876131b9565b61346560a08301866131b9565b61347260c08301856131b9565b61347f60e08301846133ff565b9998505050505050505050565b600060a0820190506134a160008301886131b9565b6134ae6020830187613328565b6134bb60408301866131b9565b6134c86060830185613328565b6134d560808301846131b9565b9695505050505050565b6000806000606084860312156134f8576134f761313e565b5b600061350686828701613164565b935050602061351786828701613164565b925050604061352886828701613164565b9150509250925092565b60a0820160008201516135486000850182613352565b50602082015161355b6020850182613361565b50604082015161356e6040850182613352565b5060608201516135816060850182613352565b5060808201516135946080850182613361565b50505050565b600060a0820190506135af6000830184613532565b92915050565b6000806000606084860312156135ce576135cd61313e565b5b60006135dc86828701613164565b93505060206135ed86828701613259565b92505060406135fe86828701613164565b9150509250925092565b600060a08201905061361d60008301886131b9565b61362a6020830187613328565b61363760408301866131b9565b61364460608301856131b9565b6136516080830184613328565b9695505050505050565b613664816133f3565b82525050565b610100820160008201516136816000850182613352565b5060208201516136946020850182613361565b5060408201516136a76040850182613361565b5060608201516136ba6060850182613352565b5060808201516136cd6080850182613352565b5060a08201516136e060a0850182613352565b5060c08201516136f360c0850182613352565b5060e082015161370660e085018261365b565b50505050565b600061010082019050613722600083018461366a565b92915050565b60006020828403121561373e5761373d61313e565b5b600061374c84828501613259565b91505092915050565b7f4e487b7100000000000000000000000000000000000000000000000000000000600052601260045260246000fd5b7f4e487b7100000000000000000000000000000000000000000000000000000000600052601160045260246000fd5b60006137be82613143565b91506137c983613143565b9250826137d9576137d8613755565b5b828204905092915050565b600082825260208201905092915050565b7f596f752063616e206e6f74206275792074686973206e66740000000000000000600082015250565b600061382b6018836137e4565b9150613836826137f5565b602082019050919050565b6000602082019050818103600083015261385a8161381e565b9050919050565b600061386c82613143565b915061387783613143565b9250817fffffffffffffffffffffffffffffffffffffffffffffffffffffffffffffffff04831182151516156138b0576138af613784565b5b828202905092915050565b7f596f7520646f206e6f74206861766520656e6f75676820746f6b656e20746f2060008201527f6275792074686973206e66740000000000000000000000000000000000000000602082015250565b6000613917602c836137e4565b9150613922826138bb565b604082019050919050565b600060208201905081810360008301526139468161390a565b9050919050565b60006040820190506139626000830185613328565b61396f60208301846131b9565b9392505050565b6000815190506139858161314d565b92915050565b6000602082840312156139a1576139a061313e565b5b60006139af84828501613976565b91505092915050565b7f53656c6c657220646f6573206e6f74206861766520656e6f756768206e667473600082015250565b60006139ee6020836137e4565b91506139f9826139b8565b602082019050919050565b60006020820190508181036000830152613a1d816139e1565b9050919050565b7f54686973206e667420697320736f6c64206f7574000000000000000000000000600082015250565b6000613a5a6014836137e4565b9150613a6582613a24565b602082019050919050565b60006020820190508181036000830152613a8981613a4d565b9050919050565b7f4e6f7420656e6f756768206e6674730000000000000000000000000000000000600082015250565b6000613ac6600f836137e4565b9150613ad182613a90565b602082019050919050565b60006020820190508181036000830152613af581613ab9565b9050919050565b6000613b0782613143565b9150613b1283613143565b9250828203905081811115613b2a57613b29613784565b5b92915050565b6000608082019050613b456000830187613328565b613b5260208301866131b9565b613b5f60408301856131b9565b613b6c60608301846131b9565b95945050505050565b600082825260208201905092915050565b50565b6000613b96600083613b75565b9150613ba182613b86565b600082019050919050565b600060a082019050613bc16000830187613328565b613bce6020830186613328565b613bdb60408301856131b9565b613be860608301846131b9565b8181036080830152613bf981613b89565b905095945050505050565b7f54686973206e667420646f6573206e6f74206578697374202100000000000000600082015250565b6000613c3a6019836137e4565b9150613c4582613c04565b602082019050919050565b60006020820190508181036000830152613c6981613c2d565b9050919050565b7f596f7520646f6e2774206861766520656e6f75676820746f6b656e20746f206260008201527f75792074686973204974656d0000000000000000000000000000000000000000602082015250565b6000613ccc602c836137e4565b9150613cd782613c70565b604082019050919050565b60006020820190508181036000830152613cfb81613cbf565b9050919050565b6000613d0d82613143565b9150613d1883613143565b9250828201905080821115613d3057613d2f613784565b5b92915050565b6000604082019050613d4b60008301856131b9565b613d5860208301846131b9565b9392505050565b6000606082019050613d746000830186613328565b613d816020830185613328565b613d8e60408301846131b9565b949350505050565b6000608082019050613dab6000830187613328565b613db86020830186613328565b613dc560408301856131b9565b613dd260608301846131b9565b95945050505050565b600060a082019050613df06000830188613328565b613dfd6020830187613328565b613e0a60408301866131b9565b613e1760608301856131b9565b613e2460808301846131b9565b9695505050505050565b7f57726f6e67205072696365202100000000000000000000000000000000000000600082015250565b6000613e64600d836137e4565b9150613e6f82613e2e565b602082019050919050565b60006020820190508181036000830152613e9381613e57565b9050919050565b6000613ea582613143565b91507fffffffffffffffffffffffffffffffffffffffffffffffffffffffffffffffff8203613ed757613ed6613784565b5b600182019050919050565b7f4e6f2050726f6365656473000000000000000000000000000000000000000000600082015250565b6000613f18600b836137e4565b9150613f2382613ee2565b602082019050919050565b60006020820190508181036000830152613f4781613f0b565b9050919050565b600081905092915050565b6000613f66600083613f4e565b9150613f7182613b86565b600082019050919050565b6000613f8782613f59565b9150819050919050565b7f5472616e73666572206661696c65640000000000000000000000000000000000600082015250565b6000613fc7600f836137e4565b9150613fd282613f91565b602082019050919050565b60006020820190508181036000830152613ff681613fba565b9050919050565b7f596f7520646f6e2774206861766520656e6f756768206d6f6e65790000000000600082015250565b6000614033601b836137e4565b915061403e82613ffd565b602082019050919050565b6000602082019050818103600083015261406281614026565b9050919050565b614072816133f3565b811461407d57600080fd5b50565b60008151905061408f81614069565b92915050565b6000602082840312156140ab576140aa61313e565b5b60006140b984828501614080565b91505092915050565b7f4f776e61626c653a206e6577206f776e657220697320746865207a65726f206160008201527f6464726573730000000000000000000000000000000000000000000000000000602082015250565b600061411e6026836137e4565b9150614129826140c2565b604082019050919050565b6000602082019050818103600083015261414d81614111565b9050919050565b7f4f776e61626c653a2063616c6c6572206973206e6f7420746865206f776e6572600082015250565b600061418a6020836137e4565b915061419582614154565b602082019050919050565b600060208201905081810360008301526141b98161417d565b905091905056fea26469706673582212203646fe20cf6c112a8f2467d4f2d2c0d443a705776e4fc17a0324de98d403cb2d64736f6c63430008100033",
  "immutableReferences": {},
  "source": "// SPDX-License-Identifier: MIT\r\npragma solidity ^0.8.16;\r\n\r\nimport \"@openzeppelin/contracts/token/ERC721/IERC721.sol\";\r\nimport \"@openzeppelin/contracts/token/ERC721/ERC721.sol\";\r\nimport \"@openzeppelin/contracts/token/ERC1155/IERC1155.sol\";\r\nimport \"@openzeppelin/contracts/token/ERC1155/ERC1155.sol\";\r\nimport \"@openzeppelin/contracts/token/ERC20/IERC20.sol\";\r\nimport \"@openzeppelin/contracts/token/ERC20/ERC20.sol\";\r\nimport \"@openzeppelin/contracts/utils/Counters.sol\";\r\nimport \"@openzeppelin/contracts/access/Ownable.sol\";\r\nimport \"@openzeppelin/contracts/utils/math/SafeMath.sol\";\r\n\r\nerror NotOwner();\r\nerror AlreadyListed(address nftAddress, uint256 tokenId);\r\nerror NotListedERC721(uint256 itemCount);\r\nerror NotListedERC1155(uint256 listingId);\r\nerror NotListedERC20(address tokenAddress);\r\n\r\ncontract NftMarketplace is Ownable {\r\n    using SafeMath for uint256;\r\n    using Counters for Counters.Counter;\r\n    Counters.Counter public _listingIds;\r\n    Counters.Counter public _listingERC20;\r\n\r\n    uint256 public ERC721Count;\r\n    uint256 public tokenERC20Sold;\r\n    uint256 public tokenERC20Listing;\r\n\r\n    // ListingERC20[] public sellerList;\r\n\r\n    struct ListingERC1155 {\r\n        uint256 itemId;\r\n        address nftAddress;\r\n        address seller;\r\n        uint256 tokenId;\r\n        uint256 amount;\r\n        uint256 price;\r\n        uint256 tokenAvailable;\r\n        bool soldOut;\r\n    }\r\n\r\n    struct ListingERC721 {\r\n        uint256 itemId;\r\n        address nftAddress;\r\n        uint256 tokenId;\r\n        uint256 price;\r\n        address seller;\r\n    }\r\n\r\n    struct ListingERC20 {\r\n        uint256 itemId;\r\n        address tokenAddress;\r\n        uint256 price;\r\n        address seller;\r\n        uint256 amount;\r\n    }\r\n\r\n    mapping(uint256 => ListingERC1155) public ERC1155List;\r\n    // mapping(address => mapping(uint256 => ListingERC721)) private ERC721List;\r\n    mapping(uint256 => ListingERC721) public ERC721List;\r\n    mapping(uint256 => ListingERC20) public ERC20List;\r\n    mapping(address => uint256) private ERC721Proceeds;\r\n\r\n    event ERC1155Listed(\r\n        address nftAddress,\r\n        address seller,\r\n        uint256 tokenId,\r\n        uint256 amount,\r\n        uint256 price\r\n    );\r\n\r\n    event ERC721Listed(\r\n        address nftAddress,\r\n        address seller,\r\n        uint256 tokenId,\r\n        uint256 price\r\n    );\r\n\r\n    event ERC20Listed(\r\n        address tokenAddress,\r\n        address seller,\r\n        uint256 price,\r\n        uint256 amount\r\n    );\r\n\r\n    event ERC1155Sold(\r\n        address indexed nftAddress,\r\n        address seller,\r\n        address indexed buyer,\r\n        uint256 tokenId,\r\n        uint256 amount,\r\n        uint256 price\r\n    );\r\n\r\n    event ERC721Sold(\r\n        address indexed nftAddress,\r\n        address indexed seller,\r\n        address indexed buyer,\r\n        uint256 tokenId,\r\n        uint256 price\r\n    );\r\n\r\n    event ERC20Sold(\r\n        address indexed tokenAddress,\r\n        address indexed buyer,\r\n        uint256 amount\r\n    );\r\n\r\n    modifier isOwnerERC721(uint256 itemCount, address spender) {\r\n        address owner = ERC721List[itemCount].seller;\r\n        if (spender != owner) {\r\n            revert NotOwner();\r\n        }\r\n        _;\r\n    }\r\n\r\n    modifier isOwnerERC1155(uint256 listingId, address spender) {\r\n        address owner = ERC1155List[listingId].seller;\r\n        if (spender != owner) {\r\n            revert NotOwner();\r\n        }\r\n        _;\r\n    }\r\n\r\n    modifier isOwnerERC20(uint256 listingERC20, address spender) {\r\n        address owner = ERC20List[listingERC20].seller;\r\n        if (spender != owner) {\r\n            revert NotOwner();\r\n        }\r\n        _;\r\n    }\r\n\r\n    modifier notListed(uint256 itemCount) {\r\n        ListingERC721 memory listing = ERC721List[itemCount];\r\n        if (listing.price > 0) {\r\n            revert AlreadyListed(\r\n                ERC721List[itemCount].nftAddress,\r\n                ERC721List[itemCount].tokenId\r\n            );\r\n        }\r\n        _;\r\n    }\r\n\r\n    modifier isListedERC721(uint256 itemCount) {\r\n        ListingERC721 memory listing = ERC721List[itemCount];\r\n        if (listing.price <= 0) {\r\n            revert NotListedERC721(itemCount);\r\n        }\r\n        _;\r\n    }\r\n\r\n    modifier isListedERC20(uint256 listingERC20) {\r\n        ListingERC20 memory listing = ERC20List[listingERC20];\r\n        if (listing.price <= 0 || listing.amount <= 0) {\r\n            revert NotListedERC20(ERC20List[listingERC20].tokenAddress);\r\n        }\r\n        _;\r\n    }\r\n\r\n    modifier isListedERC1155(uint256 listingId) {\r\n        ListingERC1155 memory listing = ERC1155List[listingId];\r\n        if (listing.price <= 0 || listing.amount <= 0) {\r\n            revert NotListedERC1155(listingId);\r\n        }\r\n        _;\r\n    }\r\n\r\n    function listItemERC721(\r\n        address nftAddress,\r\n        uint256 tokenId,\r\n        uint256 price\r\n    ) external {\r\n        require(price > 0, \"Wrong Price !\");\r\n        IERC721 nft = IERC721(nftAddress);\r\n        ERC721Count++;\r\n        ERC721List[ERC721Count] = ListingERC721(\r\n            ERC721Count,\r\n            nftAddress,\r\n            tokenId,\r\n            price,\r\n            msg.sender\r\n        );\r\n\r\n        emit ERC721Listed(nftAddress, msg.sender, tokenId, price);\r\n    }\r\n\r\n    function listItemERC1155(\r\n        address nftAddress,\r\n        uint256 tokenId,\r\n        uint256 amount,\r\n        uint256 price\r\n    ) external {\r\n        ERC1155 nft = ERC1155(nftAddress);\r\n        _listingIds.increment();\r\n        uint256 listingId = _listingIds.current();\r\n\r\n        ERC1155List[listingId] = ListingERC1155(\r\n            listingId,\r\n            nftAddress,\r\n            msg.sender,\r\n            tokenId,\r\n            amount,\r\n            price,\r\n            amount,\r\n            false\r\n        );\r\n        emit ERC1155Listed(nftAddress, msg.sender, tokenId, amount, price);\r\n    }\r\n\r\n    function listItemERC20(\r\n        address tokenAddress,\r\n        uint256 amount,\r\n        uint256 price\r\n    ) external {\r\n        ERC20 token = ERC20(tokenAddress);\r\n        _listingERC20.increment();\r\n        uint256 listingERC20 = _listingERC20.current();\r\n        tokenERC20Listing += amount;\r\n        ERC20List[listingERC20] = ListingERC20(\r\n            listingERC20,\r\n            tokenAddress,\r\n            price,\r\n            msg.sender,\r\n            amount\r\n        );\r\n        emit ERC20Listed(tokenAddress, msg.sender, price, tokenERC20Listing);\r\n    }\r\n\r\n    function buyItemERC721(uint256 itemCount)\r\n        external\r\n        payable\r\n        isListedERC721(itemCount)\r\n    {\r\n        ListingERC721 memory listedItem = ERC721List[itemCount];\r\n        require(itemCount <= ERC721Count, \"This nft does not exist !\");\r\n        require(\r\n            msg.value >= listedItem.price,\r\n            \"You don't have enough token to buy this Item\"\r\n        );\r\n        ERC721Proceeds[listedItem.seller] += msg.value;\r\n        emit ERC721Sold(\r\n            ERC721List[itemCount].nftAddress,\r\n            ERC721List[itemCount].seller,\r\n            msg.sender,\r\n            ERC721List[itemCount].tokenId,\r\n            ERC721List[itemCount].price\r\n        );\r\n        delete (ERC721List[itemCount]);\r\n\r\n        IERC721(listedItem.nftAddress).safeTransferFrom(\r\n            listedItem.seller,\r\n            msg.sender,\r\n            listedItem.tokenId\r\n        );\r\n    }\r\n\r\n    function buyItemERC1155(uint256 listingId, uint256 amount)\r\n        external\r\n        payable\r\n    {\r\n        ERC1155 nft = ERC1155(ERC1155List[listingId].nftAddress);\r\n        uint256 listingAmount = amount / 10**18;\r\n        require(\r\n            msg.sender != ERC1155List[listingId].seller,\r\n            \"You can not buy this nft\"\r\n        );\r\n\r\n        require(\r\n            msg.value >= listingAmount * ERC1155List[listingId].price,\r\n            \"You do not have enough token to buy this nft\"\r\n        );\r\n\r\n        require(\r\n            nft.balanceOf(\r\n                ERC1155List[listingId].seller,\r\n                ERC1155List[listingId].tokenId\r\n            ) >= amount,\r\n            \"Seller does not have enough nfts\"\r\n        );\r\n\r\n        require(\r\n            ERC1155List[listingId].soldOut == false,\r\n            \"This nft is sold out\"\r\n        );\r\n        require(\r\n            ERC1155List[listingId].tokenAvailable >= amount,\r\n            \"Not enough nfts\"\r\n        );\r\n        ERC1155List[listingId].tokenAvailable -= amount;\r\n        if (ERC1155List[listingId].tokenAvailable == 0) {\r\n            ERC1155List[listingId].soldOut = true;\r\n        }\r\n\r\n        emit ERC1155Sold(\r\n            ERC1155List[listingId].nftAddress,\r\n            ERC1155List[listingId].seller,\r\n            msg.sender,\r\n            ERC1155List[listingId].tokenId,\r\n            amount,\r\n            ERC1155List[listingId].price\r\n        );\r\n\r\n        nft.safeTransferFrom(\r\n            ERC1155List[listingId].seller,\r\n            msg.sender,\r\n            ERC1155List[listingId].tokenId,\r\n            amount,\r\n            \"\"\r\n        );\r\n\r\n        payable(ERC1155List[listingId].seller).transfer(\r\n            (ERC1155List[listingId].price)\r\n        );\r\n    }\r\n\r\n    function buyItemERC20(uint256 listingERC20, uint256 amount)\r\n        external\r\n        payable\r\n    {\r\n        ERC20 token = ERC20(ERC20List[listingERC20].tokenAddress);\r\n        uint256 listingAmount = amount / 10**18;\r\n        require(\r\n            msg.value >= listingAmount * ERC20List[listingERC20].price,\r\n            \"You don't have enough money\"\r\n        );\r\n\r\n        ERC20List[listingERC20].amount -= amount;\r\n\r\n        token.transferFrom(ERC20List[listingERC20].seller, msg.sender, amount);\r\n\r\n        payable(ERC20List[listingERC20].seller).transfer(\r\n            (ERC20List[listingERC20].price)\r\n        );\r\n\r\n        emit ERC20Sold(\r\n            ERC20List[listingERC20].tokenAddress,\r\n            msg.sender,\r\n            amount\r\n        );\r\n    }\r\n\r\n    function updateListingERC721(uint256 itemCount, uint256 newPrice)\r\n        external\r\n        isOwnerERC721(itemCount, msg.sender)\r\n        isListedERC721(itemCount)\r\n    {\r\n        ERC721List[itemCount].price = newPrice;\r\n    }\r\n\r\n    function updateListingERC1155(\r\n        uint256 listingId,\r\n        uint256 newPrice,\r\n        uint256 newAmount\r\n    )\r\n        external\r\n        isOwnerERC1155(listingId, msg.sender)\r\n        isListedERC1155(listingId)\r\n    {\r\n        ERC1155List[listingId].price = newPrice;\r\n        ERC1155List[listingId].amount = newAmount;\r\n    }\r\n\r\n    function updateListingERC20(\r\n        uint256 listingERC20,\r\n        uint256 newPrice,\r\n        uint256 newAmount\r\n    )\r\n        external\r\n        isListedERC20(listingERC20)\r\n        isOwnerERC20(listingERC20, msg.sender)\r\n    {\r\n        ERC20List[listingERC20].price = newPrice;\r\n        ERC20List[listingERC20].amount = newAmount;\r\n    }\r\n\r\n    function getListingERC721(uint256 itemCount)\r\n        external\r\n        view\r\n        returns (ListingERC721 memory)\r\n    {\r\n        return ERC721List[itemCount];\r\n    }\r\n\r\n    function getListingERC1155(uint256 listingId)\r\n        external\r\n        view\r\n        returns (ListingERC1155 memory)\r\n    {\r\n        return ERC1155List[listingId];\r\n    }\r\n\r\n    function getListingERC20(uint256 listingERC20)\r\n        external\r\n        view\r\n        returns (ListingERC20 memory)\r\n    {\r\n        return ERC20List[listingERC20];\r\n    }\r\n\r\n    function cancelListingERC721(uint256 itemCount)\r\n        external\r\n        isOwnerERC721(itemCount, msg.sender)\r\n        isListedERC721(itemCount)\r\n    {\r\n        delete (ERC721List[itemCount]);\r\n    }\r\n\r\n    function cancelListingERC1155(\r\n        uint256 listingId,\r\n        address nftAddress,\r\n        uint256 tokenId\r\n    )\r\n        external\r\n        isOwnerERC1155(listingId, msg.sender)\r\n        isListedERC1155(listingId)\r\n    {\r\n        delete (ERC1155List[listingId]);\r\n    }\r\n\r\n    function cancelListingERC20(uint256 listingERC20)\r\n        external\r\n        isOwnerERC20(listingERC20, msg.sender)\r\n        isListedERC20(listingERC20)\r\n    {\r\n        delete (ERC20List[listingERC20]);\r\n    }\r\n\r\n    function withdrawProceeds() external {\r\n        uint256 proceeds = ERC721Proceeds[msg.sender];\r\n        require(proceeds > 0, \"No Proceeds\");\r\n        ERC721Proceeds[msg.sender] = 0;\r\n        (bool success, ) = payable(msg.sender).call{value: proceeds}(\"\");\r\n        require(success, \"Transfer failed\");\r\n    }\r\n}\r\n",
  "sourcePath": "D:\\WorkSpace\\Jobs\\NftMarketplace_ERC721\\contracts\\NftMarketplace.sol",
  "compiler": {
    "name": "solc",
    "version": "0.8.16+commit.07a7930e.Emscripten.clang"
  },
  "schemaVersion": "3.4.9",
  "updatedAt": "2022-10-11T07:42:09.194Z",
  "networkType": "ethereum",
  "devdoc": {
    "kind": "dev",
    "methods": {
      "owner()": {
        "details": "Returns the address of the current owner."
      },
      "renounceOwnership()": {
        "details": "Leaves the contract without owner. It will not be possible to call `onlyOwner` functions anymore. Can only be called by the current owner. NOTE: Renouncing ownership will leave the contract without an owner, thereby removing any functionality that is only available to the owner."
      },
      "transferOwnership(address)": {
        "details": "Transfers ownership of the contract to a new account (`newOwner`). Can only be called by the current owner."
      }
    },
    "version": 1
  },
  "userdoc": {
    "kind": "user",
    "methods": {},
    "version": 1
  }
}