{
  "contractName": "NftMarketplace",
  "abi": [
    {
      "inputs": [
        {
          "internalType": "uint256",
          "name": "listingId",
          "type": "uint256"
        }
      ],
      "name": "NotListedERC1155",
      "type": "error"
    },
    {
      "inputs": [
        {
          "internalType": "address",
          "name": "tokenAddress",
          "type": "address"
        }
      ],
      "name": "NotListedERC20",
      "type": "error"
    },
    {
      "inputs": [
        {
          "internalType": "uint256",
          "name": "itemCount",
          "type": "uint256"
        }
      ],
      "name": "NotListedERC721",
      "type": "error"
    },
    {
      "inputs": [],
      "name": "NotOwner",
      "type": "error"
    },
    {
      "anonymous": false,
      "inputs": [
        {
          "indexed": false,
          "internalType": "address",
          "name": "nftAddress",
          "type": "address"
        },
        {
          "indexed": false,
          "internalType": "address",
          "name": "seller",
          "type": "address"
        },
        {
          "indexed": false,
          "internalType": "uint256",
          "name": "tokenId",
          "type": "uint256"
        },
        {
          "indexed": false,
          "internalType": "uint256",
          "name": "amount",
          "type": "uint256"
        },
        {
          "indexed": false,
          "internalType": "uint256",
          "name": "price",
          "type": "uint256"
        }
      ],
      "name": "ERC1155Listed",
      "type": "event"
    },
    {
      "anonymous": false,
      "inputs": [
        {
          "indexed": false,
          "internalType": "uint256",
          "name": "totalTransactions",
          "type": "uint256"
        },
        {
          "indexed": false,
          "internalType": "uint256",
          "name": "totalListedToken",
          "type": "uint256"
        },
        {
          "indexed": false,
          "internalType": "uint256",
          "name": "totalListedValue",
          "type": "uint256"
        },
        {
          "indexed": false,
          "internalType": "uint256",
          "name": "timestamp",
          "type": "uint256"
        }
      ],
      "name": "ERC1155ListedInfo",
      "type": "event"
    },
    {
      "anonymous": false,
      "inputs": [
        {
          "indexed": true,
          "internalType": "address",
          "name": "nftAddress",
          "type": "address"
        },
        {
          "indexed": false,
          "internalType": "address",
          "name": "seller",
          "type": "address"
        },
        {
          "indexed": true,
          "internalType": "address",
          "name": "buyer",
          "type": "address"
        },
        {
          "indexed": false,
          "internalType": "uint256",
          "name": "tokenId",
          "type": "uint256"
        },
        {
          "indexed": false,
          "internalType": "uint256",
          "name": "amount",
          "type": "uint256"
        },
        {
          "indexed": false,
          "internalType": "uint256",
          "name": "price",
          "type": "uint256"
        }
      ],
      "name": "ERC1155Sold",
      "type": "event"
    },
    {
      "anonymous": false,
      "inputs": [
        {
          "indexed": false,
          "internalType": "uint256",
          "name": "totalTransactions",
          "type": "uint256"
        },
        {
          "indexed": false,
          "internalType": "uint256",
          "name": "totalSoldToken",
          "type": "uint256"
        },
        {
          "indexed": false,
          "internalType": "uint256",
          "name": "totalSoldValue",
          "type": "uint256"
        },
        {
          "indexed": false,
          "internalType": "uint256",
          "name": "timestamp",
          "type": "uint256"
        }
      ],
      "name": "ERC1155SoldInfo",
      "type": "event"
    },
    {
      "anonymous": false,
      "inputs": [
        {
          "indexed": false,
          "internalType": "address",
          "name": "tokenAddress",
          "type": "address"
        },
        {
          "indexed": false,
          "internalType": "address",
          "name": "seller",
          "type": "address"
        },
        {
          "indexed": false,
          "internalType": "uint256",
          "name": "price",
          "type": "uint256"
        },
        {
          "indexed": false,
          "internalType": "uint256",
          "name": "amount",
          "type": "uint256"
        }
      ],
      "name": "ERC20Listed",
      "type": "event"
    },
    {
      "anonymous": false,
      "inputs": [
        {
          "indexed": false,
          "internalType": "uint256",
          "name": "totalTransactions",
          "type": "uint256"
        },
        {
          "indexed": false,
          "internalType": "uint256",
          "name": "totalListedToken",
          "type": "uint256"
        },
        {
          "indexed": false,
          "internalType": "uint256",
          "name": "totalListedValue",
          "type": "uint256"
        },
        {
          "indexed": false,
          "internalType": "uint256",
          "name": "timestamp",
          "type": "uint256"
        }
      ],
      "name": "ERC20ListedInfo",
      "type": "event"
    },
    {
      "anonymous": false,
      "inputs": [
        {
          "indexed": true,
          "internalType": "address",
          "name": "tokenAddress",
          "type": "address"
        },
        {
          "indexed": true,
          "internalType": "address",
          "name": "seller",
          "type": "address"
        },
        {
          "indexed": true,
          "internalType": "address",
          "name": "buyer",
          "type": "address"
        },
        {
          "indexed": false,
          "internalType": "uint256",
          "name": "amount",
          "type": "uint256"
        },
        {
          "indexed": false,
          "internalType": "uint256",
          "name": "price",
          "type": "uint256"
        }
      ],
      "name": "ERC20Sold",
      "type": "event"
    },
    {
      "anonymous": false,
      "inputs": [
        {
          "indexed": false,
          "internalType": "uint256",
          "name": "totalTransactions",
          "type": "uint256"
        },
        {
          "indexed": false,
          "internalType": "uint256",
          "name": "totalSoldToken",
          "type": "uint256"
        },
        {
          "indexed": false,
          "internalType": "uint256",
          "name": "totalSoldValue",
          "type": "uint256"
        },
        {
          "indexed": false,
          "internalType": "uint256",
          "name": "timestamp",
          "type": "uint256"
        }
      ],
      "name": "ERC20SoldInfo",
      "type": "event"
    },
    {
      "anonymous": false,
      "inputs": [
        {
          "indexed": false,
          "internalType": "address",
          "name": "nftAddress",
          "type": "address"
        },
        {
          "indexed": false,
          "internalType": "address",
          "name": "seller",
          "type": "address"
        },
        {
          "indexed": false,
          "internalType": "uint256",
          "name": "tokenId",
          "type": "uint256"
        },
        {
          "indexed": false,
          "internalType": "uint256",
          "name": "price",
          "type": "uint256"
        }
      ],
      "name": "ERC721Listed",
      "type": "event"
    },
    {
      "anonymous": false,
      "inputs": [
        {
          "indexed": false,
          "internalType": "uint256",
          "name": "totalTransactions",
          "type": "uint256"
        },
        {
          "indexed": false,
          "internalType": "uint256",
          "name": "totalListedNft",
          "type": "uint256"
        },
        {
          "indexed": false,
          "internalType": "uint256",
          "name": "totalListedValue",
          "type": "uint256"
        },
        {
          "indexed": false,
          "internalType": "uint256",
          "name": "timestamp",
          "type": "uint256"
        }
      ],
      "name": "ERC721ListedInfo",
      "type": "event"
    },
    {
      "anonymous": false,
      "inputs": [
        {
          "indexed": true,
          "internalType": "address",
          "name": "nftAddress",
          "type": "address"
        },
        {
          "indexed": true,
          "internalType": "address",
          "name": "seller",
          "type": "address"
        },
        {
          "indexed": true,
          "internalType": "address",
          "name": "buyer",
          "type": "address"
        },
        {
          "indexed": false,
          "internalType": "uint256",
          "name": "tokenId",
          "type": "uint256"
        },
        {
          "indexed": false,
          "internalType": "uint256",
          "name": "price",
          "type": "uint256"
        }
      ],
      "name": "ERC721Sold",
      "type": "event"
    },
    {
      "anonymous": false,
      "inputs": [
        {
          "indexed": false,
          "internalType": "uint256",
          "name": "totalTransactions",
          "type": "uint256"
        },
        {
          "indexed": false,
          "internalType": "uint256",
          "name": "totalSoldNft",
          "type": "uint256"
        },
        {
          "indexed": false,
          "internalType": "uint256",
          "name": "totalSoldValue",
          "type": "uint256"
        },
        {
          "indexed": false,
          "internalType": "uint256",
          "name": "timestamp",
          "type": "uint256"
        }
      ],
      "name": "ERC721SoldInfo",
      "type": "event"
    },
    {
      "anonymous": false,
      "inputs": [
        {
          "indexed": true,
          "internalType": "address",
          "name": "previousOwner",
          "type": "address"
        },
        {
          "indexed": true,
          "internalType": "address",
          "name": "newOwner",
          "type": "address"
        }
      ],
      "name": "OwnershipTransferred",
      "type": "event"
    },
    {
      "inputs": [
        {
          "internalType": "uint256",
          "name": "",
          "type": "uint256"
        }
      ],
      "name": "ERC1155List",
      "outputs": [
        {
          "internalType": "uint256",
          "name": "itemId",
          "type": "uint256"
        },
        {
          "internalType": "address",
          "name": "nftAddress",
          "type": "address"
        },
        {
          "internalType": "address",
          "name": "seller",
          "type": "address"
        },
        {
          "internalType": "uint256",
          "name": "tokenId",
          "type": "uint256"
        },
        {
          "internalType": "uint256",
          "name": "amount",
          "type": "uint256"
        },
        {
          "internalType": "uint256",
          "name": "price",
          "type": "uint256"
        },
        {
          "internalType": "uint256",
          "name": "tokenAvailable",
          "type": "uint256"
        },
        {
          "internalType": "bool",
          "name": "soldOut",
          "type": "bool"
        }
      ],
      "stateMutability": "view",
      "type": "function",
      "constant": true
    },
    {
      "inputs": [
        {
          "internalType": "uint256",
          "name": "",
          "type": "uint256"
        }
      ],
      "name": "ERC20List",
      "outputs": [
        {
          "internalType": "uint256",
          "name": "itemId",
          "type": "uint256"
        },
        {
          "internalType": "address",
          "name": "tokenAddress",
          "type": "address"
        },
        {
          "internalType": "uint256",
          "name": "price",
          "type": "uint256"
        },
        {
          "internalType": "address",
          "name": "seller",
          "type": "address"
        },
        {
          "internalType": "uint256",
          "name": "amount",
          "type": "uint256"
        }
      ],
      "stateMutability": "view",
      "type": "function",
      "constant": true
    },
    {
      "inputs": [
        {
          "internalType": "uint256",
          "name": "",
          "type": "uint256"
        }
      ],
      "name": "ERC721List",
      "outputs": [
        {
          "internalType": "uint256",
          "name": "itemId",
          "type": "uint256"
        },
        {
          "internalType": "address",
          "name": "nftAddress",
          "type": "address"
        },
        {
          "internalType": "uint256",
          "name": "tokenId",
          "type": "uint256"
        },
        {
          "internalType": "uint256",
          "name": "price",
          "type": "uint256"
        },
        {
          "internalType": "address",
          "name": "seller",
          "type": "address"
        }
      ],
      "stateMutability": "view",
      "type": "function",
      "constant": true
    },
    {
      "inputs": [],
      "name": "_listingERC20",
      "outputs": [
        {
          "internalType": "uint256",
          "name": "_value",
          "type": "uint256"
        }
      ],
      "stateMutability": "view",
      "type": "function",
      "constant": true
    },
    {
      "inputs": [],
      "name": "_listingERC721",
      "outputs": [
        {
          "internalType": "uint256",
          "name": "_value",
          "type": "uint256"
        }
      ],
      "stateMutability": "view",
      "type": "function",
      "constant": true
    },
    {
      "inputs": [],
      "name": "_listingIds",
      "outputs": [
        {
          "internalType": "uint256",
          "name": "_value",
          "type": "uint256"
        }
      ],
      "stateMutability": "view",
      "type": "function",
      "constant": true
    },
    {
      "inputs": [],
      "name": "owner",
      "outputs": [
        {
          "internalType": "address",
          "name": "",
          "type": "address"
        }
      ],
      "stateMutability": "view",
      "type": "function",
      "constant": true
    },
    {
      "inputs": [],
      "name": "renounceOwnership",
      "outputs": [],
      "stateMutability": "nonpayable",
      "type": "function"
    },
    {
      "inputs": [],
      "name": "tokenERC20Listing",
      "outputs": [
        {
          "internalType": "uint256",
          "name": "",
          "type": "uint256"
        }
      ],
      "stateMutability": "view",
      "type": "function",
      "constant": true
    },
    {
      "inputs": [],
      "name": "tokenERC20Sold",
      "outputs": [
        {
          "internalType": "uint256",
          "name": "",
          "type": "uint256"
        }
      ],
      "stateMutability": "view",
      "type": "function",
      "constant": true
    },
    {
      "inputs": [
        {
          "internalType": "address",
          "name": "newOwner",
          "type": "address"
        }
      ],
      "name": "transferOwnership",
      "outputs": [],
      "stateMutability": "nonpayable",
      "type": "function"
    },
    {
      "inputs": [
        {
          "internalType": "address",
          "name": "nftAddress",
          "type": "address"
        },
        {
          "internalType": "uint256",
          "name": "tokenId",
          "type": "uint256"
        },
        {
          "internalType": "uint256",
          "name": "price",
          "type": "uint256"
        }
      ],
      "name": "listItemERC721",
      "outputs": [],
      "stateMutability": "nonpayable",
      "type": "function"
    },
    {
      "inputs": [
        {
          "internalType": "address",
          "name": "nftAddress",
          "type": "address"
        },
        {
          "internalType": "uint256",
          "name": "tokenId",
          "type": "uint256"
        },
        {
          "internalType": "uint256",
          "name": "amount",
          "type": "uint256"
        },
        {
          "internalType": "uint256",
          "name": "price",
          "type": "uint256"
        }
      ],
      "name": "listItemERC1155",
      "outputs": [],
      "stateMutability": "nonpayable",
      "type": "function"
    },
    {
      "inputs": [
        {
          "internalType": "address",
          "name": "tokenAddress",
          "type": "address"
        },
        {
          "internalType": "uint256",
          "name": "amount",
          "type": "uint256"
        },
        {
          "internalType": "uint256",
          "name": "price",
          "type": "uint256"
        }
      ],
      "name": "listItemERC20",
      "outputs": [],
      "stateMutability": "nonpayable",
      "type": "function"
    },
    {
      "inputs": [
        {
          "internalType": "uint256",
          "name": "itemCount",
          "type": "uint256"
        }
      ],
      "name": "buyItemERC721",
      "outputs": [],
      "stateMutability": "payable",
      "type": "function",
      "payable": true
    },
    {
      "inputs": [
        {
          "internalType": "uint256",
          "name": "listingId",
          "type": "uint256"
        },
        {
          "internalType": "uint256",
          "name": "amount",
          "type": "uint256"
        }
      ],
      "name": "buyItemERC1155",
      "outputs": [],
      "stateMutability": "payable",
      "type": "function",
      "payable": true
    },
    {
      "inputs": [
        {
          "internalType": "uint256",
          "name": "listingERC20",
          "type": "uint256"
        },
        {
          "internalType": "uint256",
          "name": "amount",
          "type": "uint256"
        }
      ],
      "name": "buyItemERC20",
      "outputs": [],
      "stateMutability": "payable",
      "type": "function",
      "payable": true
    },
    {
      "inputs": [
        {
          "internalType": "uint256",
          "name": "itemCount",
          "type": "uint256"
        },
        {
          "internalType": "uint256",
          "name": "newPrice",
          "type": "uint256"
        }
      ],
      "name": "updateListingERC721",
      "outputs": [],
      "stateMutability": "nonpayable",
      "type": "function"
    },
    {
      "inputs": [
        {
          "internalType": "uint256",
          "name": "listingId",
          "type": "uint256"
        },
        {
          "internalType": "uint256",
          "name": "newPrice",
          "type": "uint256"
        },
        {
          "internalType": "uint256",
          "name": "newAmount",
          "type": "uint256"
        }
      ],
      "name": "updateListingERC1155",
      "outputs": [],
      "stateMutability": "nonpayable",
      "type": "function"
    },
    {
      "inputs": [
        {
          "internalType": "uint256",
          "name": "listingERC20",
          "type": "uint256"
        },
        {
          "internalType": "uint256",
          "name": "newPrice",
          "type": "uint256"
        },
        {
          "internalType": "uint256",
          "name": "newAmount",
          "type": "uint256"
        }
      ],
      "name": "updateListingERC20",
      "outputs": [],
      "stateMutability": "nonpayable",
      "type": "function"
    },
    {
      "inputs": [
        {
          "internalType": "uint256",
          "name": "itemCount",
          "type": "uint256"
        }
      ],
      "name": "getListingERC721",
      "outputs": [
        {
          "components": [
            {
              "internalType": "uint256",
              "name": "itemId",
              "type": "uint256"
            },
            {
              "internalType": "address",
              "name": "nftAddress",
              "type": "address"
            },
            {
              "internalType": "uint256",
              "name": "tokenId",
              "type": "uint256"
            },
            {
              "internalType": "uint256",
              "name": "price",
              "type": "uint256"
            },
            {
              "internalType": "address",
              "name": "seller",
              "type": "address"
            }
          ],
          "internalType": "struct NftMarketplace.ListingERC721",
          "name": "",
          "type": "tuple"
        }
      ],
      "stateMutability": "view",
      "type": "function",
      "constant": true
    },
    {
      "inputs": [
        {
          "internalType": "uint256",
          "name": "listingId",
          "type": "uint256"
        }
      ],
      "name": "getListingERC1155",
      "outputs": [
        {
          "components": [
            {
              "internalType": "uint256",
              "name": "itemId",
              "type": "uint256"
            },
            {
              "internalType": "address",
              "name": "nftAddress",
              "type": "address"
            },
            {
              "internalType": "address",
              "name": "seller",
              "type": "address"
            },
            {
              "internalType": "uint256",
              "name": "tokenId",
              "type": "uint256"
            },
            {
              "internalType": "uint256",
              "name": "amount",
              "type": "uint256"
            },
            {
              "internalType": "uint256",
              "name": "price",
              "type": "uint256"
            },
            {
              "internalType": "uint256",
              "name": "tokenAvailable",
              "type": "uint256"
            },
            {
              "internalType": "bool",
              "name": "soldOut",
              "type": "bool"
            }
          ],
          "internalType": "struct NftMarketplace.ListingERC1155",
          "name": "",
          "type": "tuple"
        }
      ],
      "stateMutability": "view",
      "type": "function",
      "constant": true
    },
    {
      "inputs": [
        {
          "internalType": "uint256",
          "name": "listingERC20",
          "type": "uint256"
        }
      ],
      "name": "getListingERC20",
      "outputs": [
        {
          "components": [
            {
              "internalType": "uint256",
              "name": "itemId",
              "type": "uint256"
            },
            {
              "internalType": "address",
              "name": "tokenAddress",
              "type": "address"
            },
            {
              "internalType": "uint256",
              "name": "price",
              "type": "uint256"
            },
            {
              "internalType": "address",
              "name": "seller",
              "type": "address"
            },
            {
              "internalType": "uint256",
              "name": "amount",
              "type": "uint256"
            }
          ],
          "internalType": "struct NftMarketplace.ListingERC20",
          "name": "",
          "type": "tuple"
        }
      ],
      "stateMutability": "view",
      "type": "function",
      "constant": true
    },
    {
      "inputs": [
        {
          "internalType": "uint256",
          "name": "itemCount",
          "type": "uint256"
        }
      ],
      "name": "cancelListingERC721",
      "outputs": [],
      "stateMutability": "nonpayable",
      "type": "function"
    },
    {
      "inputs": [
        {
          "internalType": "uint256",
          "name": "listingId",
          "type": "uint256"
        },
        {
          "internalType": "address",
          "name": "nftAddress",
          "type": "address"
        },
        {
          "internalType": "uint256",
          "name": "tokenId",
          "type": "uint256"
        }
      ],
      "name": "cancelListingERC1155",
      "outputs": [],
      "stateMutability": "nonpayable",
      "type": "function"
    },
    {
      "inputs": [
        {
          "internalType": "uint256",
          "name": "listingERC20",
          "type": "uint256"
        }
      ],
      "name": "cancelListingERC20",
      "outputs": [],
      "stateMutability": "nonpayable",
      "type": "function"
    },
    {
      "inputs": [],
      "name": "withdrawProceeds",
      "outputs": [],
      "stateMutability": "nonpayable",
      "type": "function"
    }
  ],
  "bytecode": "0x60806040523480156200001157600080fd5b5062000032620000266200003860201b60201c565b6200004060201b60201c565b62000104565b600033905090565b60008060009054906101000a900473ffffffffffffffffffffffffffffffffffffffff169050816000806101000a81548173ffffffffffffffffffffffffffffffffffffffff021916908373ffffffffffffffffffffffffffffffffffffffff1602179055508173ffffffffffffffffffffffffffffffffffffffff168173ffffffffffffffffffffffffffffffffffffffff167f8be0079c531659141344cd1fd0a4f28419497f9722a3daafe3b4186f6b6457e060405160405180910390a35050565b61477480620001146000396000f3fe60806040526004361061019c5760003560e01c8063a2028931116100ec578063cf4a0a101161008a578063ec17825c11610064578063ec17825c14610584578063ed546050146105ad578063f123435b146105d6578063f2fde38b146106135761019c565b8063cf4a0a10146104dd578063d6cbaace1461051a578063d87d7c33146105435761019c565b8063aa412ef5116100c6578063aa412ef514610406578063bc6e56981461042f578063c9a9c2ab14610473578063cdd6ebea146104b45761019c565b8063a202893114610384578063a4877b85146103c1578063a62b5b9f146103ea5761019c565b806346e62b2e116101595780638da5cb5b116101335780638da5cb5b146102ec5780639038e69314610317578063957645381461032e5780639c4b15a5146103595761019c565b806346e62b2e14610283578063715018a6146102ac57806383fd0768146102c35761019c565b80630372009a146101a157806305b826a8146101bd5780630f6f0a00146101e857806319c62aab146102045780632d08e4861461022f57806330e07ee01461025a575b600080fd5b6101bb60048036038101906101b69190613646565b61063c565b005b3480156101c957600080fd5b506101d2610ce5565b6040516101df9190613695565b60405180910390f35b61020260048036038101906101fd91906136b0565b610cf1565b005b34801561021057600080fd5b506102196112b5565b6040516102269190613695565b60405180910390f35b34801561023b57600080fd5b506102446112bb565b6040516102519190613695565b60405180910390f35b34801561026657600080fd5b50610281600480360381019061027c919061373b565b6112c7565b005b34801561028f57600080fd5b506102aa60048036038101906102a5919061378e565b6114f0565b005b3480156102b857600080fd5b506102c161174b565b005b3480156102cf57600080fd5b506102ea60048036038101906102e5919061373b565b61175f565b005b3480156102f857600080fd5b506103016119a4565b60405161030e9190613804565b60405180910390f35b34801561032357600080fd5b5061032c6119cd565b005b34801561033a57600080fd5b50610343611b49565b6040516103509190613695565b60405180910390f35b34801561036557600080fd5b5061036e611b4f565b60405161037b9190613695565b60405180910390f35b34801561039057600080fd5b506103ab60048036038101906103a691906136b0565b611b5b565b6040516103b891906138a5565b60405180910390f35b3480156103cd57600080fd5b506103e860048036038101906103e391906136b0565b611c52565b005b61040460048036038101906103ff9190613646565b611ef6565b005b34801561041257600080fd5b5061042d600480360381019061042891906136b0565b61237c565b005b34801561043b57600080fd5b50610456600480360381019061045191906136b0565b6125d8565b60405161046a9897969594939291906138db565b60405180910390f35b34801561047f57600080fd5b5061049a600480360381019061049591906136b0565b61266d565b6040516104ab959493929190613959565b60405180910390f35b3480156104c057600080fd5b506104db60048036038101906104d691906139ac565b6126e3565b005b3480156104e957600080fd5b5061050460048036038101906104ff91906136b0565b612943565b6040516105119190613a67565b60405180910390f35b34801561052657600080fd5b50610541600480360381019061053c9190613a82565b612a3a565b005b34801561054f57600080fd5b5061056a600480360381019061056591906136b0565b612cfe565b60405161057b959493929190613ad5565b60405180910390f35b34801561059057600080fd5b506105ab60048036038101906105a69190613646565b612d74565b005b3480156105b957600080fd5b506105d460048036038101906105cf91906139ac565b612f70565b005b3480156105e257600080fd5b506105fd60048036038101906105f891906136b0565b6131ca565b60405161060a9190613bd9565b60405180910390f35b34801561061f57600080fd5b5061063a60048036038101906106359190613bf5565b6132f1565b005b60006018600084815260200190815260200160002060010160009054906101000a900473ffffffffffffffffffffffffffffffffffffffff1690506000670de0b6b3a76400008361068d9190613c80565b90506018600085815260200190815260200160002060020160009054906101000a900473ffffffffffffffffffffffffffffffffffffffff1673ffffffffffffffffffffffffffffffffffffffff163373ffffffffffffffffffffffffffffffffffffffff1603610733576040517f08c379a000000000000000000000000000000000000000000000000000000000815260040161072a90613d0e565b60405180910390fd5b6018600085815260200190815260200160002060050154816107559190613d2e565b341015610797576040517f08c379a000000000000000000000000000000000000000000000000000000000815260040161078e90613dfa565b60405180910390fd5b828273ffffffffffffffffffffffffffffffffffffffff1662fdd58e6018600088815260200190815260200160002060020160009054906101000a900473ffffffffffffffffffffffffffffffffffffffff1660186000898152602001908152602001600020600301546040518363ffffffff1660e01b815260040161081e929190613e1a565b602060405180830381865afa15801561083b573d6000803e3d6000fd5b505050506040513d601f19601f8201168201806040525081019061085f9190613e58565b10156108a0576040517f08c379a000000000000000000000000000000000000000000000000000000000815260040161089790613ed1565b60405180910390fd5b600015156018600086815260200190815260200160002060070160009054906101000a900460ff1615151461090a576040517f08c379a000000000000000000000000000000000000000000000000000000000815260040161090190613f3d565b60405180910390fd5b8260186000868152602001908152602001600020600601541015610963576040517f08c379a000000000000000000000000000000000000000000000000000000000815260040161095a90613fa9565b60405180910390fd5b826018600086815260200190815260200160002060060160008282546109899190613fc9565b9250508190555060006018600086815260200190815260200160002060060154036109de5760016018600086815260200190815260200160002060070160006101000a81548160ff0219169083151502179055505b3373ffffffffffffffffffffffffffffffffffffffff166018600086815260200190815260200160002060010160009054906101000a900473ffffffffffffffffffffffffffffffffffffffff1673ffffffffffffffffffffffffffffffffffffffff167f345b3d35855ef39f48904207a91972d8ebc2da5a5e4f13306d74fa501196a5616018600088815260200190815260200160002060020160009054906101000a900473ffffffffffffffffffffffffffffffffffffffff16601860008981526020019081526020016000206003015487601860008b815260200190815260200160002060050154604051610ad99493929190613ffd565b60405180910390a360096000815480929190610af490614042565b919050555082600a6000828254610b0b919061408a565b92505081905550601860008581526020019081526020016000206005015483610b349190613d2e565b600b6000828254610b45919061408a565b925050819055507fed485fc4ed57c16f8797f66429cecd508bae64ae7c486e093209485b6469efb3600954600a54600b5442604051610b8794939291906140be565b60405180910390a18173ffffffffffffffffffffffffffffffffffffffff1663f242432a6018600087815260200190815260200160002060020160009054906101000a900473ffffffffffffffffffffffffffffffffffffffff16336018600089815260200190815260200160002060030154876040518563ffffffff1660e01b8152600401610c1a949392919061413a565b600060405180830381600087803b158015610c3457600080fd5b505af1158015610c48573d6000803e3d6000fd5b505050506018600085815260200190815260200160002060020160009054906101000a900473ffffffffffffffffffffffffffffffffffffffff1673ffffffffffffffffffffffffffffffffffffffff166108fc60186000878152602001908152602001600020600501549081150290604051600060405180830381858888f19350505050158015610cde573d6000803e3d6000fd5b5050505050565b60018060000154905081565b806000601960008381526020019081526020016000206040518060a0016040529081600082015481526020016001820160009054906101000a900473ffffffffffffffffffffffffffffffffffffffff1673ffffffffffffffffffffffffffffffffffffffff1673ffffffffffffffffffffffffffffffffffffffff16815260200160028201548152602001600382015481526020016004820160009054906101000a900473ffffffffffffffffffffffffffffffffffffffff1673ffffffffffffffffffffffffffffffffffffffff1673ffffffffffffffffffffffffffffffffffffffff168152505090506000816060015111610e2757816040517fcd2ab003000000000000000000000000000000000000000000000000000000008152600401610e1e9190613695565b60405180910390fd5b6000601960008581526020019081526020016000206040518060a0016040529081600082015481526020016001820160009054906101000a900473ffffffffffffffffffffffffffffffffffffffff1673ffffffffffffffffffffffffffffffffffffffff1673ffffffffffffffffffffffffffffffffffffffff16815260200160028201548152602001600382015481526020016004820160009054906101000a900473ffffffffffffffffffffffffffffffffffffffff1673ffffffffffffffffffffffffffffffffffffffff1673ffffffffffffffffffffffffffffffffffffffff16815250509050610f1d6003613374565b841115610f5f576040517f08c379a0000000000000000000000000000000000000000000000000000000008152600401610f56906141de565b60405180910390fd5b8060600151341015610fa6576040517f08c379a0000000000000000000000000000000000000000000000000000000008152600401610f9d90614270565b60405180910390fd5b34601b6000836080015173ffffffffffffffffffffffffffffffffffffffff1673ffffffffffffffffffffffffffffffffffffffff1681526020019081526020016000206000828254610ff9919061408a565b925050819055503373ffffffffffffffffffffffffffffffffffffffff166019600086815260200190815260200160002060040160009054906101000a900473ffffffffffffffffffffffffffffffffffffffff1673ffffffffffffffffffffffffffffffffffffffff166019600087815260200190815260200160002060010160009054906101000a900473ffffffffffffffffffffffffffffffffffffffff1673ffffffffffffffffffffffffffffffffffffffff167fb49ef2f21fa0f81845c5a2812ba538af22bdbb889060303ba3856c7958095da36019600089815260200190815260200160002060020154601960008a81526020019081526020016000206003015460405161110e929190614290565b60405180910390a4600f600081548092919061112990614042565b91905055506010600081548092919061114190614042565b919050555060196000858152602001908152602001600020600301546011600082825461116e919061408a565b925050819055507f54287e386fb3b0eb6e636a5ebf8f08bbef0cc767facad7e90efcc935fd3cb9c1600f54601054601154426040516111b094939291906140be565b60405180910390a1601960008581526020019081526020016000206000808201600090556001820160006101000a81549073ffffffffffffffffffffffffffffffffffffffff0219169055600282016000905560038201600090556004820160006101000a81549073ffffffffffffffffffffffffffffffffffffffff02191690555050806020015173ffffffffffffffffffffffffffffffffffffffff166342842e0e82608001513384604001516040518463ffffffff1660e01b815260040161127d939291906142b9565b600060405180830381600087803b15801561129757600080fd5b505af11580156112ab573d6000803e3d6000fd5b5050505050505050565b60045481565b60038060000154905081565b60008390506112d66002613382565b60006112e26002613374565b905083600560008282546112f6919061408a565b925050819055506040518060a001604052808281526020018673ffffffffffffffffffffffffffffffffffffffff1681526020018481526020013373ffffffffffffffffffffffffffffffffffffffff16815260200185815250601a60008381526020019081526020016000206000820151816000015560208201518160010160006101000a81548173ffffffffffffffffffffffffffffffffffffffff021916908373ffffffffffffffffffffffffffffffffffffffff1602179055506040820151816002015560608201518160030160006101000a81548173ffffffffffffffffffffffffffffffffffffffff021916908373ffffffffffffffffffffffffffffffffffffffff160217905550608082015181600401559050506012600081548092919061142590614042565b9190505550836013600082825461143c919061408a565b92505081905550828461144f9190613d2e565b60146000828254611460919061408a565b925050819055507f5aa43ce7cbd26ef8feed7d56eb866a21d4d2cb0347115061c0b7d077bd848c3b85338560055460405161149e94939291906142f0565b60405180910390a17f86bf7479eedf6f592e538f33fc4ca629619c5d83393e26dd9e47a5189c8725de601254601354601454426040516114e194939291906140be565b60405180910390a15050505050565b60008490506114ff6001613382565b600061150b6001613374565b90506040518061010001604052808281526020018773ffffffffffffffffffffffffffffffffffffffff1681526020013373ffffffffffffffffffffffffffffffffffffffff16815260200186815260200185815260200184815260200185815260200160001515815250601860008381526020019081526020016000206000820151816000015560208201518160010160006101000a81548173ffffffffffffffffffffffffffffffffffffffff021916908373ffffffffffffffffffffffffffffffffffffffff16021790555060408201518160020160006101000a81548173ffffffffffffffffffffffffffffffffffffffff021916908373ffffffffffffffffffffffffffffffffffffffff160217905550606082015181600301556080820151816004015560a0820151816005015560c0820151816006015560e08201518160070160006101000a81548160ff0219169083151502179055509050506006600081548092919061167f90614042565b91905055508360076000828254611696919061408a565b9250508190555082846116a99190613d2e565b600860008282546116ba919061408a565b925050819055507f40e27a29cfb083bd6a82129fbf1d357b24296fffde131e0389d5960e417b84e586338787876040516116f8959493929190614335565b60405180910390a17feaf5d71c159663ec2ac9d7af5ee79af5b7b892964928515a79162a596e586eb56006546007546008544260405161173b94939291906140be565b60405180910390a1505050505050565b611753613398565b61175d6000613416565b565b600081116117a2576040517f08c379a0000000000000000000000000000000000000000000000000000000008152600401611799906143d4565b60405180910390fd5b60008390506117b16003613382565b60006117bd6003613374565b90506040518060a001604052808281526020018673ffffffffffffffffffffffffffffffffffffffff1681526020018581526020018481526020013373ffffffffffffffffffffffffffffffffffffffff16815250601960008381526020019081526020016000206000820151816000015560208201518160010160006101000a81548173ffffffffffffffffffffffffffffffffffffffff021916908373ffffffffffffffffffffffffffffffffffffffff160217905550604082015181600201556060820151816003015560808201518160040160006101000a81548173ffffffffffffffffffffffffffffffffffffffff021916908373ffffffffffffffffffffffffffffffffffffffff160217905550905050600c60008154809291906118e790614042565b9190505550600d60008154809291906118ff90614042565b919050555082600e6000828254611916919061408a565b925050819055507f120930e4569ba9ce161cf9bdc7acf4e40bdfb26008053dad189ad1e8fc1dfbbc8533868660405161195294939291906142f0565b60405180910390a17f04ef7074782c2e05adabfb76d0a89e2fd320cc8d394336589a55cafb6a18b77e600c54600d54600e544260405161199594939291906140be565b60405180910390a15050505050565b60008060009054906101000a900473ffffffffffffffffffffffffffffffffffffffff16905090565b6000601b60003373ffffffffffffffffffffffffffffffffffffffff1673ffffffffffffffffffffffffffffffffffffffff16815260200190815260200160002054905060008111611a54576040517f08c379a0000000000000000000000000000000000000000000000000000000008152600401611a4b90614440565b60405180910390fd5b6000601b60003373ffffffffffffffffffffffffffffffffffffffff1673ffffffffffffffffffffffffffffffffffffffff1681526020019081526020016000208190555060003373ffffffffffffffffffffffffffffffffffffffff1682604051611abf9061448e565b60006040518083038185875af1925050503d8060008114611afc576040519150601f19603f3d011682016040523d82523d6000602084013e611b01565b606091505b5050905080611b45576040517f08c379a0000000000000000000000000000000000000000000000000000000008152600401611b3c906144ef565b60405180910390fd5b5050565b60055481565b60028060000154905081565b611b636134e2565b601a60008381526020019081526020016000206040518060a0016040529081600082015481526020016001820160009054906101000a900473ffffffffffffffffffffffffffffffffffffffff1673ffffffffffffffffffffffffffffffffffffffff1673ffffffffffffffffffffffffffffffffffffffff168152602001600282015481526020016003820160009054906101000a900473ffffffffffffffffffffffffffffffffffffffff1673ffffffffffffffffffffffffffffffffffffffff1673ffffffffffffffffffffffffffffffffffffffff1681526020016004820154815250509050919050565b80336000601a600084815260200190815260200160002060030160009054906101000a900473ffffffffffffffffffffffffffffffffffffffff1690508073ffffffffffffffffffffffffffffffffffffffff168273ffffffffffffffffffffffffffffffffffffffff1614611cf4576040517f30cd747100000000000000000000000000000000000000000000000000000000815260040160405180910390fd5b836000601a60008381526020019081526020016000206040518060a0016040529081600082015481526020016001820160009054906101000a900473ffffffffffffffffffffffffffffffffffffffff1673ffffffffffffffffffffffffffffffffffffffff1673ffffffffffffffffffffffffffffffffffffffff168152602001600282015481526020016003820160009054906101000a900473ffffffffffffffffffffffffffffffffffffffff1673ffffffffffffffffffffffffffffffffffffffff1673ffffffffffffffffffffffffffffffffffffffff168152602001600482015481525050905060008160400151111580611dfa57506000816080015111155b15611e7257601a600083815260200190815260200160002060010160009054906101000a900473ffffffffffffffffffffffffffffffffffffffff166040517ff284c5b0000000000000000000000000000000000000000000000000000000008152600401611e699190613804565b60405180910390fd5b601a60008781526020019081526020016000206000808201600090556001820160006101000a81549073ffffffffffffffffffffffffffffffffffffffff021916905560028201600090556003820160006101000a81549073ffffffffffffffffffffffffffffffffffffffff021916905560048201600090555050505050505050565b6000601a600084815260200190815260200160002060010160009054906101000a900473ffffffffffffffffffffffffffffffffffffffff1690506000670de0b6b3a764000083611f479190613c80565b9050601a600085815260200190815260200160002060030160009054906101000a900473ffffffffffffffffffffffffffffffffffffffff1673ffffffffffffffffffffffffffffffffffffffff163373ffffffffffffffffffffffffffffffffffffffff1603611fed576040517f08c379a0000000000000000000000000000000000000000000000000000000008152600401611fe49061455b565b60405180910390fd5b601a6000858152602001908152602001600020600201548161200f9190613d2e565b341015612051576040517f08c379a0000000000000000000000000000000000000000000000000000000008152600401612048906145c7565b60405180910390fd5b82601a600086815260200190815260200160002060040160008282546120779190613fc9565b925050819055508173ffffffffffffffffffffffffffffffffffffffff166323b872dd601a600087815260200190815260200160002060030160009054906101000a900473ffffffffffffffffffffffffffffffffffffffff1633866040518463ffffffff1660e01b81526004016120f1939291906142b9565b6020604051808303816000875af1158015612110573d6000803e3d6000fd5b505050506040513d601f19601f820116820180604052508101906121349190614613565b50601a600085815260200190815260200160002060030160009054906101000a900473ffffffffffffffffffffffffffffffffffffffff1673ffffffffffffffffffffffffffffffffffffffff166108fc601a6000878152602001908152602001600020600201549081150290604051600060405180830381858888f193505050501580156121c7573d6000803e3d6000fd5b503373ffffffffffffffffffffffffffffffffffffffff16601a600086815260200190815260200160002060030160009054906101000a900473ffffffffffffffffffffffffffffffffffffffff1673ffffffffffffffffffffffffffffffffffffffff16601a600087815260200190815260200160002060010160009054906101000a900473ffffffffffffffffffffffffffffffffffffffff1673ffffffffffffffffffffffffffffffffffffffff167f3fcd13237f12b325ad38e1a729719495cc3154e6980571a6a7e8cf3ed872adf286601a60008a8152602001908152602001600020600201546040516122c0929190614290565b60405180910390a4601560008154809291906122db90614042565b919050555082601660008282546122f2919061408a565b92505081905550601a6000858152602001908152602001600020600201548361231b9190613d2e565b6017600082825461232c919061408a565b925050819055507f8d29117d7272f717e7b504cabe87b83b5bd6357fc35f806c989f2bb635f9e6046015546016546017544260405161236e94939291906140be565b60405180910390a150505050565b803360006019600084815260200190815260200160002060040160009054906101000a900473ffffffffffffffffffffffffffffffffffffffff1690508073ffffffffffffffffffffffffffffffffffffffff168273ffffffffffffffffffffffffffffffffffffffff161461241e576040517f30cd747100000000000000000000000000000000000000000000000000000000815260040160405180910390fd5b836000601960008381526020019081526020016000206040518060a0016040529081600082015481526020016001820160009054906101000a900473ffffffffffffffffffffffffffffffffffffffff1673ffffffffffffffffffffffffffffffffffffffff1673ffffffffffffffffffffffffffffffffffffffff16815260200160028201548152602001600382015481526020016004820160009054906101000a900473ffffffffffffffffffffffffffffffffffffffff1673ffffffffffffffffffffffffffffffffffffffff1673ffffffffffffffffffffffffffffffffffffffff16815250509050600081606001511161255457816040517fcd2ab00300000000000000000000000000000000000000000000000000000000815260040161254b9190613695565b60405180910390fd5b601960008781526020019081526020016000206000808201600090556001820160006101000a81549073ffffffffffffffffffffffffffffffffffffffff0219169055600282016000905560038201600090556004820160006101000a81549073ffffffffffffffffffffffffffffffffffffffff02191690555050505050505050565b60186020528060005260406000206000915090508060000154908060010160009054906101000a900473ffffffffffffffffffffffffffffffffffffffff16908060020160009054906101000a900473ffffffffffffffffffffffffffffffffffffffff16908060030154908060040154908060050154908060060154908060070160009054906101000a900460ff16905088565b601a6020528060005260406000206000915090508060000154908060010160009054906101000a900473ffffffffffffffffffffffffffffffffffffffff16908060020154908060030160009054906101000a900473ffffffffffffffffffffffffffffffffffffffff16908060040154905085565b826000601a60008381526020019081526020016000206040518060a0016040529081600082015481526020016001820160009054906101000a900473ffffffffffffffffffffffffffffffffffffffff1673ffffffffffffffffffffffffffffffffffffffff1673ffffffffffffffffffffffffffffffffffffffff168152602001600282015481526020016003820160009054906101000a900473ffffffffffffffffffffffffffffffffffffffff1673ffffffffffffffffffffffffffffffffffffffff1673ffffffffffffffffffffffffffffffffffffffff1681526020016004820154815250509050600081604001511115806127e957506000816080015111155b1561286157601a600083815260200190815260200160002060010160009054906101000a900473ffffffffffffffffffffffffffffffffffffffff166040517ff284c5b00000000000000000000000000000000000000000000000000000000081526004016128589190613804565b60405180910390fd5b84336000601a600084815260200190815260200160002060030160009054906101000a900473ffffffffffffffffffffffffffffffffffffffff1690508073ffffffffffffffffffffffffffffffffffffffff168273ffffffffffffffffffffffffffffffffffffffff1614612903576040517f30cd747100000000000000000000000000000000000000000000000000000000815260040160405180910390fd5b86601a60008a81526020019081526020016000206002018190555085601a60008a8152602001908152602001600020600401819055505050505050505050565b61294b61353d565b601960008381526020019081526020016000206040518060a0016040529081600082015481526020016001820160009054906101000a900473ffffffffffffffffffffffffffffffffffffffff1673ffffffffffffffffffffffffffffffffffffffff1673ffffffffffffffffffffffffffffffffffffffff16815260200160028201548152602001600382015481526020016004820160009054906101000a900473ffffffffffffffffffffffffffffffffffffffff1673ffffffffffffffffffffffffffffffffffffffff1673ffffffffffffffffffffffffffffffffffffffff16815250509050919050565b823360006018600084815260200190815260200160002060020160009054906101000a900473ffffffffffffffffffffffffffffffffffffffff1690508073ffffffffffffffffffffffffffffffffffffffff168273ffffffffffffffffffffffffffffffffffffffff1614612adc576040517f30cd747100000000000000000000000000000000000000000000000000000000815260040160405180910390fd5b8560006018600083815260200190815260200160002060405180610100016040529081600082015481526020016001820160009054906101000a900473ffffffffffffffffffffffffffffffffffffffff1673ffffffffffffffffffffffffffffffffffffffff1673ffffffffffffffffffffffffffffffffffffffff1681526020016002820160009054906101000a900473ffffffffffffffffffffffffffffffffffffffff1673ffffffffffffffffffffffffffffffffffffffff1673ffffffffffffffffffffffffffffffffffffffff168152602001600382015481526020016004820154815260200160058201548152602001600682015481526020016007820160009054906101000a900460ff161515151581525050905060008160a00151111580612c1257506000816080015111155b15612c5457816040517fa09e71c6000000000000000000000000000000000000000000000000000000008152600401612c4b9190613695565b60405180910390fd5b601860008981526020019081526020016000206000808201600090556001820160006101000a81549073ffffffffffffffffffffffffffffffffffffffff02191690556002820160006101000a81549073ffffffffffffffffffffffffffffffffffffffff021916905560038201600090556004820160009055600582016000905560068201600090556007820160006101000a81549060ff021916905550505050505050505050565b60196020528060005260406000206000915090508060000154908060010160009054906101000a900473ffffffffffffffffffffffffffffffffffffffff16908060020154908060030154908060040160009054906101000a900473ffffffffffffffffffffffffffffffffffffffff16905085565b813360006019600084815260200190815260200160002060040160009054906101000a900473ffffffffffffffffffffffffffffffffffffffff1690508073ffffffffffffffffffffffffffffffffffffffff168273ffffffffffffffffffffffffffffffffffffffff1614612e16576040517f30cd747100000000000000000000000000000000000000000000000000000000815260040160405180910390fd5b846000601960008381526020019081526020016000206040518060a0016040529081600082015481526020016001820160009054906101000a900473ffffffffffffffffffffffffffffffffffffffff1673ffffffffffffffffffffffffffffffffffffffff1673ffffffffffffffffffffffffffffffffffffffff16815260200160028201548152602001600382015481526020016004820160009054906101000a900473ffffffffffffffffffffffffffffffffffffffff1673ffffffffffffffffffffffffffffffffffffffff1673ffffffffffffffffffffffffffffffffffffffff168152505090506000816060015111612f4c57816040517fcd2ab003000000000000000000000000000000000000000000000000000000008152600401612f439190613695565b60405180910390fd5b85601960008981526020019081526020016000206003018190555050505050505050565b823360006018600084815260200190815260200160002060020160009054906101000a900473ffffffffffffffffffffffffffffffffffffffff1690508073ffffffffffffffffffffffffffffffffffffffff168273ffffffffffffffffffffffffffffffffffffffff1614613012576040517f30cd747100000000000000000000000000000000000000000000000000000000815260040160405180910390fd5b8560006018600083815260200190815260200160002060405180610100016040529081600082015481526020016001820160009054906101000a900473ffffffffffffffffffffffffffffffffffffffff1673ffffffffffffffffffffffffffffffffffffffff1673ffffffffffffffffffffffffffffffffffffffff1681526020016002820160009054906101000a900473ffffffffffffffffffffffffffffffffffffffff1673ffffffffffffffffffffffffffffffffffffffff1673ffffffffffffffffffffffffffffffffffffffff168152602001600382015481526020016004820154815260200160058201548152602001600682015481526020016007820160009054906101000a900460ff161515151581525050905060008160a0015111158061314857506000816080015111155b1561318a57816040517fa09e71c60000000000000000000000000000000000000000000000000000000081526004016131819190613695565b60405180910390fd5b86601860008a81526020019081526020016000206005018190555085601860008a8152602001908152602001600020600401819055505050505050505050565b6131d2613598565b6018600083815260200190815260200160002060405180610100016040529081600082015481526020016001820160009054906101000a900473ffffffffffffffffffffffffffffffffffffffff1673ffffffffffffffffffffffffffffffffffffffff1673ffffffffffffffffffffffffffffffffffffffff1681526020016002820160009054906101000a900473ffffffffffffffffffffffffffffffffffffffff1673ffffffffffffffffffffffffffffffffffffffff1673ffffffffffffffffffffffffffffffffffffffff168152602001600382015481526020016004820154815260200160058201548152602001600682015481526020016007820160009054906101000a900460ff1615151515815250509050919050565b6132f9613398565b600073ffffffffffffffffffffffffffffffffffffffff168173ffffffffffffffffffffffffffffffffffffffff1603613368576040517f08c379a000000000000000000000000000000000000000000000000000000000815260040161335f906146b2565b60405180910390fd5b61337181613416565b50565b600081600001549050919050565b6001816000016000828254019250508190555050565b6133a06134da565b73ffffffffffffffffffffffffffffffffffffffff166133be6119a4565b73ffffffffffffffffffffffffffffffffffffffff1614613414576040517f08c379a000000000000000000000000000000000000000000000000000000000815260040161340b9061471e565b60405180910390fd5b565b60008060009054906101000a900473ffffffffffffffffffffffffffffffffffffffff169050816000806101000a81548173ffffffffffffffffffffffffffffffffffffffff021916908373ffffffffffffffffffffffffffffffffffffffff1602179055508173ffffffffffffffffffffffffffffffffffffffff168173ffffffffffffffffffffffffffffffffffffffff167f8be0079c531659141344cd1fd0a4f28419497f9722a3daafe3b4186f6b6457e060405160405180910390a35050565b600033905090565b6040518060a0016040528060008152602001600073ffffffffffffffffffffffffffffffffffffffff16815260200160008152602001600073ffffffffffffffffffffffffffffffffffffffff168152602001600081525090565b6040518060a0016040528060008152602001600073ffffffffffffffffffffffffffffffffffffffff1681526020016000815260200160008152602001600073ffffffffffffffffffffffffffffffffffffffff1681525090565b60405180610100016040528060008152602001600073ffffffffffffffffffffffffffffffffffffffff168152602001600073ffffffffffffffffffffffffffffffffffffffff168152602001600081526020016000815260200160008152602001600081526020016000151581525090565b600080fd5b6000819050919050565b61362381613610565b811461362e57600080fd5b50565b6000813590506136408161361a565b92915050565b6000806040838503121561365d5761365c61360b565b5b600061366b85828601613631565b925050602061367c85828601613631565b9150509250929050565b61368f81613610565b82525050565b60006020820190506136aa6000830184613686565b92915050565b6000602082840312156136c6576136c561360b565b5b60006136d484828501613631565b91505092915050565b600073ffffffffffffffffffffffffffffffffffffffff82169050919050565b6000613708826136dd565b9050919050565b613718816136fd565b811461372357600080fd5b50565b6000813590506137358161370f565b92915050565b6000806000606084860312156137545761375361360b565b5b600061376286828701613726565b935050602061377386828701613631565b925050604061378486828701613631565b9150509250925092565b600080600080608085870312156137a8576137a761360b565b5b60006137b687828801613726565b94505060206137c787828801613631565b93505060406137d887828801613631565b92505060606137e987828801613631565b91505092959194509250565b6137fe816136fd565b82525050565b600060208201905061381960008301846137f5565b92915050565b61382881613610565b82525050565b613837816136fd565b82525050565b60a082016000820151613853600085018261381f565b506020820151613866602085018261382e565b506040820151613879604085018261381f565b50606082015161388c606085018261382e565b50608082015161389f608085018261381f565b50505050565b600060a0820190506138ba600083018461383d565b92915050565b60008115159050919050565b6138d5816138c0565b82525050565b6000610100820190506138f1600083018b613686565b6138fe602083018a6137f5565b61390b60408301896137f5565b6139186060830188613686565b6139256080830187613686565b61393260a0830186613686565b61393f60c0830185613686565b61394c60e08301846138cc565b9998505050505050505050565b600060a08201905061396e6000830188613686565b61397b60208301876137f5565b6139886040830186613686565b61399560608301856137f5565b6139a26080830184613686565b9695505050505050565b6000806000606084860312156139c5576139c461360b565b5b60006139d386828701613631565b93505060206139e486828701613631565b92505060406139f586828701613631565b9150509250925092565b60a082016000820151613a15600085018261381f565b506020820151613a28602085018261382e565b506040820151613a3b604085018261381f565b506060820151613a4e606085018261381f565b506080820151613a61608085018261382e565b50505050565b600060a082019050613a7c60008301846139ff565b92915050565b600080600060608486031215613a9b57613a9a61360b565b5b6000613aa986828701613631565b9350506020613aba86828701613726565b9250506040613acb86828701613631565b9150509250925092565b600060a082019050613aea6000830188613686565b613af760208301876137f5565b613b046040830186613686565b613b116060830185613686565b613b1e60808301846137f5565b9695505050505050565b613b31816138c0565b82525050565b61010082016000820151613b4e600085018261381f565b506020820151613b61602085018261382e565b506040820151613b74604085018261382e565b506060820151613b87606085018261381f565b506080820151613b9a608085018261381f565b5060a0820151613bad60a085018261381f565b5060c0820151613bc060c085018261381f565b5060e0820151613bd360e0850182613b28565b50505050565b600061010082019050613bef6000830184613b37565b92915050565b600060208284031215613c0b57613c0a61360b565b5b6000613c1984828501613726565b91505092915050565b7f4e487b7100000000000000000000000000000000000000000000000000000000600052601260045260246000fd5b7f4e487b7100000000000000000000000000000000000000000000000000000000600052601160045260246000fd5b6000613c8b82613610565b9150613c9683613610565b925082613ca657613ca5613c22565b5b828204905092915050565b600082825260208201905092915050565b7f596f752063616e206e6f74206275792074686973206e66740000000000000000600082015250565b6000613cf8601883613cb1565b9150613d0382613cc2565b602082019050919050565b60006020820190508181036000830152613d2781613ceb565b9050919050565b6000613d3982613610565b9150613d4483613610565b9250817fffffffffffffffffffffffffffffffffffffffffffffffffffffffffffffffff0483118215151615613d7d57613d7c613c51565b5b828202905092915050565b7f596f7520646f206e6f74206861766520656e6f75676820746f6b656e20746f2060008201527f6275792074686973206e66740000000000000000000000000000000000000000602082015250565b6000613de4602c83613cb1565b9150613def82613d88565b604082019050919050565b60006020820190508181036000830152613e1381613dd7565b9050919050565b6000604082019050613e2f60008301856137f5565b613e3c6020830184613686565b9392505050565b600081519050613e528161361a565b92915050565b600060208284031215613e6e57613e6d61360b565b5b6000613e7c84828501613e43565b91505092915050565b7f53656c6c657220646f6573206e6f74206861766520656e6f756768206e667473600082015250565b6000613ebb602083613cb1565b9150613ec682613e85565b602082019050919050565b60006020820190508181036000830152613eea81613eae565b9050919050565b7f54686973206e667420697320736f6c64206f7574000000000000000000000000600082015250565b6000613f27601483613cb1565b9150613f3282613ef1565b602082019050919050565b60006020820190508181036000830152613f5681613f1a565b9050919050565b7f4e6f7420656e6f756768206e6674730000000000000000000000000000000000600082015250565b6000613f93600f83613cb1565b9150613f9e82613f5d565b602082019050919050565b60006020820190508181036000830152613fc281613f86565b9050919050565b6000613fd482613610565b9150613fdf83613610565b9250828203905081811115613ff757613ff6613c51565b5b92915050565b600060808201905061401260008301876137f5565b61401f6020830186613686565b61402c6040830185613686565b6140396060830184613686565b95945050505050565b600061404d82613610565b91507fffffffffffffffffffffffffffffffffffffffffffffffffffffffffffffffff820361407f5761407e613c51565b5b600182019050919050565b600061409582613610565b91506140a083613610565b92508282019050808211156140b8576140b7613c51565b5b92915050565b60006080820190506140d36000830187613686565b6140e06020830186613686565b6140ed6040830185613686565b6140fa6060830184613686565b95945050505050565b600082825260208201905092915050565b50565b6000614124600083614103565b915061412f82614114565b600082019050919050565b600060a08201905061414f60008301876137f5565b61415c60208301866137f5565b6141696040830185613686565b6141766060830184613686565b818103608083015261418781614117565b905095945050505050565b7f54686973206e667420646f6573206e6f74206578697374202100000000000000600082015250565b60006141c8601983613cb1565b91506141d382614192565b602082019050919050565b600060208201905081810360008301526141f7816141bb565b9050919050565b7f596f7520646f6e2774206861766520656e6f75676820746f6b656e20746f206260008201527f75792074686973204974656d0000000000000000000000000000000000000000602082015250565b600061425a602c83613cb1565b9150614265826141fe565b604082019050919050565b600060208201905081810360008301526142898161424d565b9050919050565b60006040820190506142a56000830185613686565b6142b26020830184613686565b9392505050565b60006060820190506142ce60008301866137f5565b6142db60208301856137f5565b6142e86040830184613686565b949350505050565b600060808201905061430560008301876137f5565b61431260208301866137f5565b61431f6040830185613686565b61432c6060830184613686565b95945050505050565b600060a08201905061434a60008301886137f5565b61435760208301876137f5565b6143646040830186613686565b6143716060830185613686565b61437e6080830184613686565b9695505050505050565b7f57726f6e67205072696365202100000000000000000000000000000000000000600082015250565b60006143be600d83613cb1565b91506143c982614388565b602082019050919050565b600060208201905081810360008301526143ed816143b1565b9050919050565b7f4e6f2050726f6365656473000000000000000000000000000000000000000000600082015250565b600061442a600b83613cb1565b9150614435826143f4565b602082019050919050565b600060208201905081810360008301526144598161441d565b9050919050565b600081905092915050565b6000614478600083614460565b915061448382614114565b600082019050919050565b60006144998261446b565b9150819050919050565b7f5472616e73666572206661696c65640000000000000000000000000000000000600082015250565b60006144d9600f83613cb1565b91506144e4826144a3565b602082019050919050565b60006020820190508181036000830152614508816144cc565b9050919050565b7f596f752063616e277420627579207468697320546f6b656e0000000000000000600082015250565b6000614545601883613cb1565b91506145508261450f565b602082019050919050565b6000602082019050818103600083015261457481614538565b9050919050565b7f596f7520646f6e2774206861766520656e6f756768206d6f6e65790000000000600082015250565b60006145b1601b83613cb1565b91506145bc8261457b565b602082019050919050565b600060208201905081810360008301526145e0816145a4565b9050919050565b6145f0816138c0565b81146145fb57600080fd5b50565b60008151905061460d816145e7565b92915050565b6000602082840312156146295761462861360b565b5b6000614637848285016145fe565b91505092915050565b7f4f776e61626c653a206e6577206f776e657220697320746865207a65726f206160008201527f6464726573730000000000000000000000000000000000000000000000000000602082015250565b600061469c602683613cb1565b91506146a782614640565b604082019050919050565b600060208201905081810360008301526146cb8161468f565b9050919050565b7f4f776e61626c653a2063616c6c6572206973206e6f7420746865206f776e6572600082015250565b6000614708602083613cb1565b9150614713826146d2565b602082019050919050565b60006020820190508181036000830152614737816146fb565b905091905056fea2646970667358221220c35168400cd5dc42cc9c96f65db53bc81ecf52ee7aa9588848a21ebdd8e3cefc64736f6c63430008100033",
  "immutableReferences": {},
  "source": "// SPDX-License-Identifier: MIT\r\npragma solidity ^0.8.16;\r\n\r\nimport \"@openzeppelin/contracts/token/ERC721/IERC721.sol\";\r\nimport \"@openzeppelin/contracts/token/ERC721/ERC721.sol\";\r\nimport \"@openzeppelin/contracts/token/ERC1155/IERC1155.sol\";\r\nimport \"@openzeppelin/contracts/token/ERC1155/ERC1155.sol\";\r\nimport \"@openzeppelin/contracts/token/ERC20/IERC20.sol\";\r\nimport \"@openzeppelin/contracts/token/ERC20/ERC20.sol\";\r\nimport \"@openzeppelin/contracts/utils/Counters.sol\";\r\nimport \"@openzeppelin/contracts/access/Ownable.sol\";\r\nimport \"@openzeppelin/contracts/utils/math/SafeMath.sol\";\r\n\r\nerror NotOwner();\r\nerror AlreadyListed(address nftAddress, uint256 tokenId);\r\nerror NotListedERC721(uint256 itemCount);\r\nerror NotListedERC1155(uint256 listingId);\r\nerror NotListedERC20(address tokenAddress);\r\n\r\ncontract NftMarketplace is Ownable {\r\n    using SafeMath for uint256;\r\n    using Counters for Counters.Counter;\r\n    Counters.Counter public _listingIds;\r\n    Counters.Counter public _listingERC20;\r\n    Counters.Counter public _listingERC721;\r\n\r\n    uint256 public tokenERC20Sold;\r\n    uint256 public tokenERC20Listing;\r\n\r\n    // Info of ERC1155 Event\r\n    uint256 totalERC1155ListedTransaction;\r\n    uint256 totalERC1155ListedToken;\r\n    uint256 totalERC1155ListedValue;\r\n    uint256 totalERC1155SoldTransaction;\r\n    uint256 totalERC1155SoldToken;\r\n    uint256 totalERC1155SoldValue;\r\n\r\n    // Info of ERC721 Event\r\n    uint256 totalERC721ListedTransaction;\r\n    uint256 totalERC721ListedNft;\r\n    uint256 totalERC721ListedValue;\r\n    uint256 totalERC721SoldTransaction;\r\n    uint256 totalERC721SoldNft;\r\n    uint256 totalERC721SoldValue;\r\n\r\n    // Info of ERC20 Event\r\n    uint256 totalERC20ListedTransaction;\r\n    uint256 totalERC20ListedToken;\r\n    uint256 totalERC20ListedValue;\r\n    uint256 totalERC20SoldTransaction;\r\n    uint256 totalERC20SoldToken;\r\n    uint256 totalERC20SoldValue;\r\n\r\n\r\n    \r\n    // ListingERC20[] public sellerList;\r\n\r\n    struct ListingERC1155 {\r\n        uint256 itemId;\r\n        address nftAddress;\r\n        address seller;\r\n        uint256 tokenId;\r\n        uint256 amount;\r\n        uint256 price;\r\n        uint256 tokenAvailable;\r\n        bool soldOut;\r\n    }\r\n\r\n    struct ListingERC721 {\r\n        uint256 itemId;\r\n        address nftAddress;\r\n        uint256 tokenId;\r\n        uint256 price;\r\n        address seller;\r\n    }\r\n\r\n    struct ListingERC20 {\r\n        uint256 itemId;\r\n        address tokenAddress;\r\n        uint256 price;\r\n        address seller;\r\n        uint256 amount;\r\n    }\r\n\r\n    mapping(uint256 => ListingERC1155) public ERC1155List;\r\n    // mapping(address => mapping(uint256 => ListingERC721)) private ERC721List;\r\n    mapping(uint256 => ListingERC721) public ERC721List;\r\n    mapping(uint256 => ListingERC20) public ERC20List;\r\n    mapping(address => uint256) private ERC721Proceeds;\r\n\r\n    event ERC1155Listed(\r\n        address nftAddress,\r\n        address seller,\r\n        uint256 tokenId,\r\n        uint256 amount,\r\n        uint256 price\r\n    );\r\n\r\n    event ERC1155ListedInfo(\r\n        uint256 totalTransactions,\r\n        uint256 totalListedToken,\r\n        uint256 totalListedValue,\r\n        uint256 timestamp\r\n    );\r\n\r\n    event ERC721Listed(\r\n        address nftAddress,\r\n        address seller,\r\n        uint256 tokenId,\r\n        uint256 price\r\n    );\r\n\r\n    event ERC721ListedInfo(\r\n        uint256 totalTransactions,\r\n        uint256 totalListedNft,\r\n        uint256 totalListedValue,\r\n        uint256 timestamp\r\n    );\r\n\r\n    event ERC20Listed(\r\n        address tokenAddress,\r\n        address seller,\r\n        uint256 price,\r\n        uint256 amount\r\n    );\r\n\r\n    event ERC20ListedInfo(\r\n        uint256 totalTransactions,\r\n        uint256 totalListedToken,\r\n        uint256 totalListedValue,\r\n        uint256 timestamp\r\n    );\r\n\r\n    event ERC1155Sold(\r\n        address indexed nftAddress,\r\n        address seller,\r\n        address indexed buyer,\r\n        uint256 tokenId,\r\n        uint256 amount,\r\n        uint256 price\r\n    );\r\n\r\n    event ERC1155SoldInfo(\r\n        uint256 totalTransactions,\r\n        uint256 totalSoldToken,\r\n        uint256 totalSoldValue,\r\n        uint256 timestamp\r\n    );\r\n\r\n    event ERC721Sold(\r\n        address indexed nftAddress,\r\n        address indexed seller,\r\n        address indexed buyer,\r\n        uint256 tokenId,\r\n        uint256 price\r\n    );\r\n\r\n    event ERC721SoldInfo(\r\n        uint256 totalTransactions,\r\n        uint256 totalSoldNft,\r\n        uint256 totalSoldValue,\r\n        uint256 timestamp\r\n    );\r\n\r\n    event ERC20Sold(\r\n        address indexed tokenAddress,\r\n        address indexed seller,\r\n        address indexed buyer,\r\n        uint256 amount,\r\n        uint256 price\r\n    );\r\n\r\n    event ERC20SoldInfo(\r\n        uint256 totalTransactions,\r\n        uint256 totalSoldToken,\r\n        uint256 totalSoldValue,\r\n        uint256 timestamp\r\n    );\r\n\r\n    modifier isOwnerERC721(uint256 itemCount, address spender) {\r\n        address owner = ERC721List[itemCount].seller;\r\n        if (spender != owner) {\r\n            revert NotOwner();\r\n        }\r\n        _;\r\n    }\r\n\r\n    modifier isOwnerERC1155(uint256 listingId, address spender) {\r\n        address owner = ERC1155List[listingId].seller;\r\n        if (spender != owner) {\r\n            revert NotOwner();\r\n        }\r\n        _;\r\n    }\r\n\r\n    modifier isOwnerERC20(uint256 listingERC20, address spender) {\r\n        address owner = ERC20List[listingERC20].seller;\r\n        if (spender != owner) {\r\n            revert NotOwner();\r\n        }\r\n        _;\r\n    }\r\n\r\n    modifier notListed(uint256 itemCount) {\r\n        ListingERC721 memory listing = ERC721List[itemCount];\r\n        if (listing.price > 0) {\r\n            revert AlreadyListed(\r\n                ERC721List[itemCount].nftAddress,\r\n                ERC721List[itemCount].tokenId\r\n            );\r\n        }\r\n        _;\r\n    }\r\n\r\n    modifier isListedERC721(uint256 itemCount) {\r\n        ListingERC721 memory listing = ERC721List[itemCount];\r\n        if (listing.price <= 0) {\r\n            revert NotListedERC721(itemCount);\r\n        }\r\n        _;\r\n    }\r\n\r\n    modifier isListedERC20(uint256 listingERC20) {\r\n        ListingERC20 memory listing = ERC20List[listingERC20];\r\n        if (listing.price <= 0 || listing.amount <= 0) {\r\n            revert NotListedERC20(ERC20List[listingERC20].tokenAddress);\r\n        }\r\n        _;\r\n    }\r\n\r\n    modifier isListedERC1155(uint256 listingId) {\r\n        ListingERC1155 memory listing = ERC1155List[listingId];\r\n        if (listing.price <= 0 || listing.amount <= 0) {\r\n            revert NotListedERC1155(listingId);\r\n        }\r\n        _;\r\n    }\r\n\r\n    function listItemERC721(\r\n        address nftAddress,\r\n        uint256 tokenId,\r\n        uint256 price\r\n    ) external {\r\n        require(price > 0, \"Wrong Price !\");\r\n        IERC721 nft = IERC721(nftAddress);\r\n        _listingERC721.increment();\r\n        uint256 listingERC721 = _listingERC721.current();\r\n        \r\n        ERC721List[listingERC721] = ListingERC721(\r\n            listingERC721,\r\n            nftAddress,\r\n            tokenId,\r\n            price,\r\n            msg.sender\r\n        );\r\n        \r\n        totalERC721ListedTransaction++;\r\n        totalERC721ListedNft++;\r\n        totalERC721ListedValue += price;\r\n        emit ERC721Listed(nftAddress, msg.sender, tokenId, price);\r\n        emit ERC721ListedInfo(totalERC721ListedTransaction, totalERC721ListedNft, totalERC721ListedValue, block.timestamp);\r\n    }\r\n\r\n    function listItemERC1155(\r\n        address nftAddress,\r\n        uint256 tokenId,\r\n        uint256 amount,\r\n        uint256 price\r\n    ) external {\r\n        ERC1155 nft = ERC1155(nftAddress);\r\n        _listingIds.increment();\r\n        uint256 listingId = _listingIds.current();\r\n\r\n        ERC1155List[listingId] = ListingERC1155(\r\n            listingId,\r\n            nftAddress,\r\n            msg.sender,\r\n            tokenId,\r\n            amount,\r\n            price,\r\n            amount,\r\n            false\r\n        );\r\n        totalERC1155ListedTransaction++;\r\n        totalERC1155ListedToken += amount;\r\n        totalERC1155ListedValue += amount * price;\r\n        \r\n        emit ERC1155Listed(nftAddress, msg.sender, tokenId, amount, price);\r\n        emit ERC1155ListedInfo(totalERC1155ListedTransaction, totalERC1155ListedToken, totalERC1155ListedValue, block.timestamp);\r\n    }\r\n\r\n    function listItemERC20(\r\n        address tokenAddress,\r\n        uint256 amount,\r\n        uint256 price\r\n    ) external {\r\n        ERC20 token = ERC20(tokenAddress);\r\n        _listingERC20.increment();\r\n        uint256 listingERC20 = _listingERC20.current();\r\n        tokenERC20Listing += amount;\r\n        ERC20List[listingERC20] = ListingERC20(\r\n            listingERC20,\r\n            tokenAddress,\r\n            price,\r\n            msg.sender,\r\n            amount\r\n        );\r\n        totalERC20ListedTransaction++;\r\n        totalERC20ListedToken += amount;\r\n        totalERC20ListedValue += amount*price;\r\n        emit ERC20Listed(tokenAddress, msg.sender, price, tokenERC20Listing);\r\n        emit ERC20ListedInfo(totalERC20ListedTransaction, totalERC20ListedToken, totalERC20ListedValue, block.timestamp);\r\n    }\r\n\r\n    function buyItemERC721(uint256 itemCount)\r\n        external\r\n        payable\r\n        isListedERC721(itemCount)\r\n    {\r\n        ListingERC721 memory listedItem = ERC721List[itemCount];\r\n        require(itemCount <= _listingERC721.current(), \"This nft does not exist !\");\r\n        require(\r\n            msg.value >= listedItem.price,\r\n            \"You don't have enough token to buy this Item\"\r\n        );\r\n        ERC721Proceeds[listedItem.seller] += msg.value;\r\n        emit ERC721Sold(\r\n            ERC721List[itemCount].nftAddress,\r\n            ERC721List[itemCount].seller,\r\n            msg.sender,\r\n            ERC721List[itemCount].tokenId,\r\n            ERC721List[itemCount].price\r\n        );\r\n        totalERC721SoldTransaction++;\r\n        totalERC721SoldNft++;\r\n        totalERC721SoldValue += ERC721List[itemCount].price;\r\n        emit ERC721SoldInfo(totalERC721SoldTransaction, totalERC721SoldNft, totalERC721SoldValue, block.timestamp);\r\n        delete (ERC721List[itemCount]);\r\n        IERC721(listedItem.nftAddress).safeTransferFrom(\r\n            listedItem.seller,\r\n            msg.sender,\r\n            listedItem.tokenId\r\n        );\r\n    }\r\n\r\n    function buyItemERC1155(uint256 listingId, uint256 amount)\r\n        external\r\n        payable\r\n    {\r\n        ERC1155 nft = ERC1155(ERC1155List[listingId].nftAddress);\r\n        uint256 listingAmount = amount / 10**18;\r\n        require(\r\n            msg.sender != ERC1155List[listingId].seller,\r\n            \"You can not buy this nft\"\r\n        );\r\n\r\n        require(\r\n            msg.value >= listingAmount * ERC1155List[listingId].price,\r\n            \"You do not have enough token to buy this nft\"\r\n        );\r\n\r\n        require(\r\n            nft.balanceOf(\r\n                ERC1155List[listingId].seller,\r\n                ERC1155List[listingId].tokenId\r\n            ) >= amount,\r\n            \"Seller does not have enough nfts\"\r\n        );\r\n\r\n        require(\r\n            ERC1155List[listingId].soldOut == false,\r\n            \"This nft is sold out\"\r\n        );\r\n        require(\r\n            ERC1155List[listingId].tokenAvailable >= amount,\r\n            \"Not enough nfts\"\r\n        );\r\n        ERC1155List[listingId].tokenAvailable -= amount;\r\n        if (ERC1155List[listingId].tokenAvailable == 0) {\r\n            ERC1155List[listingId].soldOut = true;\r\n        }\r\n\r\n        emit ERC1155Sold(\r\n            ERC1155List[listingId].nftAddress,\r\n            ERC1155List[listingId].seller,\r\n            msg.sender,\r\n            ERC1155List[listingId].tokenId,\r\n            amount,\r\n            ERC1155List[listingId].price\r\n        );\r\n\r\n        totalERC1155SoldTransaction++;\r\n        totalERC1155SoldToken += amount;\r\n        totalERC1155SoldValue += amount * ERC1155List[listingId].price;\r\n\r\n        emit ERC1155SoldInfo(totalERC1155SoldTransaction, totalERC1155SoldToken, totalERC1155SoldValue, block.timestamp);\r\n        \r\n        nft.safeTransferFrom(\r\n            ERC1155List[listingId].seller,\r\n            msg.sender,\r\n            ERC1155List[listingId].tokenId,\r\n            amount,\r\n            \"\"\r\n        );\r\n\r\n        payable(ERC1155List[listingId].seller).transfer(\r\n            (ERC1155List[listingId].price)\r\n        );\r\n    }\r\n\r\n    function buyItemERC20(uint256 listingERC20, uint256 amount)\r\n        external\r\n        payable\r\n    {\r\n        ERC20 token = ERC20(ERC20List[listingERC20].tokenAddress);\r\n        uint256 listingAmount = amount / 10**18;\r\n        require(msg.sender != ERC20List[listingERC20].seller, \"You can't buy this Token\");\r\n        require(\r\n            msg.value >= listingAmount * ERC20List[listingERC20].price,\r\n            \"You don't have enough money\"\r\n        );\r\n\r\n        ERC20List[listingERC20].amount -= amount;\r\n        token.transferFrom(ERC20List[listingERC20].seller, msg.sender, amount);\r\n\r\n        payable(ERC20List[listingERC20].seller).transfer(\r\n            (ERC20List[listingERC20].price)\r\n        );\r\n\r\n        emit ERC20Sold(\r\n            ERC20List[listingERC20].tokenAddress,\r\n            ERC20List[listingERC20].seller,\r\n            msg.sender,\r\n            amount,\r\n            ERC20List[listingERC20].price\r\n        );\r\n        totalERC20SoldTransaction++;\r\n        totalERC20SoldToken += amount;\r\n        totalERC20SoldValue += amount * ERC20List[listingERC20].price;\r\n        \r\n        emit ERC20SoldInfo(totalERC20SoldTransaction, totalERC20SoldToken, totalERC20SoldValue, block.timestamp);\r\n    }\r\n\r\n    function updateListingERC721(uint256 itemCount, uint256 newPrice)\r\n        external\r\n        isOwnerERC721(itemCount, msg.sender)\r\n        isListedERC721(itemCount)\r\n    {\r\n        ERC721List[itemCount].price = newPrice;\r\n    }\r\n\r\n    function updateListingERC1155(\r\n        uint256 listingId,\r\n        uint256 newPrice,\r\n        uint256 newAmount\r\n    )\r\n        external\r\n        isOwnerERC1155(listingId, msg.sender)\r\n        isListedERC1155(listingId)\r\n    {\r\n        ERC1155List[listingId].price = newPrice;\r\n        ERC1155List[listingId].amount = newAmount;\r\n    }\r\n\r\n    function updateListingERC20(\r\n        uint256 listingERC20,\r\n        uint256 newPrice,\r\n        uint256 newAmount\r\n    )\r\n        external\r\n        isListedERC20(listingERC20)\r\n        isOwnerERC20(listingERC20, msg.sender)\r\n    {\r\n        ERC20List[listingERC20].price = newPrice;\r\n        ERC20List[listingERC20].amount = newAmount;\r\n    }\r\n\r\n    function getListingERC721(uint256 itemCount)\r\n        external\r\n        view\r\n        returns (ListingERC721 memory)\r\n    {\r\n        return ERC721List[itemCount];\r\n    }\r\n\r\n    function getListingERC1155(uint256 listingId)\r\n        external\r\n        view\r\n        returns (ListingERC1155 memory)\r\n    {\r\n        return ERC1155List[listingId];\r\n    }\r\n\r\n    function getListingERC20(uint256 listingERC20)\r\n        external\r\n        view\r\n        returns (ListingERC20 memory)\r\n    {\r\n        return ERC20List[listingERC20];\r\n    }\r\n\r\n    function cancelListingERC721(uint256 itemCount)\r\n        external\r\n        isOwnerERC721(itemCount, msg.sender)\r\n        isListedERC721(itemCount)\r\n    {\r\n        delete (ERC721List[itemCount]);\r\n    }\r\n\r\n    function cancelListingERC1155(\r\n        uint256 listingId,\r\n        address nftAddress,\r\n        uint256 tokenId\r\n    )\r\n        external\r\n        isOwnerERC1155(listingId, msg.sender)\r\n        isListedERC1155(listingId)\r\n    {\r\n        delete (ERC1155List[listingId]);\r\n    }\r\n\r\n    function cancelListingERC20(uint256 listingERC20)\r\n        external\r\n        isOwnerERC20(listingERC20, msg.sender)\r\n        isListedERC20(listingERC20)\r\n    {\r\n        delete (ERC20List[listingERC20]);\r\n    }\r\n\r\n    function withdrawProceeds() external {\r\n        uint256 proceeds = ERC721Proceeds[msg.sender];\r\n        require(proceeds > 0, \"No Proceeds\");\r\n        ERC721Proceeds[msg.sender] = 0;\r\n        (bool success, ) = payable(msg.sender).call{value: proceeds}(\"\");\r\n        require(success, \"Transfer failed\");\r\n    }\r\n}\r\n",
  "sourcePath": "D:\\WorkSpace\\Jobs\\Nft Marketplace\\NftMarketplace_smartcontract\\contracts\\NftMarketplace.sol",
  "compiler": {
    "name": "solc",
    "version": "0.8.16+commit.07a7930e.Emscripten.clang"
  },
  "schemaVersion": "3.4.9",
  "updatedAt": "2022-12-13T05:08:57.724Z",
  "networkType": "ethereum",
  "devdoc": {
    "kind": "dev",
    "methods": {
      "owner()": {
        "details": "Returns the address of the current owner."
      },
      "renounceOwnership()": {
        "details": "Leaves the contract without owner. It will not be possible to call `onlyOwner` functions anymore. Can only be called by the current owner. NOTE: Renouncing ownership will leave the contract without an owner, thereby removing any functionality that is only available to the owner."
      },
      "transferOwnership(address)": {
        "details": "Transfers ownership of the contract to a new account (`newOwner`). Can only be called by the current owner."
      }
    },
    "version": 1
  },
  "userdoc": {
    "kind": "user",
    "methods": {},
    "version": 1
  }
}