{
  "contractName": "NftMarketplace",
  "abi": [
    {
      "inputs": [
        {
          "internalType": "address",
          "name": "nftAddress",
          "type": "address"
        },
        {
          "internalType": "uint256",
          "name": "tokenId",
          "type": "uint256"
        }
      ],
      "name": "AlreadyListed",
      "type": "error"
    },
    {
      "inputs": [
        {
          "internalType": "uint256",
          "name": "listingId",
          "type": "uint256"
        }
      ],
      "name": "NotListedERC1155",
      "type": "error"
    },
    {
      "inputs": [
        {
          "internalType": "address",
          "name": "tokenAddress",
          "type": "address"
        }
      ],
      "name": "NotListedERC20",
      "type": "error"
    },
    {
      "inputs": [
        {
          "internalType": "address",
          "name": "nftAddress",
          "type": "address"
        },
        {
          "internalType": "uint256",
          "name": "tokenId",
          "type": "uint256"
        }
      ],
      "name": "NotListedERC721",
      "type": "error"
    },
    {
      "inputs": [],
      "name": "NotOwner",
      "type": "error"
    },
    {
      "anonymous": false,
      "inputs": [
        {
          "indexed": false,
          "internalType": "address",
          "name": "nftAddress",
          "type": "address"
        },
        {
          "indexed": false,
          "internalType": "address",
          "name": "seller",
          "type": "address"
        },
        {
          "indexed": false,
          "internalType": "uint256",
          "name": "tokenId",
          "type": "uint256"
        },
        {
          "indexed": false,
          "internalType": "uint256",
          "name": "amount",
          "type": "uint256"
        },
        {
          "indexed": false,
          "internalType": "uint256",
          "name": "price",
          "type": "uint256"
        }
      ],
      "name": "ERC1155Listed",
      "type": "event"
    },
    {
      "anonymous": false,
      "inputs": [
        {
          "indexed": false,
          "internalType": "address",
          "name": "nftAddress",
          "type": "address"
        },
        {
          "indexed": false,
          "internalType": "address",
          "name": "seller",
          "type": "address"
        },
        {
          "indexed": false,
          "internalType": "address",
          "name": "buyer",
          "type": "address"
        },
        {
          "indexed": false,
          "internalType": "uint256",
          "name": "tokenId",
          "type": "uint256"
        },
        {
          "indexed": false,
          "internalType": "uint256",
          "name": "amount",
          "type": "uint256"
        },
        {
          "indexed": false,
          "internalType": "uint256",
          "name": "price",
          "type": "uint256"
        }
      ],
      "name": "ERC1155Sold",
      "type": "event"
    },
    {
      "anonymous": false,
      "inputs": [
        {
          "indexed": false,
          "internalType": "address",
          "name": "tokenAddress",
          "type": "address"
        },
        {
          "indexed": false,
          "internalType": "address",
          "name": "seller",
          "type": "address"
        },
        {
          "indexed": false,
          "internalType": "uint256",
          "name": "price",
          "type": "uint256"
        },
        {
          "indexed": false,
          "internalType": "uint256",
          "name": "amount",
          "type": "uint256"
        }
      ],
      "name": "ERC20Listed",
      "type": "event"
    },
    {
      "anonymous": false,
      "inputs": [
        {
          "indexed": false,
          "internalType": "address",
          "name": "tokenAddress",
          "type": "address"
        },
        {
          "indexed": false,
          "internalType": "address",
          "name": "buyer",
          "type": "address"
        },
        {
          "indexed": false,
          "internalType": "uint256",
          "name": "amount",
          "type": "uint256"
        }
      ],
      "name": "ERC20Sold",
      "type": "event"
    },
    {
      "anonymous": false,
      "inputs": [
        {
          "indexed": false,
          "internalType": "address",
          "name": "nftAddress",
          "type": "address"
        },
        {
          "indexed": false,
          "internalType": "address",
          "name": "seller",
          "type": "address"
        },
        {
          "indexed": false,
          "internalType": "uint256",
          "name": "tokenId",
          "type": "uint256"
        },
        {
          "indexed": false,
          "internalType": "uint256",
          "name": "price",
          "type": "uint256"
        }
      ],
      "name": "ERC721Listed",
      "type": "event"
    },
    {
      "anonymous": false,
      "inputs": [
        {
          "indexed": false,
          "internalType": "address",
          "name": "nftAddress",
          "type": "address"
        },
        {
          "indexed": false,
          "internalType": "address",
          "name": "seller",
          "type": "address"
        },
        {
          "indexed": false,
          "internalType": "address",
          "name": "buyer",
          "type": "address"
        },
        {
          "indexed": false,
          "internalType": "uint256",
          "name": "tokenId",
          "type": "uint256"
        },
        {
          "indexed": false,
          "internalType": "uint256",
          "name": "price",
          "type": "uint256"
        }
      ],
      "name": "ERC721Sold",
      "type": "event"
    },
    {
      "anonymous": false,
      "inputs": [
        {
          "indexed": true,
          "internalType": "address",
          "name": "previousOwner",
          "type": "address"
        },
        {
          "indexed": true,
          "internalType": "address",
          "name": "newOwner",
          "type": "address"
        }
      ],
      "name": "OwnershipTransferred",
      "type": "event"
    },
    {
      "inputs": [],
      "name": "owner",
      "outputs": [
        {
          "internalType": "address",
          "name": "",
          "type": "address"
        }
      ],
      "stateMutability": "view",
      "type": "function",
      "constant": true
    },
    {
      "inputs": [],
      "name": "renounceOwnership",
      "outputs": [],
      "stateMutability": "nonpayable",
      "type": "function"
    },
    {
      "inputs": [
        {
          "internalType": "uint256",
          "name": "",
          "type": "uint256"
        }
      ],
      "name": "sellerList",
      "outputs": [
        {
          "internalType": "address",
          "name": "tokenAddress",
          "type": "address"
        },
        {
          "internalType": "uint256",
          "name": "price",
          "type": "uint256"
        },
        {
          "internalType": "address",
          "name": "seller",
          "type": "address"
        },
        {
          "internalType": "uint256",
          "name": "amount",
          "type": "uint256"
        }
      ],
      "stateMutability": "view",
      "type": "function",
      "constant": true
    },
    {
      "inputs": [],
      "name": "tokenERC20Listing",
      "outputs": [
        {
          "internalType": "uint256",
          "name": "",
          "type": "uint256"
        }
      ],
      "stateMutability": "view",
      "type": "function",
      "constant": true
    },
    {
      "inputs": [],
      "name": "tokenERC20Sold",
      "outputs": [
        {
          "internalType": "uint256",
          "name": "",
          "type": "uint256"
        }
      ],
      "stateMutability": "view",
      "type": "function",
      "constant": true
    },
    {
      "inputs": [
        {
          "internalType": "address",
          "name": "newOwner",
          "type": "address"
        }
      ],
      "name": "transferOwnership",
      "outputs": [],
      "stateMutability": "nonpayable",
      "type": "function"
    },
    {
      "inputs": [
        {
          "internalType": "address",
          "name": "nftAddress",
          "type": "address"
        },
        {
          "internalType": "uint256",
          "name": "tokenId",
          "type": "uint256"
        },
        {
          "internalType": "uint256",
          "name": "price",
          "type": "uint256"
        }
      ],
      "name": "listItemERC721",
      "outputs": [],
      "stateMutability": "nonpayable",
      "type": "function"
    },
    {
      "inputs": [
        {
          "internalType": "address",
          "name": "nftAddress",
          "type": "address"
        },
        {
          "internalType": "uint256",
          "name": "tokenId",
          "type": "uint256"
        },
        {
          "internalType": "uint256",
          "name": "amount",
          "type": "uint256"
        },
        {
          "internalType": "uint256",
          "name": "price",
          "type": "uint256"
        }
      ],
      "name": "listItemERC1155",
      "outputs": [],
      "stateMutability": "nonpayable",
      "type": "function"
    },
    {
      "inputs": [
        {
          "internalType": "address",
          "name": "tokenAddress",
          "type": "address"
        },
        {
          "internalType": "uint256",
          "name": "amount",
          "type": "uint256"
        },
        {
          "internalType": "uint256",
          "name": "price",
          "type": "uint256"
        }
      ],
      "name": "listItemERC20",
      "outputs": [],
      "stateMutability": "nonpayable",
      "type": "function"
    },
    {
      "inputs": [
        {
          "internalType": "address",
          "name": "nftAddress",
          "type": "address"
        },
        {
          "internalType": "uint256",
          "name": "tokenId",
          "type": "uint256"
        }
      ],
      "name": "buyItemERC721",
      "outputs": [],
      "stateMutability": "payable",
      "type": "function",
      "payable": true
    },
    {
      "inputs": [
        {
          "internalType": "uint256",
          "name": "listingId",
          "type": "uint256"
        },
        {
          "internalType": "uint256",
          "name": "amount",
          "type": "uint256"
        }
      ],
      "name": "buyItemERC1155",
      "outputs": [],
      "stateMutability": "payable",
      "type": "function",
      "payable": true
    },
    {
      "inputs": [
        {
          "internalType": "uint256",
          "name": "listingERC20",
          "type": "uint256"
        },
        {
          "internalType": "uint256",
          "name": "amount",
          "type": "uint256"
        }
      ],
      "name": "buyItemERC20",
      "outputs": [],
      "stateMutability": "payable",
      "type": "function",
      "payable": true
    },
    {
      "inputs": [
        {
          "internalType": "address",
          "name": "nftAddress",
          "type": "address"
        },
        {
          "internalType": "uint256",
          "name": "tokenId",
          "type": "uint256"
        },
        {
          "internalType": "uint256",
          "name": "newPrice",
          "type": "uint256"
        }
      ],
      "name": "updateListingERC721",
      "outputs": [],
      "stateMutability": "nonpayable",
      "type": "function"
    },
    {
      "inputs": [
        {
          "internalType": "uint256",
          "name": "listingId",
          "type": "uint256"
        },
        {
          "internalType": "uint256",
          "name": "newPrice",
          "type": "uint256"
        },
        {
          "internalType": "uint256",
          "name": "newAmount",
          "type": "uint256"
        }
      ],
      "name": "updateListingERC1155",
      "outputs": [],
      "stateMutability": "nonpayable",
      "type": "function"
    },
    {
      "inputs": [
        {
          "internalType": "uint256",
          "name": "listingERC20",
          "type": "uint256"
        },
        {
          "internalType": "uint256",
          "name": "newPrice",
          "type": "uint256"
        },
        {
          "internalType": "uint256",
          "name": "newAmount",
          "type": "uint256"
        }
      ],
      "name": "updateListingERC20",
      "outputs": [],
      "stateMutability": "nonpayable",
      "type": "function"
    },
    {
      "inputs": [
        {
          "internalType": "address",
          "name": "nftAddress",
          "type": "address"
        },
        {
          "internalType": "uint256",
          "name": "tokenId",
          "type": "uint256"
        }
      ],
      "name": "getListingERC721",
      "outputs": [
        {
          "components": [
            {
              "internalType": "uint256",
              "name": "price",
              "type": "uint256"
            },
            {
              "internalType": "address",
              "name": "seller",
              "type": "address"
            }
          ],
          "internalType": "struct NftMarketplace.ListingERC721",
          "name": "",
          "type": "tuple"
        }
      ],
      "stateMutability": "view",
      "type": "function",
      "constant": true
    },
    {
      "inputs": [
        {
          "internalType": "uint256",
          "name": "listingId",
          "type": "uint256"
        }
      ],
      "name": "getListingERC1155",
      "outputs": [
        {
          "components": [
            {
              "internalType": "address",
              "name": "nftAddress",
              "type": "address"
            },
            {
              "internalType": "address",
              "name": "seller",
              "type": "address"
            },
            {
              "internalType": "uint256",
              "name": "tokenId",
              "type": "uint256"
            },
            {
              "internalType": "uint256",
              "name": "amount",
              "type": "uint256"
            },
            {
              "internalType": "uint256",
              "name": "price",
              "type": "uint256"
            },
            {
              "internalType": "uint256",
              "name": "tokenAvailable",
              "type": "uint256"
            },
            {
              "internalType": "bool",
              "name": "soldOut",
              "type": "bool"
            }
          ],
          "internalType": "struct NftMarketplace.ListingERC1155",
          "name": "",
          "type": "tuple"
        }
      ],
      "stateMutability": "view",
      "type": "function",
      "constant": true
    },
    {
      "inputs": [
        {
          "internalType": "uint256",
          "name": "listingERC20",
          "type": "uint256"
        }
      ],
      "name": "getListingERC20",
      "outputs": [
        {
          "components": [
            {
              "internalType": "address",
              "name": "tokenAddress",
              "type": "address"
            },
            {
              "internalType": "uint256",
              "name": "price",
              "type": "uint256"
            },
            {
              "internalType": "address",
              "name": "seller",
              "type": "address"
            },
            {
              "internalType": "uint256",
              "name": "amount",
              "type": "uint256"
            }
          ],
          "internalType": "struct NftMarketplace.ListingERC20",
          "name": "",
          "type": "tuple"
        }
      ],
      "stateMutability": "view",
      "type": "function",
      "constant": true
    },
    {
      "inputs": [
        {
          "internalType": "address",
          "name": "nftAddress",
          "type": "address"
        },
        {
          "internalType": "uint256",
          "name": "tokenId",
          "type": "uint256"
        }
      ],
      "name": "cancelListingERC721",
      "outputs": [],
      "stateMutability": "nonpayable",
      "type": "function"
    },
    {
      "inputs": [
        {
          "internalType": "uint256",
          "name": "listingId",
          "type": "uint256"
        },
        {
          "internalType": "address",
          "name": "nftAddress",
          "type": "address"
        },
        {
          "internalType": "uint256",
          "name": "tokenId",
          "type": "uint256"
        }
      ],
      "name": "cancelListingERC1155",
      "outputs": [],
      "stateMutability": "nonpayable",
      "type": "function"
    },
    {
      "inputs": [
        {
          "internalType": "uint256",
          "name": "listingERC20",
          "type": "uint256"
        }
      ],
      "name": "cancelListingERC20",
      "outputs": [],
      "stateMutability": "nonpayable",
      "type": "function"
    },
    {
      "inputs": [],
      "name": "withdrawProceeds",
      "outputs": [],
      "stateMutability": "nonpayable",
      "type": "function"
    }
  ],
  "bytecode": "0x60806040523480156200001157600080fd5b5062000032620000266200003860201b60201c565b6200004060201b60201c565b62000104565b600033905090565b60008060009054906101000a900473ffffffffffffffffffffffffffffffffffffffff169050816000806101000a81548173ffffffffffffffffffffffffffffffffffffffff021916908373ffffffffffffffffffffffffffffffffffffffff1602179055508173ffffffffffffffffffffffffffffffffffffffff168173ffffffffffffffffffffffffffffffffffffffff167f8be0079c531659141344cd1fd0a4f28419497f9722a3daafe3b4186f6b6457e060405160405180910390a35050565b613eb280620001146000396000f3fe6080604052600436106101355760003560e01c806395764538116100ab578063d6cbaace1161006f578063d6cbaace14610399578063ed546050146103c2578063f123435b146103eb578063f2fde38b14610428578063f42a1b3114610451578063f43fcaa51461049157610135565b806395764538146102c3578063a2028931146102ee578063a4877b851461032b578063a62b5b9f14610354578063cdd6ebea1461037057610135565b806353faaa99116100fd57806353faaa99146101fc578063715018a61461021857806383fd07681461022f5780638d88aecc146102585780638da5cb5b146102815780639038e693146102ac57610135565b80630372009a1461013a57806319c62aab146101565780631f71b1481461018157806330e07ee0146101aa57806346e62b2e146101d3575b600080fd5b610154600480360381019061014f9190612f70565b6104ce565b005b34801561016257600080fd5b5061016b610ab7565b6040516101789190612fbf565b60405180910390f35b34801561018d57600080fd5b506101a860048036038101906101a39190613038565b610abd565b005b3480156101b657600080fd5b506101d160048036038101906101cc9190613078565b610d42565b005b3480156101df57600080fd5b506101fa60048036038101906101f591906130cb565b610ec3565b005b61021660048036038101906102119190613038565b611075565b005b34801561022457600080fd5b5061022d6114e3565b005b34801561023b57600080fd5b5061025660048036038101906102519190613078565b6114f7565b005b34801561026457600080fd5b5061027f600480360381019061027a9190613078565b611853565b005b34801561028d57600080fd5b50610296611aaf565b6040516102a39190613141565b60405180910390f35b3480156102b857600080fd5b506102c1611ad8565b005b3480156102cf57600080fd5b506102d8611c54565b6040516102e59190612fbf565b60405180910390f35b3480156102fa57600080fd5b506103156004803603810190610310919061315c565b611c5a565b60405161032291906131fc565b60405180910390f35b34801561033757600080fd5b50610352600480360381019061034d919061315c565b611d47565b005b61036e60048036038101906103699190612f70565b611fd9565b005b34801561037c57600080fd5b5061039760048036038101906103929190613217565b612298565b005b3480156103a557600080fd5b506103c060048036038101906103bb919061326a565b6124ee565b005b3480156103ce57600080fd5b506103e960048036038101906103e49190613217565b61279f565b005b3480156103f757600080fd5b50610412600480360381019061040d919061315c565b6129ee565b60405161041f9190613366565b60405180910390f35b34801561043457600080fd5b5061044f600480360381019061044a9190613381565b612b0a565b005b34801561045d57600080fd5b506104786004803603810190610473919061315c565b612b8d565b60405161048894939291906133ae565b60405180910390f35b34801561049d57600080fd5b506104b860048036038101906104b39190613038565b612c0d565b6040516104c59190613422565b60405180910390f35b60006006600084815260200190815260200160002060000160009054906101000a900473ffffffffffffffffffffffffffffffffffffffff1690506006600084815260200190815260200160002060010160009054906101000a900473ffffffffffffffffffffffffffffffffffffffff1673ffffffffffffffffffffffffffffffffffffffff163373ffffffffffffffffffffffffffffffffffffffff16036105ad576040517f08c379a00000000000000000000000000000000000000000000000000000000081526004016105a49061349a565b60405180910390fd5b670de0b6b3a7640000826105c19190613518565b60066000858152602001908152602001600020600401546105e29190613549565b341015610624576040517f08c379a000000000000000000000000000000000000000000000000000000000815260040161061b90613615565b60405180910390fd5b818173ffffffffffffffffffffffffffffffffffffffff1662fdd58e6006600087815260200190815260200160002060010160009054906101000a900473ffffffffffffffffffffffffffffffffffffffff1660066000888152602001908152602001600020600201546040518363ffffffff1660e01b81526004016106ab929190613635565b602060405180830381865afa1580156106c8573d6000803e3d6000fd5b505050506040513d601f19601f820116820180604052508101906106ec9190613673565b101561072d576040517f08c379a0000000000000000000000000000000000000000000000000000000008152600401610724906136ec565b60405180910390fd5b600015156006600085815260200190815260200160002060060160009054906101000a900460ff16151514610797576040517f08c379a000000000000000000000000000000000000000000000000000000000815260040161078e90613758565b60405180910390fd5b81600660008581526020019081526020016000206005015410156107f0576040517f08c379a00000000000000000000000000000000000000000000000000000000081526004016107e7906137c4565b60405180910390fd5b8160066000858152602001908152602001600020600501600082825461081691906137e4565b92505081905550600060066000858152602001908152602001600020600501540361086b5760016006600085815260200190815260200160002060060160006101000a81548160ff0219169083151502179055505b7f345b3d35855ef39f48904207a91972d8ebc2da5a5e4f13306d74fa501196a5616006600085815260200190815260200160002060000160009054906101000a900473ffffffffffffffffffffffffffffffffffffffff166006600086815260200190815260200160002060010160009054906101000a900473ffffffffffffffffffffffffffffffffffffffff1633600660008881526020019081526020016000206002015486600660008a81526020019081526020016000206004015460405161093c96959493929190613818565b60405180910390a18073ffffffffffffffffffffffffffffffffffffffff1663f242432a6006600086815260200190815260200160002060010160009054906101000a900473ffffffffffffffffffffffffffffffffffffffff16336006600088815260200190815260200160002060020154866040518563ffffffff1660e01b81526004016109cf94939291906138b0565b600060405180830381600087803b1580156109e957600080fd5b505af11580156109fd573d6000803e3d6000fd5b505050506006600084815260200190815260200160002060010160009054906101000a900473ffffffffffffffffffffffffffffffffffffffff1673ffffffffffffffffffffffffffffffffffffffff166108fc6006600086815260200190815260200160002060040154670de0b6b3a764000085610a7c9190613518565b610a869190613549565b9081150290604051600060405180830381858888f19350505050158015610ab1573d6000803e3d6000fd5b50505050565b60035481565b818133600083905060008173ffffffffffffffffffffffffffffffffffffffff16636352211e856040518263ffffffff1660e01b8152600401610b009190612fbf565b602060405180830381865afa158015610b1d573d6000803e3d6000fd5b505050506040513d601f19601f82011682018060405250810190610b41919061391d565b90508073ffffffffffffffffffffffffffffffffffffffff168373ffffffffffffffffffffffffffffffffffffffff1614610ba8576040517f30cd747100000000000000000000000000000000000000000000000000000000815260040160405180910390fd5b86866000600760008473ffffffffffffffffffffffffffffffffffffffff1673ffffffffffffffffffffffffffffffffffffffff1681526020019081526020016000206000838152602001908152602001600020604051806040016040529081600082015481526020016001820160009054906101000a900473ffffffffffffffffffffffffffffffffffffffff1673ffffffffffffffffffffffffffffffffffffffff1673ffffffffffffffffffffffffffffffffffffffff168152505090506000816000015111610cb45782826040517fdf7ab3d1000000000000000000000000000000000000000000000000000000008152600401610cab929190613635565b60405180910390fd5b600760008b73ffffffffffffffffffffffffffffffffffffffff1673ffffffffffffffffffffffffffffffffffffffff16815260200190815260200160002060008a81526020019081526020016000206000808201600090556001820160006101000a81549073ffffffffffffffffffffffffffffffffffffffff0219169055505050505050505050505050565b6000839050610d516002612cd8565b6000610d5d6002612cee565b90508360046000828254610d71919061394a565b9250508190555060405180608001604052808673ffffffffffffffffffffffffffffffffffffffff1681526020018481526020013373ffffffffffffffffffffffffffffffffffffffff168152602001858152506008600083815260200190815260200160002060008201518160000160006101000a81548173ffffffffffffffffffffffffffffffffffffffff021916908373ffffffffffffffffffffffffffffffffffffffff1602179055506020820151816001015560408201518160020160006101000a81548173ffffffffffffffffffffffffffffffffffffffff021916908373ffffffffffffffffffffffffffffffffffffffff160217905550606082015181600301559050507f5aa43ce7cbd26ef8feed7d56eb866a21d4d2cb0347115061c0b7d077bd848c3b853385600454604051610eb4949392919061397e565b60405180910390a15050505050565b6000849050610ed26001612cd8565b6000610ede6001612cee565b90506040518060e001604052808773ffffffffffffffffffffffffffffffffffffffff1681526020013373ffffffffffffffffffffffffffffffffffffffff168152602001868152602001858152602001848152602001858152602001600015158152506006600083815260200190815260200160002060008201518160000160006101000a81548173ffffffffffffffffffffffffffffffffffffffff021916908373ffffffffffffffffffffffffffffffffffffffff16021790555060208201518160010160006101000a81548173ffffffffffffffffffffffffffffffffffffffff021916908373ffffffffffffffffffffffffffffffffffffffff16021790555060408201518160020155606082015181600301556080820151816004015560a0820151816005015560c08201518160060160006101000a81548160ff0219169083151502179055509050507f40e27a29cfb083bd6a82129fbf1d357b24296fffde131e0389d5960e417b84e586338787876040516110659594939291906139c3565b60405180910390a1505050505050565b81816000600760008473ffffffffffffffffffffffffffffffffffffffff1673ffffffffffffffffffffffffffffffffffffffff1681526020019081526020016000206000838152602001908152602001600020604051806040016040529081600082015481526020016001820160009054906101000a900473ffffffffffffffffffffffffffffffffffffffff1673ffffffffffffffffffffffffffffffffffffffff1673ffffffffffffffffffffffffffffffffffffffff1681525050905060008160000151116111815782826040517fdf7ab3d1000000000000000000000000000000000000000000000000000000008152600401611178929190613635565b60405180910390fd5b6000600760008773ffffffffffffffffffffffffffffffffffffffff1673ffffffffffffffffffffffffffffffffffffffff1681526020019081526020016000206000868152602001908152602001600020604051806040016040529081600082015481526020016001820160009054906101000a900473ffffffffffffffffffffffffffffffffffffffff1673ffffffffffffffffffffffffffffffffffffffff1673ffffffffffffffffffffffffffffffffffffffff168152505090508060000151341015611287576040517f08c379a000000000000000000000000000000000000000000000000000000000815260040161127e90613a88565b60405180910390fd5b3460096000836020015173ffffffffffffffffffffffffffffffffffffffff1673ffffffffffffffffffffffffffffffffffffffff16815260200190815260200160002060008282546112da919061394a565b92505081905550600760008773ffffffffffffffffffffffffffffffffffffffff1673ffffffffffffffffffffffffffffffffffffffff16815260200190815260200160002060008681526020019081526020016000206000808201600090556001820160006101000a81549073ffffffffffffffffffffffffffffffffffffffff021916905550507fb49ef2f21fa0f81845c5a2812ba538af22bdbb889060303ba3856c7958095da386600760008973ffffffffffffffffffffffffffffffffffffffff1673ffffffffffffffffffffffffffffffffffffffff168152602001908152602001600020600088815260200190815260200160002060010160009054906101000a900473ffffffffffffffffffffffffffffffffffffffff163388600760008c73ffffffffffffffffffffffffffffffffffffffff1673ffffffffffffffffffffffffffffffffffffffff16815260200190815260200160002060008b815260200190815260200160002060000154604051611460959493929190613aa8565b60405180910390a18573ffffffffffffffffffffffffffffffffffffffff166342842e0e826020015133886040518463ffffffff1660e01b81526004016114a993929190613afb565b600060405180830381600087803b1580156114c357600080fd5b505af11580156114d7573d6000803e3d6000fd5b50505050505050505050565b6114eb612cfc565b6114f56000612d7a565b565b828233600083905060008173ffffffffffffffffffffffffffffffffffffffff16636352211e856040518263ffffffff1660e01b815260040161153a9190612fbf565b602060405180830381865afa158015611557573d6000803e3d6000fd5b505050506040513d601f19601f8201168201806040525081019061157b919061391d565b90508073ffffffffffffffffffffffffffffffffffffffff168373ffffffffffffffffffffffffffffffffffffffff16146115e2576040517f30cd747100000000000000000000000000000000000000000000000000000000815260040160405180910390fd5b8787336000600760008573ffffffffffffffffffffffffffffffffffffffff1673ffffffffffffffffffffffffffffffffffffffff1681526020019081526020016000206000848152602001908152602001600020604051806040016040529081600082015481526020016001820160009054906101000a900473ffffffffffffffffffffffffffffffffffffffff1673ffffffffffffffffffffffffffffffffffffffff1673ffffffffffffffffffffffffffffffffffffffff168152505090506000816000015111156116f05783836040517f4a5568d50000000000000000000000000000000000000000000000000000000081526004016116e7929190613635565b60405180910390fd5b60008a11611733576040517f08c379a000000000000000000000000000000000000000000000000000000000815260040161172a90613b7e565b60405180910390fd5b60008c905060405180604001604052808c81526020013373ffffffffffffffffffffffffffffffffffffffff16815250600760008f73ffffffffffffffffffffffffffffffffffffffff1673ffffffffffffffffffffffffffffffffffffffff16815260200190815260200160002060008e81526020019081526020016000206000820151816000015560208201518160010160006101000a81548173ffffffffffffffffffffffffffffffffffffffff021916908373ffffffffffffffffffffffffffffffffffffffff1602179055509050507f120930e4569ba9ce161cf9bdc7acf4e40bdfb26008053dad189ad1e8fc1dfbbc8d338e8e60405161183c949392919061397e565b60405180910390a150505050505050505050505050565b828233600083905060008173ffffffffffffffffffffffffffffffffffffffff16636352211e856040518263ffffffff1660e01b81526004016118969190612fbf565b602060405180830381865afa1580156118b3573d6000803e3d6000fd5b505050506040513d601f19601f820116820180604052508101906118d7919061391d565b90508073ffffffffffffffffffffffffffffffffffffffff168373ffffffffffffffffffffffffffffffffffffffff161461193e576040517f30cd747100000000000000000000000000000000000000000000000000000000815260040160405180910390fd5b87876000600760008473ffffffffffffffffffffffffffffffffffffffff1673ffffffffffffffffffffffffffffffffffffffff1681526020019081526020016000206000838152602001908152602001600020604051806040016040529081600082015481526020016001820160009054906101000a900473ffffffffffffffffffffffffffffffffffffffff1673ffffffffffffffffffffffffffffffffffffffff1673ffffffffffffffffffffffffffffffffffffffff168152505090506000816000015111611a4a5782826040517fdf7ab3d1000000000000000000000000000000000000000000000000000000008152600401611a41929190613635565b60405180910390fd5b88600760008d73ffffffffffffffffffffffffffffffffffffffff1673ffffffffffffffffffffffffffffffffffffffff16815260200190815260200160002060008c8152602001908152602001600020600001819055505050505050505050505050565b60008060009054906101000a900473ffffffffffffffffffffffffffffffffffffffff16905090565b6000600960003373ffffffffffffffffffffffffffffffffffffffff1673ffffffffffffffffffffffffffffffffffffffff16815260200190815260200160002054905060008111611b5f576040517f08c379a0000000000000000000000000000000000000000000000000000000008152600401611b5690613bea565b60405180910390fd5b6000600960003373ffffffffffffffffffffffffffffffffffffffff1673ffffffffffffffffffffffffffffffffffffffff1681526020019081526020016000208190555060003373ffffffffffffffffffffffffffffffffffffffff1682604051611bca90613c38565b60006040518083038185875af1925050503d8060008114611c07576040519150601f19603f3d011682016040523d82523d6000602084013e611c0c565b606091505b5050905080611c50576040517f08c379a0000000000000000000000000000000000000000000000000000000008152600401611c4790613c99565b60405180910390fd5b5050565b60045481565b611c62612e46565b600860008381526020019081526020016000206040518060800160405290816000820160009054906101000a900473ffffffffffffffffffffffffffffffffffffffff1673ffffffffffffffffffffffffffffffffffffffff1673ffffffffffffffffffffffffffffffffffffffff168152602001600182015481526020016002820160009054906101000a900473ffffffffffffffffffffffffffffffffffffffff1673ffffffffffffffffffffffffffffffffffffffff1673ffffffffffffffffffffffffffffffffffffffff1681526020016003820154815250509050919050565b803360006008600084815260200190815260200160002060020160009054906101000a900473ffffffffffffffffffffffffffffffffffffffff1690508073ffffffffffffffffffffffffffffffffffffffff168273ffffffffffffffffffffffffffffffffffffffff1614611de9576040517f30cd747100000000000000000000000000000000000000000000000000000000815260040160405180910390fd5b836000600860008381526020019081526020016000206040518060800160405290816000820160009054906101000a900473ffffffffffffffffffffffffffffffffffffffff1673ffffffffffffffffffffffffffffffffffffffff1673ffffffffffffffffffffffffffffffffffffffff168152602001600182015481526020016002820160009054906101000a900473ffffffffffffffffffffffffffffffffffffffff1673ffffffffffffffffffffffffffffffffffffffff1673ffffffffffffffffffffffffffffffffffffffff168152602001600382015481525050905060008160200151111580611ee557506000816060015111155b15611f5d576008600083815260200190815260200160002060000160009054906101000a900473ffffffffffffffffffffffffffffffffffffffff166040517ff284c5b0000000000000000000000000000000000000000000000000000000008152600401611f549190613141565b60405180910390fd5b60086000878152602001908152602001600020600080820160006101000a81549073ffffffffffffffffffffffffffffffffffffffff021916905560018201600090556002820160006101000a81549073ffffffffffffffffffffffffffffffffffffffff021916905560038201600090555050505050505050565b60006008600084815260200190815260200160002060000160009054906101000a900473ffffffffffffffffffffffffffffffffffffffff1690506008600084815260200190815260200160002060010154670de0b6b3a76400008361203f9190613518565b6120499190613549565b34101561208b576040517f08c379a000000000000000000000000000000000000000000000000000000000815260040161208290613d05565b60405180910390fd5b816008600085815260200190815260200160002060030160008282546120b191906137e4565b925050819055508073ffffffffffffffffffffffffffffffffffffffff166323b872dd6008600086815260200190815260200160002060020160009054906101000a900473ffffffffffffffffffffffffffffffffffffffff1633856040518463ffffffff1660e01b815260040161212b93929190613afb565b6020604051808303816000875af115801561214a573d6000803e3d6000fd5b505050506040513d601f19601f8201168201806040525081019061216e9190613d51565b506008600084815260200190815260200160002060020160009054906101000a900473ffffffffffffffffffffffffffffffffffffffff1673ffffffffffffffffffffffffffffffffffffffff166108fc6008600086815260200190815260200160002060010154670de0b6b3a7640000856121ea9190613518565b6121f49190613549565b9081150290604051600060405180830381858888f1935050505015801561221f573d6000803e3d6000fd5b507f5eff0f847c1aed55aad7d8f167cdcafe007e3e7a1302c70edd1c86e569820a3b6008600085815260200190815260200160002060000160009054906101000a900473ffffffffffffffffffffffffffffffffffffffff163360035460405161228b93929190613afb565b60405180910390a1505050565b826000600860008381526020019081526020016000206040518060800160405290816000820160009054906101000a900473ffffffffffffffffffffffffffffffffffffffff1673ffffffffffffffffffffffffffffffffffffffff1673ffffffffffffffffffffffffffffffffffffffff168152602001600182015481526020016002820160009054906101000a900473ffffffffffffffffffffffffffffffffffffffff1673ffffffffffffffffffffffffffffffffffffffff1673ffffffffffffffffffffffffffffffffffffffff16815260200160038201548152505090506000816020015111158061239457506000816060015111155b1561240c576008600083815260200190815260200160002060000160009054906101000a900473ffffffffffffffffffffffffffffffffffffffff166040517ff284c5b00000000000000000000000000000000000000000000000000000000081526004016124039190613141565b60405180910390fd5b843360006008600084815260200190815260200160002060020160009054906101000a900473ffffffffffffffffffffffffffffffffffffffff1690508073ffffffffffffffffffffffffffffffffffffffff168273ffffffffffffffffffffffffffffffffffffffff16146124ae576040517f30cd747100000000000000000000000000000000000000000000000000000000815260040160405180910390fd5b86600860008a81526020019081526020016000206001018190555085600860008a8152602001908152602001600020600301819055505050505050505050565b823360006006600084815260200190815260200160002060010160009054906101000a900473ffffffffffffffffffffffffffffffffffffffff1690508073ffffffffffffffffffffffffffffffffffffffff168273ffffffffffffffffffffffffffffffffffffffff1614612590576040517f30cd747100000000000000000000000000000000000000000000000000000000815260040160405180910390fd5b856000600660008381526020019081526020016000206040518060e00160405290816000820160009054906101000a900473ffffffffffffffffffffffffffffffffffffffff1673ffffffffffffffffffffffffffffffffffffffff1673ffffffffffffffffffffffffffffffffffffffff1681526020016001820160009054906101000a900473ffffffffffffffffffffffffffffffffffffffff1673ffffffffffffffffffffffffffffffffffffffff1673ffffffffffffffffffffffffffffffffffffffff168152602001600282015481526020016003820154815260200160048201548152602001600582015481526020016006820160009054906101000a900460ff1615151515815250509050600081608001511115806126bb57506000816060015111155b156126fd57816040517fa09e71c60000000000000000000000000000000000000000000000000000000081526004016126f49190612fbf565b60405180910390fd5b60066000898152602001908152602001600020600080820160006101000a81549073ffffffffffffffffffffffffffffffffffffffff02191690556001820160006101000a81549073ffffffffffffffffffffffffffffffffffffffff021916905560028201600090556003820160009055600482016000905560058201600090556006820160006101000a81549060ff021916905550505050505050505050565b823360006006600084815260200190815260200160002060010160009054906101000a900473ffffffffffffffffffffffffffffffffffffffff1690508073ffffffffffffffffffffffffffffffffffffffff168273ffffffffffffffffffffffffffffffffffffffff1614612841576040517f30cd747100000000000000000000000000000000000000000000000000000000815260040160405180910390fd5b856000600660008381526020019081526020016000206040518060e00160405290816000820160009054906101000a900473ffffffffffffffffffffffffffffffffffffffff1673ffffffffffffffffffffffffffffffffffffffff1673ffffffffffffffffffffffffffffffffffffffff1681526020016001820160009054906101000a900473ffffffffffffffffffffffffffffffffffffffff1673ffffffffffffffffffffffffffffffffffffffff1673ffffffffffffffffffffffffffffffffffffffff168152602001600282015481526020016003820154815260200160048201548152602001600582015481526020016006820160009054906101000a900460ff16151515158152505090506000816080015111158061296c57506000816060015111155b156129ae57816040517fa09e71c60000000000000000000000000000000000000000000000000000000081526004016129a59190612fbf565b60405180910390fd5b86600660008a81526020019081526020016000206004018190555085600660008a8152602001908152602001600020600301819055505050505050505050565b6129f6612e9a565b600660008381526020019081526020016000206040518060e00160405290816000820160009054906101000a900473ffffffffffffffffffffffffffffffffffffffff1673ffffffffffffffffffffffffffffffffffffffff1673ffffffffffffffffffffffffffffffffffffffff1681526020016001820160009054906101000a900473ffffffffffffffffffffffffffffffffffffffff1673ffffffffffffffffffffffffffffffffffffffff1673ffffffffffffffffffffffffffffffffffffffff168152602001600282015481526020016003820154815260200160048201548152602001600582015481526020016006820160009054906101000a900460ff1615151515815250509050919050565b612b12612cfc565b600073ffffffffffffffffffffffffffffffffffffffff168173ffffffffffffffffffffffffffffffffffffffff1603612b81576040517f08c379a0000000000000000000000000000000000000000000000000000000008152600401612b7890613df0565b60405180910390fd5b612b8a81612d7a565b50565b60058181548110612b9d57600080fd5b90600052602060002090600402016000915090508060000160009054906101000a900473ffffffffffffffffffffffffffffffffffffffff16908060010154908060020160009054906101000a900473ffffffffffffffffffffffffffffffffffffffff16908060030154905084565b612c15612f05565b600760008473ffffffffffffffffffffffffffffffffffffffff1673ffffffffffffffffffffffffffffffffffffffff1681526020019081526020016000206000838152602001908152602001600020604051806040016040529081600082015481526020016001820160009054906101000a900473ffffffffffffffffffffffffffffffffffffffff1673ffffffffffffffffffffffffffffffffffffffff1673ffffffffffffffffffffffffffffffffffffffff1681525050905092915050565b6001816000016000828254019250508190555050565b600081600001549050919050565b612d04612e3e565b73ffffffffffffffffffffffffffffffffffffffff16612d22611aaf565b73ffffffffffffffffffffffffffffffffffffffff1614612d78576040517f08c379a0000000000000000000000000000000000000000000000000000000008152600401612d6f90613e5c565b60405180910390fd5b565b60008060009054906101000a900473ffffffffffffffffffffffffffffffffffffffff169050816000806101000a81548173ffffffffffffffffffffffffffffffffffffffff021916908373ffffffffffffffffffffffffffffffffffffffff1602179055508173ffffffffffffffffffffffffffffffffffffffff168173ffffffffffffffffffffffffffffffffffffffff167f8be0079c531659141344cd1fd0a4f28419497f9722a3daafe3b4186f6b6457e060405160405180910390a35050565b600033905090565b6040518060800160405280600073ffffffffffffffffffffffffffffffffffffffff16815260200160008152602001600073ffffffffffffffffffffffffffffffffffffffff168152602001600081525090565b6040518060e00160405280600073ffffffffffffffffffffffffffffffffffffffff168152602001600073ffffffffffffffffffffffffffffffffffffffff168152602001600081526020016000815260200160008152602001600081526020016000151581525090565b604051806040016040528060008152602001600073ffffffffffffffffffffffffffffffffffffffff1681525090565b600080fd5b6000819050919050565b612f4d81612f3a565b8114612f5857600080fd5b50565b600081359050612f6a81612f44565b92915050565b60008060408385031215612f8757612f86612f35565b5b6000612f9585828601612f5b565b9250506020612fa685828601612f5b565b9150509250929050565b612fb981612f3a565b82525050565b6000602082019050612fd46000830184612fb0565b92915050565b600073ffffffffffffffffffffffffffffffffffffffff82169050919050565b600061300582612fda565b9050919050565b61301581612ffa565b811461302057600080fd5b50565b6000813590506130328161300c565b92915050565b6000806040838503121561304f5761304e612f35565b5b600061305d85828601613023565b925050602061306e85828601612f5b565b9150509250929050565b60008060006060848603121561309157613090612f35565b5b600061309f86828701613023565b93505060206130b086828701612f5b565b92505060406130c186828701612f5b565b9150509250925092565b600080600080608085870312156130e5576130e4612f35565b5b60006130f387828801613023565b945050602061310487828801612f5b565b935050604061311587828801612f5b565b925050606061312687828801612f5b565b91505092959194509250565b61313b81612ffa565b82525050565b60006020820190506131566000830184613132565b92915050565b60006020828403121561317257613171612f35565b5b600061318084828501612f5b565b91505092915050565b61319281612ffa565b82525050565b6131a181612f3a565b82525050565b6080820160008201516131bd6000850182613189565b5060208201516131d06020850182613198565b5060408201516131e36040850182613189565b5060608201516131f66060850182613198565b50505050565b600060808201905061321160008301846131a7565b92915050565b6000806000606084860312156132305761322f612f35565b5b600061323e86828701612f5b565b935050602061324f86828701612f5b565b925050604061326086828701612f5b565b9150509250925092565b60008060006060848603121561328357613282612f35565b5b600061329186828701612f5b565b93505060206132a286828701613023565b92505060406132b386828701612f5b565b9150509250925092565b60008115159050919050565b6132d2816132bd565b82525050565b60e0820160008201516132ee6000850182613189565b5060208201516133016020850182613189565b5060408201516133146040850182613198565b5060608201516133276060850182613198565b50608082015161333a6080850182613198565b5060a082015161334d60a0850182613198565b5060c082015161336060c08501826132c9565b50505050565b600060e08201905061337b60008301846132d8565b92915050565b60006020828403121561339757613396612f35565b5b60006133a584828501613023565b91505092915050565b60006080820190506133c36000830187613132565b6133d06020830186612fb0565b6133dd6040830185613132565b6133ea6060830184612fb0565b95945050505050565b6040820160008201516134096000850182613198565b50602082015161341c6020850182613189565b50505050565b600060408201905061343760008301846133f3565b92915050565b600082825260208201905092915050565b7f596f752063616e206e6f74206275792074686973206e66740000000000000000600082015250565b600061348460188361343d565b915061348f8261344e565b602082019050919050565b600060208201905081810360008301526134b381613477565b9050919050565b7f4e487b7100000000000000000000000000000000000000000000000000000000600052601260045260246000fd5b7f4e487b7100000000000000000000000000000000000000000000000000000000600052601160045260246000fd5b600061352382612f3a565b915061352e83612f3a565b92508261353e5761353d6134ba565b5b828204905092915050565b600061355482612f3a565b915061355f83612f3a565b9250817fffffffffffffffffffffffffffffffffffffffffffffffffffffffffffffffff0483118215151615613598576135976134e9565b5b828202905092915050565b7f596f7520646f206e6f74206861766520656e6f75676820746f6b656e20746f2060008201527f6275792074686973206e66740000000000000000000000000000000000000000602082015250565b60006135ff602c8361343d565b915061360a826135a3565b604082019050919050565b6000602082019050818103600083015261362e816135f2565b9050919050565b600060408201905061364a6000830185613132565b6136576020830184612fb0565b9392505050565b60008151905061366d81612f44565b92915050565b60006020828403121561368957613688612f35565b5b60006136978482850161365e565b91505092915050565b7f53656c6c657220646f6573206e6f74206861766520656e6f756768206e667473600082015250565b60006136d660208361343d565b91506136e1826136a0565b602082019050919050565b60006020820190508181036000830152613705816136c9565b9050919050565b7f54686973206e667420697320736f6c64206f7574000000000000000000000000600082015250565b600061374260148361343d565b915061374d8261370c565b602082019050919050565b6000602082019050818103600083015261377181613735565b9050919050565b7f4e6f7420656e6f756768206e6674730000000000000000000000000000000000600082015250565b60006137ae600f8361343d565b91506137b982613778565b602082019050919050565b600060208201905081810360008301526137dd816137a1565b9050919050565b60006137ef82612f3a565b91506137fa83612f3a565b9250828203905081811115613812576138116134e9565b5b92915050565b600060c08201905061382d6000830189613132565b61383a6020830188613132565b6138476040830187613132565b6138546060830186612fb0565b6138616080830185612fb0565b61386e60a0830184612fb0565b979650505050505050565b600082825260208201905092915050565b50565b600061389a600083613879565b91506138a58261388a565b600082019050919050565b600060a0820190506138c56000830187613132565b6138d26020830186613132565b6138df6040830185612fb0565b6138ec6060830184612fb0565b81810360808301526138fd8161388d565b905095945050505050565b6000815190506139178161300c565b92915050565b60006020828403121561393357613932612f35565b5b600061394184828501613908565b91505092915050565b600061395582612f3a565b915061396083612f3a565b9250828201905080821115613978576139776134e9565b5b92915050565b60006080820190506139936000830187613132565b6139a06020830186613132565b6139ad6040830185612fb0565b6139ba6060830184612fb0565b95945050505050565b600060a0820190506139d86000830188613132565b6139e56020830187613132565b6139f26040830186612fb0565b6139ff6060830185612fb0565b613a0c6080830184612fb0565b9695505050505050565b7f596f7520646f6e2774206861766520656e6f75676820746f6b656e20746f206260008201527f75792074686973204974656d0000000000000000000000000000000000000000602082015250565b6000613a72602c8361343d565b9150613a7d82613a16565b604082019050919050565b60006020820190508181036000830152613aa181613a65565b9050919050565b600060a082019050613abd6000830188613132565b613aca6020830187613132565b613ad76040830186613132565b613ae46060830185612fb0565b613af16080830184612fb0565b9695505050505050565b6000606082019050613b106000830186613132565b613b1d6020830185613132565b613b2a6040830184612fb0565b949350505050565b7f57726f6e67205072696365202100000000000000000000000000000000000000600082015250565b6000613b68600d8361343d565b9150613b7382613b32565b602082019050919050565b60006020820190508181036000830152613b9781613b5b565b9050919050565b7f4e6f2050726f6365656473000000000000000000000000000000000000000000600082015250565b6000613bd4600b8361343d565b9150613bdf82613b9e565b602082019050919050565b60006020820190508181036000830152613c0381613bc7565b9050919050565b600081905092915050565b6000613c22600083613c0a565b9150613c2d8261388a565b600082019050919050565b6000613c4382613c15565b9150819050919050565b7f5472616e73666572206661696c65640000000000000000000000000000000000600082015250565b6000613c83600f8361343d565b9150613c8e82613c4d565b602082019050919050565b60006020820190508181036000830152613cb281613c76565b9050919050565b7f596f7520646f6e2774206861766520656e6f756768206d6f6e65790000000000600082015250565b6000613cef601b8361343d565b9150613cfa82613cb9565b602082019050919050565b60006020820190508181036000830152613d1e81613ce2565b9050919050565b613d2e816132bd565b8114613d3957600080fd5b50565b600081519050613d4b81613d25565b92915050565b600060208284031215613d6757613d66612f35565b5b6000613d7584828501613d3c565b91505092915050565b7f4f776e61626c653a206e6577206f776e657220697320746865207a65726f206160008201527f6464726573730000000000000000000000000000000000000000000000000000602082015250565b6000613dda60268361343d565b9150613de582613d7e565b604082019050919050565b60006020820190508181036000830152613e0981613dcd565b9050919050565b7f4f776e61626c653a2063616c6c6572206973206e6f7420746865206f776e6572600082015250565b6000613e4660208361343d565b9150613e5182613e10565b602082019050919050565b60006020820190508181036000830152613e7581613e39565b905091905056fea264697066735822122093faa1f43277bd8b1da55978f21d14f1b6fbf54ad20a14a4bbbbfc707ed407c664736f6c63430008100033",
  "immutableReferences": {},
  "source": "// SPDX-License-Identifier: MIT\r\npragma solidity ^0.8.16;\r\n\r\nimport \"@openzeppelin/contracts/token/ERC721/IERC721.sol\";\r\nimport \"@openzeppelin/contracts/token/ERC721/ERC721.sol\";\r\nimport \"@openzeppelin/contracts/token/ERC1155/IERC1155.sol\";\r\nimport \"@openzeppelin/contracts/token/ERC1155/ERC1155.sol\";\r\nimport \"@openzeppelin/contracts/token/ERC20/IERC20.sol\";\r\nimport \"@openzeppelin/contracts/token/ERC20/ERC20.sol\";\r\nimport \"@openzeppelin/contracts/utils/Counters.sol\";\r\nimport \"@openzeppelin/contracts/access/Ownable.sol\";\r\n\r\nerror NotOwner();\r\nerror AlreadyListed(address nftAddress, uint256 tokenId);\r\nerror NotListedERC721(address nftAddress, uint256 tokenId);\r\nerror NotListedERC1155(uint256 listingId);\r\nerror NotListedERC20(address tokenAddress);\r\n\r\ncontract NftMarketplace is Ownable {\r\n    using Counters for Counters.Counter;\r\n    Counters.Counter private _listingIds;\r\n    Counters.Counter private _listingERC20;\r\n    uint256 public tokenERC20Sold;\r\n    uint256 public tokenERC20Listing;\r\n    ListingERC20[] public sellerList;\r\n\r\n    struct ListingERC1155 {\r\n        address nftAddress;\r\n        address seller;\r\n        uint256 tokenId;\r\n        uint256 amount;\r\n        uint256 price;\r\n        uint256 tokenAvailable;\r\n        bool soldOut;\r\n    }\r\n\r\n    struct ListingERC721 {\r\n        uint256 price;\r\n        address seller;\r\n    }\r\n\r\n    struct ListingERC20 {\r\n        address tokenAddress;\r\n        uint256 price;\r\n        address seller;\r\n        uint256 amount;\r\n    }\r\n\r\n    mapping(uint256 => ListingERC1155) private ERC1155List;\r\n    mapping(address => mapping(uint256 => ListingERC721)) private ERC721List;\r\n    mapping(uint256 => ListingERC20) private ERC20List;\r\n    mapping(address => uint256) private ERC721Proceeds;\r\n\r\n    event ERC1155Listed(\r\n        address nftAddress,\r\n        address seller,\r\n        uint256 tokenId,\r\n        uint256 amount,\r\n        uint256 price\r\n    );\r\n\r\n    event ERC721Listed(\r\n        address nftAddress,\r\n        address seller,\r\n        uint256 tokenId,\r\n        uint256 price\r\n    );\r\n\r\n    event ERC20Listed(\r\n        address tokenAddress,\r\n        address seller,\r\n        uint256 price,\r\n        uint256 amount\r\n    );\r\n\r\n    event ERC1155Sold(\r\n        address nftAddress,\r\n        address seller,\r\n        address buyer,\r\n        uint256 tokenId,\r\n        uint256 amount,\r\n        uint256 price\r\n    );\r\n\r\n    event ERC721Sold(\r\n        address nftAddress,\r\n        address seller,\r\n        address buyer,\r\n        uint256 tokenId,\r\n        uint256 price\r\n    );\r\n\r\n    event ERC20Sold(address tokenAddress, address buyer, uint256 amount);\r\n\r\n    modifier isOwnerERC721(\r\n        address nftAddress,\r\n        uint256 tokenId,\r\n        address spender\r\n    ) {\r\n        IERC721 nft = IERC721(nftAddress);\r\n        address owner = nft.ownerOf(tokenId);\r\n        if (spender != owner) {\r\n            revert NotOwner();\r\n        }\r\n        _;\r\n    }\r\n\r\n    modifier isOwnerERC1155(uint256 listingId, address spender) {\r\n        address owner = ERC1155List[listingId].seller;\r\n        if (spender != owner) {\r\n            revert NotOwner();\r\n        }\r\n        _;\r\n    }\r\n\r\n    modifier isOwnerERC20(uint256 listingERC20, address spender) {\r\n        address owner = ERC20List[listingERC20].seller;\r\n        if (spender != owner) {\r\n            revert NotOwner();\r\n        }\r\n        _;\r\n    }\r\n\r\n    modifier notListed(\r\n        address nftAddress,\r\n        uint256 tokenId,\r\n        address owner\r\n    ) {\r\n        ListingERC721 memory listing = ERC721List[nftAddress][tokenId];\r\n        if (listing.price > 0) {\r\n            revert AlreadyListed(nftAddress, tokenId);\r\n        }\r\n        _;\r\n    }\r\n\r\n    modifier isListedERC721(address nftAddress, uint256 tokenId) {\r\n        ListingERC721 memory listing = ERC721List[nftAddress][tokenId];\r\n        if (listing.price <= 0) {\r\n            revert NotListedERC721(nftAddress, tokenId);\r\n        }\r\n        _;\r\n    }\r\n\r\n    modifier isListedERC20(uint256 listingERC20) {\r\n        ListingERC20 memory listing = ERC20List[listingERC20];\r\n        if (listing.price <= 0 || listing.amount <= 0) {\r\n            revert NotListedERC20(ERC20List[listingERC20].tokenAddress);\r\n        }\r\n        _;\r\n    }\r\n\r\n    modifier isListedERC1155(uint256 listingId) {\r\n        ListingERC1155 memory listing = ERC1155List[listingId];\r\n        if (listing.price <= 0 || listing.amount <= 0) {\r\n            revert NotListedERC1155(listingId);\r\n        }\r\n        _;\r\n    }\r\n\r\n    function listItemERC721(\r\n        address nftAddress,\r\n        uint256 tokenId,\r\n        uint256 price\r\n    )\r\n        external\r\n        isOwnerERC721(nftAddress, tokenId, msg.sender)\r\n        notListed(nftAddress, tokenId, msg.sender)\r\n    {\r\n        require(price > 0, \"Wrong Price !\");\r\n        IERC721 nft = IERC721(nftAddress);\r\n        ERC721List[nftAddress][tokenId] = ListingERC721(price, msg.sender);\r\n\r\n        emit ERC721Listed(nftAddress, msg.sender, tokenId, price);\r\n    }\r\n\r\n    function listItemERC1155(\r\n        address nftAddress,\r\n        uint256 tokenId,\r\n        uint256 amount,\r\n        uint256 price\r\n    ) external {\r\n        ERC1155 nft = ERC1155(nftAddress);\r\n        _listingIds.increment();\r\n        uint256 listingId = _listingIds.current();\r\n\r\n        ERC1155List[listingId] = ListingERC1155(\r\n            nftAddress,\r\n            msg.sender,\r\n            tokenId,\r\n            amount,\r\n            price,\r\n            amount,\r\n            false\r\n        );\r\n        emit ERC1155Listed(nftAddress, msg.sender, tokenId, amount, price);\r\n    }\r\n\r\n    function listItemERC20(\r\n        address tokenAddress,\r\n        uint256 amount,\r\n        uint256 price\r\n    ) external {\r\n        ERC20 token = ERC20(tokenAddress);\r\n        _listingERC20.increment();\r\n        uint256 listingERC20 = _listingERC20.current();\r\n        tokenERC20Listing += amount;\r\n        ERC20List[listingERC20] = ListingERC20(\r\n            tokenAddress,\r\n            price,\r\n            msg.sender,\r\n            amount\r\n        );\r\n        emit ERC20Listed(tokenAddress, msg.sender, price, tokenERC20Listing);\r\n    }\r\n\r\n    function buyItemERC721(address nftAddress, uint256 tokenId)\r\n        external\r\n        payable\r\n        isListedERC721(nftAddress, tokenId)\r\n    {\r\n        ListingERC721 memory listedItem = ERC721List[nftAddress][tokenId];\r\n        require(\r\n            msg.value >= listedItem.price,\r\n            \"You don't have enough token to buy this Item\"\r\n        );\r\n        ERC721Proceeds[listedItem.seller] += msg.value;\r\n        delete (ERC721List[nftAddress][tokenId]);\r\n\r\n        emit ERC721Sold(\r\n            nftAddress,\r\n            ERC721List[nftAddress][tokenId].seller,\r\n            msg.sender,\r\n            tokenId,\r\n            ERC721List[nftAddress][tokenId].price\r\n        );\r\n\r\n        IERC721(nftAddress).safeTransferFrom(\r\n            listedItem.seller,\r\n            msg.sender,\r\n            tokenId\r\n        );\r\n    }\r\n\r\n    function buyItemERC1155(uint256 listingId, uint256 amount)\r\n        external\r\n        payable\r\n    {\r\n        ERC1155 nft = ERC1155(ERC1155List[listingId].nftAddress);\r\n        require(\r\n            msg.sender != ERC1155List[listingId].seller,\r\n            \"You can not buy this nft\"\r\n        );\r\n\r\n        require(\r\n            msg.value >= ERC1155List[listingId].price * (amount / (10**18)),\r\n            \"You do not have enough token to buy this nft\"\r\n        );\r\n\r\n        require(\r\n            nft.balanceOf(\r\n                ERC1155List[listingId].seller,\r\n                ERC1155List[listingId].tokenId\r\n            ) >= amount,\r\n            \"Seller does not have enough nfts\"\r\n        );\r\n\r\n        require(\r\n            ERC1155List[listingId].soldOut == false,\r\n            \"This nft is sold out\"\r\n        );\r\n        require(\r\n            ERC1155List[listingId].tokenAvailable >= amount,\r\n            \"Not enough nfts\"\r\n        );\r\n        ERC1155List[listingId].tokenAvailable -= amount;\r\n        if (ERC1155List[listingId].tokenAvailable == 0) {\r\n            ERC1155List[listingId].soldOut = true;\r\n        }\r\n\r\n        emit ERC1155Sold(\r\n            ERC1155List[listingId].nftAddress,\r\n            ERC1155List[listingId].seller,\r\n            msg.sender,\r\n            ERC1155List[listingId].tokenId,\r\n            amount,\r\n            ERC1155List[listingId].price\r\n        );\r\n\r\n        nft.safeTransferFrom(\r\n            ERC1155List[listingId].seller,\r\n            msg.sender,\r\n            ERC1155List[listingId].tokenId,\r\n            amount,\r\n            \"\"\r\n        );\r\n\r\n        payable(ERC1155List[listingId].seller).transfer(\r\n            ((amount / (10**18)) * ERC1155List[listingId].price)\r\n        );\r\n    }\r\n\r\n    function buyItemERC20(uint256 listingERC20, uint256 amount)\r\n        external\r\n        payable\r\n    {\r\n        ERC20 token = ERC20(ERC20List[listingERC20].tokenAddress);\r\n        require(\r\n            msg.value >= ((amount / (10**18)) * ERC20List[listingERC20].price),\r\n            \"You don't have enough money\"\r\n        );\r\n\r\n        ERC20List[listingERC20].amount -= amount;\r\n\r\n        token.transferFrom(ERC20List[listingERC20].seller, msg.sender, amount);\r\n\r\n        payable(ERC20List[listingERC20].seller).transfer(\r\n            ((amount / (10**18)) * ERC20List[listingERC20].price)\r\n        );\r\n\r\n        emit ERC20Sold(\r\n            ERC20List[listingERC20].tokenAddress,\r\n            msg.sender,\r\n            tokenERC20Sold\r\n        );\r\n    }\r\n\r\n    function updateListingERC721(\r\n        address nftAddress,\r\n        uint256 tokenId,\r\n        uint256 newPrice\r\n    )\r\n        external\r\n        isOwnerERC721(nftAddress, tokenId, msg.sender)\r\n        isListedERC721(nftAddress, tokenId)\r\n    {\r\n        ERC721List[nftAddress][tokenId].price = newPrice;\r\n    }\r\n\r\n    function updateListingERC1155(\r\n        uint256 listingId,\r\n        uint256 newPrice,\r\n        uint256 newAmount\r\n    )\r\n        external\r\n        isOwnerERC1155(listingId, msg.sender)\r\n        isListedERC1155(listingId)\r\n    {\r\n        ERC1155List[listingId].price = newPrice;\r\n        ERC1155List[listingId].amount = newAmount;\r\n    }\r\n\r\n    function updateListingERC20(\r\n        uint256 listingERC20,\r\n        uint256 newPrice,\r\n        uint256 newAmount\r\n    )\r\n        external\r\n        isListedERC20(listingERC20)\r\n        isOwnerERC20(listingERC20, msg.sender)\r\n    {\r\n        ERC20List[listingERC20].price = newPrice;\r\n        ERC20List[listingERC20].amount = newAmount;\r\n    }\r\n\r\n    function getListingERC721(address nftAddress, uint256 tokenId)\r\n        external\r\n        view\r\n        returns (ListingERC721 memory)\r\n    {\r\n        return ERC721List[nftAddress][tokenId];\r\n    }\r\n\r\n    function getListingERC1155(uint256 listingId)\r\n        external\r\n        view\r\n        returns (ListingERC1155 memory)\r\n    {\r\n        return ERC1155List[listingId];\r\n    }\r\n\r\n    function getListingERC20(uint256 listingERC20)\r\n        external\r\n        view\r\n        returns (ListingERC20 memory)\r\n    {\r\n        return ERC20List[listingERC20];\r\n    }\r\n\r\n    function cancelListingERC721(address nftAddress, uint256 tokenId)\r\n        external\r\n        isOwnerERC721(nftAddress, tokenId, msg.sender)\r\n        isListedERC721(nftAddress, tokenId)\r\n    {\r\n        delete (ERC721List[nftAddress][tokenId]);\r\n    }\r\n\r\n    function cancelListingERC1155(\r\n        uint256 listingId,\r\n        address nftAddress,\r\n        uint256 tokenId\r\n    )\r\n        external\r\n        isOwnerERC1155(listingId, msg.sender)\r\n        isListedERC1155(listingId)\r\n    {\r\n        delete (ERC1155List[listingId]);\r\n    }\r\n\r\n    function cancelListingERC20(uint256 listingERC20)\r\n        external\r\n        isOwnerERC20(listingERC20, msg.sender)\r\n        isListedERC20(listingERC20)\r\n    {\r\n        delete (ERC20List[listingERC20]);\r\n    }\r\n\r\n    function withdrawProceeds() external {\r\n        uint256 proceeds = ERC721Proceeds[msg.sender];\r\n        require(proceeds > 0, \"No Proceeds\");\r\n        ERC721Proceeds[msg.sender] = 0;\r\n        (bool success, ) = payable(msg.sender).call{value: proceeds}(\"\");\r\n        require(success, \"Transfer failed\");\r\n    }\r\n}\r\n",
  "sourcePath": "D:\\WorkSpace\\Jobs\\NftMarketplace_ERC721\\contracts\\NftMarketplace.sol",
  "compiler": {
    "name": "solc",
    "version": "0.8.16+commit.07a7930e.Emscripten.clang"
  },
  "schemaVersion": "3.4.9",
  "updatedAt": "2022-09-19T04:23:07.877Z",
  "networkType": "ethereum",
  "devdoc": {
    "kind": "dev",
    "methods": {
      "owner()": {
        "details": "Returns the address of the current owner."
      },
      "renounceOwnership()": {
        "details": "Leaves the contract without owner. It will not be possible to call `onlyOwner` functions anymore. Can only be called by the current owner. NOTE: Renouncing ownership will leave the contract without an owner, thereby removing any functionality that is only available to the owner."
      },
      "transferOwnership(address)": {
        "details": "Transfers ownership of the contract to a new account (`newOwner`). Can only be called by the current owner."
      }
    },
    "version": 1
  },
  "userdoc": {
    "kind": "user",
    "methods": {},
    "version": 1
  }
}